{
  "contractName": "ERC1400",
  "abi": [
    {
      "inputs": [
        {
          "internalType": "string",
          "name": "_name",
          "type": "string"
        },
        {
          "internalType": "string",
          "name": "_symbol",
          "type": "string"
        },
        {
          "internalType": "uint256",
          "name": "_decimals",
          "type": "uint256"
        },
        {
          "internalType": "uint256",
          "name": "_totalSupply",
          "type": "uint256"
        },
        {
          "internalType": "bytes32[]",
          "name": "_defaultPartitions",
          "type": "bytes32[]"
        }
      ],
      "stateMutability": "nonpayable",
      "type": "constructor"
    },
    {
      "anonymous": false,
      "inputs": [
        {
          "indexed": false,
          "internalType": "address",
          "name": "_tokenHolder",
          "type": "address"
        },
        {
          "indexed": false,
          "internalType": "address",
          "name": "_externalAddress",
          "type": "address"
        },
        {
          "indexed": false,
          "internalType": "uint256",
          "name": "_amount",
          "type": "uint256"
        }
      ],
      "name": "Approval",
      "type": "event"
    },
    {
      "anonymous": false,
      "inputs": [
        {
          "indexed": true,
          "internalType": "address",
          "name": "_operator",
          "type": "address"
        },
        {
          "indexed": true,
          "internalType": "address",
          "name": "_tokenHolder",
          "type": "address"
        }
      ],
      "name": "AuthorizedOperator",
      "type": "event"
    },
    {
      "anonymous": false,
      "inputs": [
        {
          "indexed": true,
          "internalType": "bytes32",
          "name": "_partition",
          "type": "bytes32"
        },
        {
          "indexed": true,
          "internalType": "address",
          "name": "_operator",
          "type": "address"
        },
        {
          "indexed": true,
          "internalType": "address",
          "name": "_tokenHolder",
          "type": "address"
        }
      ],
      "name": "AuthorizedOperatorByPartition",
      "type": "event"
    },
    {
      "anonymous": false,
      "inputs": [
        {
          "indexed": false,
          "internalType": "bytes32",
          "name": "_name",
          "type": "bytes32"
        },
        {
          "indexed": false,
          "internalType": "bytes32",
          "name": "_documentHash",
          "type": "bytes32"
        },
        {
          "indexed": false,
          "internalType": "string",
          "name": "_uri",
          "type": "string"
        }
      ],
      "name": "Document",
      "type": "event"
    },
    {
      "anonymous": false,
      "inputs": [
        {
          "indexed": false,
          "internalType": "address",
          "name": "_to",
          "type": "address"
        },
        {
          "indexed": false,
          "internalType": "uint256",
          "name": "_amountIssued",
          "type": "uint256"
        },
        {
          "indexed": false,
          "internalType": "uint256",
          "name": "_totalSupply",
          "type": "uint256"
        },
        {
          "indexed": false,
          "internalType": "uint256",
          "name": "_timeIssued",
          "type": "uint256"
        }
      ],
      "name": "Issued",
      "type": "event"
    },
    {
      "anonymous": false,
      "inputs": [
        {
          "indexed": true,
          "internalType": "bytes32",
          "name": "_partition",
          "type": "bytes32"
        },
        {
          "indexed": true,
          "internalType": "address",
          "name": "_operator",
          "type": "address"
        },
        {
          "indexed": true,
          "internalType": "address",
          "name": "_to",
          "type": "address"
        },
        {
          "indexed": false,
          "internalType": "uint256",
          "name": "_amount",
          "type": "uint256"
        },
        {
          "indexed": false,
          "internalType": "bytes",
          "name": "_data",
          "type": "bytes"
        },
        {
          "indexed": false,
          "internalType": "bytes",
          "name": "_operatorData",
          "type": "bytes"
        }
      ],
      "name": "IssuedByPartition",
      "type": "event"
    },
    {
      "anonymous": false,
      "inputs": [
        {
          "indexed": true,
          "internalType": "bytes32",
          "name": "_partition",
          "type": "bytes32"
        },
        {
          "indexed": true,
          "internalType": "address",
          "name": "_operator",
          "type": "address"
        },
        {
          "indexed": true,
          "internalType": "address",
          "name": "_from",
          "type": "address"
        },
        {
          "indexed": false,
          "internalType": "uint256",
          "name": "_amount",
          "type": "uint256"
        },
        {
          "indexed": false,
          "internalType": "bytes",
          "name": "_operatorData",
          "type": "bytes"
        }
      ],
      "name": "RedeemedByPartition",
      "type": "event"
    },
    {
      "anonymous": false,
      "inputs": [
        {
          "indexed": true,
          "internalType": "address",
          "name": "_operator",
          "type": "address"
        },
        {
          "indexed": true,
          "internalType": "address",
          "name": "_tokenHolder",
          "type": "address"
        }
      ],
      "name": "RevokedOperator",
      "type": "event"
    },
    {
      "anonymous": false,
      "inputs": [
        {
          "indexed": true,
          "internalType": "bytes32",
          "name": "_partition",
          "type": "bytes32"
        },
        {
          "indexed": true,
          "internalType": "address",
          "name": "_operator",
          "type": "address"
        },
        {
          "indexed": true,
          "internalType": "address",
          "name": "_tokenHolder",
          "type": "address"
        }
      ],
      "name": "RevokedOperatorByPartition",
      "type": "event"
    },
    {
      "anonymous": false,
      "inputs": [
        {
          "indexed": false,
          "internalType": "address",
          "name": "_from",
          "type": "address"
        },
        {
          "indexed": false,
          "internalType": "address",
          "name": "_to",
          "type": "address"
        },
        {
          "indexed": false,
          "internalType": "uint256",
          "name": "_amount",
          "type": "uint256"
        }
      ],
      "name": "Transfer",
      "type": "event"
    },
    {
      "anonymous": false,
      "inputs": [
        {
          "indexed": true,
          "internalType": "bytes32",
          "name": "_fromPartition",
          "type": "bytes32"
        },
        {
          "indexed": false,
          "internalType": "address",
          "name": "_operator",
          "type": "address"
        },
        {
          "indexed": true,
          "internalType": "address",
          "name": "_from",
          "type": "address"
        },
        {
          "indexed": true,
          "internalType": "address",
          "name": "_to",
          "type": "address"
        },
        {
          "indexed": false,
          "internalType": "uint256",
          "name": "_value",
          "type": "uint256"
        },
        {
          "indexed": false,
          "internalType": "bytes",
          "name": "_data",
          "type": "bytes"
        },
        {
          "indexed": false,
          "internalType": "bytes",
          "name": "_operatorData",
          "type": "bytes"
        }
      ],
      "name": "TransferByPartition",
      "type": "event"
    },
    {
      "anonymous": false,
      "inputs": [
        {
          "indexed": false,
          "internalType": "address",
          "name": "_investor",
          "type": "address"
        },
        {
          "indexed": false,
          "internalType": "uint256",
          "name": "_timeAdded",
          "type": "uint256"
        }
      ],
      "name": "WhiteList",
      "type": "event"
    },
    {
      "inputs": [],
      "name": "decimals",
      "outputs": [
        {
          "internalType": "uint256",
          "name": "",
          "type": "uint256"
        }
      ],
      "stateMutability": "view",
      "type": "function",
      "constant": true
    },
    {
      "inputs": [
        {
          "internalType": "bytes32",
          "name": "",
          "type": "bytes32"
        }
      ],
      "name": "documents",
      "outputs": [
        {
          "internalType": "bytes32",
          "name": "_name",
          "type": "bytes32"
        },
        {
          "internalType": "bytes32",
          "name": "_documentHash",
          "type": "bytes32"
        },
        {
          "internalType": "string",
          "name": "_uri",
          "type": "string"
        }
      ],
      "stateMutability": "view",
      "type": "function",
      "constant": true
    },
    {
      "inputs": [],
      "name": "granularity",
      "outputs": [
        {
          "internalType": "uint256",
          "name": "",
          "type": "uint256"
        }
      ],
      "stateMutability": "view",
      "type": "function",
      "constant": true
    },
    {
      "inputs": [],
      "name": "name",
      "outputs": [
        {
          "internalType": "string",
          "name": "",
          "type": "string"
        }
      ],
      "stateMutability": "view",
      "type": "function",
      "constant": true
    },
    {
      "inputs": [
        {
          "internalType": "bytes32",
          "name": "",
          "type": "bytes32"
        }
      ],
      "name": "partitions",
      "outputs": [
        {
          "internalType": "uint256",
          "name": "",
          "type": "uint256"
        }
      ],
      "stateMutability": "view",
      "type": "function",
      "constant": true
    },
    {
      "inputs": [],
      "name": "symbol",
      "outputs": [
        {
          "internalType": "string",
          "name": "",
          "type": "string"
        }
      ],
      "stateMutability": "view",
      "type": "function",
      "constant": true
    },
    {
      "inputs": [],
      "name": "totalSupply",
      "outputs": [
        {
          "internalType": "uint256",
          "name": "",
          "type": "uint256"
        }
      ],
      "stateMutability": "view",
      "type": "function",
      "constant": true
    },
    {
      "inputs": [
        {
          "internalType": "address",
          "name": "_to",
          "type": "address"
        },
        {
          "internalType": "uint256",
          "name": "_amount",
          "type": "uint256"
        }
      ],
      "name": "issueTokens",
      "outputs": [],
      "stateMutability": "nonpayable",
      "type": "function"
    },
    {
      "inputs": [
        {
          "internalType": "address",
          "name": "_externalAddress",
          "type": "address"
        },
        {
          "internalType": "uint256",
          "name": "_value",
          "type": "uint256"
        }
      ],
      "name": "approve",
      "outputs": [
        {
          "internalType": "bool",
          "name": "success",
          "type": "bool"
        }
      ],
      "stateMutability": "nonpayable",
      "type": "function"
    },
    {
      "inputs": [
        {
          "internalType": "address",
          "name": "_tokenHolder",
          "type": "address"
        }
      ],
      "name": "balanceOf",
      "outputs": [
        {
          "internalType": "uint256",
          "name": "",
          "type": "uint256"
        }
      ],
      "stateMutability": "view",
      "type": "function",
      "constant": true
    },
    {
      "inputs": [
        {
          "internalType": "address",
          "name": "_to",
          "type": "address"
        },
        {
          "internalType": "uint256",
          "name": "_value",
          "type": "uint256"
        }
      ],
      "name": "canTransfer",
      "outputs": [
        {
          "internalType": "bytes1",
          "name": "status",
          "type": "bytes1"
        },
        {
          "internalType": "bytes32",
          "name": "statusDescription",
          "type": "bytes32"
        }
      ],
      "stateMutability": "view",
      "type": "function",
      "constant": true
    },
    {
      "inputs": [
        {
          "internalType": "address",
          "name": "_investor",
          "type": "address"
        }
      ],
      "name": "addToWhiteList",
      "outputs": [],
      "stateMutability": "nonpayable",
      "type": "function"
    },
    {
      "inputs": [
        {
          "internalType": "address",
          "name": "_to",
          "type": "address"
        },
        {
          "internalType": "uint256",
          "name": "_amount",
          "type": "uint256"
        }
      ],
      "name": "transfer",
      "outputs": [
        {
          "internalType": "bool",
          "name": "success",
          "type": "bool"
        }
      ],
      "stateMutability": "nonpayable",
      "type": "function"
    },
    {
      "inputs": [
        {
          "internalType": "address",
          "name": "_from",
          "type": "address"
        },
        {
          "internalType": "address",
          "name": "_to",
          "type": "address"
        },
        {
          "internalType": "uint256",
          "name": "_amount",
          "type": "uint256"
        }
      ],
      "name": "transferFrom",
      "outputs": [
        {
          "internalType": "bool",
          "name": "success",
          "type": "bool"
        }
      ],
      "stateMutability": "nonpayable",
      "type": "function"
    },
    {
      "inputs": [
        {
          "internalType": "bytes32",
          "name": "_name",
          "type": "bytes32"
        },
        {
          "internalType": "bytes32",
          "name": "_documentHash",
          "type": "bytes32"
        },
        {
          "internalType": "string",
          "name": "_uri",
          "type": "string"
        }
      ],
      "name": "setDocument",
      "outputs": [],
      "stateMutability": "nonpayable",
      "type": "function"
    },
    {
      "inputs": [
        {
          "internalType": "bytes32",
          "name": "_name",
          "type": "bytes32"
        }
      ],
      "name": "getDocument",
      "outputs": [
        {
          "internalType": "string",
          "name": "uri",
          "type": "string"
        },
        {
          "internalType": "bytes32",
          "name": "name",
          "type": "bytes32"
        }
      ],
      "stateMutability": "view",
      "type": "function",
      "constant": true
    },
    {
      "inputs": [
        {
          "internalType": "address",
          "name": "_operator",
          "type": "address"
        },
        {
          "internalType": "address",
          "name": "_tokenHolder",
          "type": "address"
        }
      ],
      "name": "isOperator",
      "outputs": [
        {
          "internalType": "bool",
          "name": "",
          "type": "bool"
        }
      ],
      "stateMutability": "view",
      "type": "function",
      "constant": true
    },
    {
      "inputs": [
        {
          "internalType": "address",
          "name": "_operator",
          "type": "address"
        }
      ],
      "name": "authorizeOperator",
      "outputs": [],
      "stateMutability": "nonpayable",
      "type": "function"
    },
    {
      "inputs": [
        {
          "internalType": "address",
          "name": "_operator",
          "type": "address"
        }
      ],
      "name": "revokeOperator",
      "outputs": [],
      "stateMutability": "nonpayable",
      "type": "function"
    },
    {
      "inputs": [
        {
          "internalType": "bytes32",
          "name": "_partition",
          "type": "bytes32"
        },
        {
          "internalType": "address",
          "name": "_operator",
          "type": "address"
        },
        {
          "internalType": "address",
          "name": "_tokenHolder",
          "type": "address"
        }
      ],
      "name": "isOperatorForPartition",
      "outputs": [
        {
          "internalType": "bool",
          "name": "",
          "type": "bool"
        }
      ],
      "stateMutability": "view",
      "type": "function",
      "constant": true
    },
    {
      "inputs": [
        {
          "internalType": "bytes32",
          "name": "_partition",
          "type": "bytes32"
        },
        {
          "internalType": "address",
          "name": "_operator",
          "type": "address"
        }
      ],
      "name": "authorizeOperatorByPartition",
      "outputs": [],
      "stateMutability": "nonpayable",
      "type": "function"
    },
    {
      "inputs": [
        {
          "internalType": "bytes32",
          "name": "_partition",
          "type": "bytes32"
        },
        {
          "internalType": "address",
          "name": "_operator",
          "type": "address"
        }
      ],
      "name": "revokeOperatorByPartition",
      "outputs": [],
      "stateMutability": "nonpayable",
      "type": "function"
    },
    {
      "inputs": [],
      "name": "totalPartitions",
      "outputs": [
        {
          "internalType": "bytes32[]",
          "name": "",
          "type": "bytes32[]"
        }
      ],
      "stateMutability": "view",
      "type": "function",
      "constant": true
    },
    {
      "inputs": [
        {
          "internalType": "bytes32",
          "name": "_partition",
          "type": "bytes32"
        },
        {
          "internalType": "address",
          "name": "_tokenHolder",
          "type": "address"
        }
      ],
      "name": "balanceOfByPartition",
      "outputs": [
        {
          "internalType": "uint256",
          "name": "",
          "type": "uint256"
        }
      ],
      "stateMutability": "view",
      "type": "function",
      "constant": true
    },
    {
      "inputs": [
        {
          "internalType": "address",
          "name": "_tokenHolder",
          "type": "address"
        }
      ],
      "name": "partitionsOf",
      "outputs": [
        {
          "internalType": "bytes32[]",
          "name": "",
          "type": "bytes32[]"
        }
      ],
      "stateMutability": "view",
      "type": "function",
      "constant": true
    },
    {
      "inputs": [
        {
          "internalType": "address",
          "name": "_from",
          "type": "address"
        },
        {
          "internalType": "address",
          "name": "_to",
          "type": "address"
        },
        {
          "internalType": "bytes32",
          "name": "_partition",
          "type": "bytes32"
        },
        {
          "internalType": "uint256",
          "name": "_value",
          "type": "uint256"
        },
        {
          "internalType": "bytes",
          "name": "_data",
          "type": "bytes"
        }
      ],
      "name": "canTransferByPartition",
      "outputs": [
        {
          "internalType": "bytes1",
          "name": "",
          "type": "bytes1"
        },
        {
          "internalType": "bytes32",
          "name": "",
          "type": "bytes32"
        },
        {
          "internalType": "bytes32",
          "name": "",
          "type": "bytes32"
        }
      ],
      "stateMutability": "view",
      "type": "function",
      "constant": true
    },
    {
      "inputs": [
        {
          "internalType": "bytes32",
          "name": "_partition",
          "type": "bytes32"
        },
        {
          "internalType": "address",
          "name": "_to",
          "type": "address"
        },
        {
          "internalType": "uint256",
          "name": "_value",
          "type": "uint256"
        },
        {
          "internalType": "bytes",
          "name": "_data",
          "type": "bytes"
        }
      ],
      "name": "transferByPartition",
      "outputs": [
        {
          "internalType": "bytes32",
          "name": "",
          "type": "bytes32"
        }
      ],
      "stateMutability": "nonpayable",
      "type": "function"
    },
    {
      "inputs": [
        {
          "internalType": "bytes32",
          "name": "_partition",
          "type": "bytes32"
        },
        {
          "internalType": "address",
          "name": "_from",
          "type": "address"
        },
        {
          "internalType": "address",
          "name": "_to",
          "type": "address"
        },
        {
          "internalType": "uint256",
          "name": "_value",
          "type": "uint256"
        },
        {
          "internalType": "bytes",
          "name": "_data",
          "type": "bytes"
        },
        {
          "internalType": "bytes",
          "name": "_operatorData",
          "type": "bytes"
        }
      ],
      "name": "operatorTransferByPartition",
      "outputs": [
        {
          "internalType": "bytes32",
          "name": "",
          "type": "bytes32"
        }
      ],
      "stateMutability": "nonpayable",
      "type": "function"
    },
    {
      "inputs": [
        {
          "internalType": "bytes32",
          "name": "_partition",
          "type": "bytes32"
        },
        {
          "internalType": "address",
          "name": "_tokenHolder",
          "type": "address"
        },
        {
          "internalType": "uint256",
          "name": "_value",
          "type": "uint256"
        },
        {
          "internalType": "bytes",
          "name": "_data",
          "type": "bytes"
        }
      ],
      "name": "issueByPartition",
      "outputs": [],
      "stateMutability": "nonpayable",
      "type": "function"
    },
    {
      "inputs": [
        {
          "internalType": "bytes32",
          "name": "_partition",
          "type": "bytes32"
        },
        {
          "internalType": "uint256",
          "name": "_value",
          "type": "uint256"
        },
        {
          "internalType": "bytes",
          "name": "_data",
          "type": "bytes"
        }
      ],
      "name": "redeemByPartition",
      "outputs": [],
      "stateMutability": "nonpayable",
      "type": "function"
    },
    {
      "inputs": [
        {
          "internalType": "bytes32",
          "name": "_partition",
          "type": "bytes32"
        },
        {
          "internalType": "address",
          "name": "_tokenHolder",
          "type": "address"
        },
        {
          "internalType": "uint256",
          "name": "_value",
          "type": "uint256"
        },
        {
          "internalType": "bytes",
          "name": "_operatorData",
          "type": "bytes"
        }
      ],
      "name": "operatorRedeemByPartition",
      "outputs": [],
      "stateMutability": "nonpayable",
      "type": "function"
    }
  ],
  "bytecode": "0x60806040526000600560146101000a81548160ff0219169083151502179055503480156200002c57600080fd5b50604051620044523803806200445283398181016040528101906200005291906200051d565b84600090805190602001906200006a9291906200010e565b508360019080519060200190620000839291906200010e565b5082600481905550600454600a6200009c919062000785565b6002819055508160038190555033600560006101000a81548173ffffffffffffffffffffffffffffffffffffffff021916908373ffffffffffffffffffffffffffffffffffffffff1602179055508060069080519060200190620001029291906200019f565b5050505050506200083b565b8280546200011c9062000805565b90600052602060002090601f0160209004810192826200014057600085556200018c565b82601f106200015b57805160ff19168380011785556200018c565b828001600101855582156200018c579182015b828111156200018b5782518255916020019190600101906200016e565b5b5090506200019b9190620001f1565b5090565b828054828255906000526020600020908101928215620001de579160200282015b82811115620001dd578251825591602001919060010190620001c0565b5b509050620001ed919062000210565b5090565b5b808211156200020c576000816000905550600101620001f2565b5090565b5b808211156200022b57600081600090555060010162000211565b5090565b6000604051905090565b600080fd5b600080fd5b600080fd5b600080fd5b6000601f19601f8301169050919050565b7f4e487b7100000000000000000000000000000000000000000000000000000000600052604160045260246000fd5b62000298826200024d565b810181811067ffffffffffffffff82111715620002ba57620002b96200025e565b5b80604052505050565b6000620002cf6200022f565b9050620002dd82826200028d565b919050565b600067ffffffffffffffff8211156200030057620002ff6200025e565b5b6200030b826200024d565b9050602081019050919050565b60005b83811015620003385780820151818401526020810190506200031b565b8381111562000348576000848401525b50505050565b6000620003656200035f84620002e2565b620002c3565b90508281526020810184848401111562000384576200038362000248565b5b6200039184828562000318565b509392505050565b600082601f830112620003b157620003b062000243565b5b8151620003c38482602086016200034e565b91505092915050565b6000819050919050565b620003e181620003cc565b8114620003ed57600080fd5b50565b6000815190506200040181620003d6565b92915050565b600067ffffffffffffffff8211156200042557620004246200025e565b5b602082029050602081019050919050565b600080fd5b6000819050919050565b62000450816200043b565b81146200045c57600080fd5b50565b600081519050620004708162000445565b92915050565b60006200048d620004878462000407565b620002c3565b90508083825260208201905060208402830185811115620004b357620004b262000436565b5b835b81811015620004e05780620004cb88826200045f565b845260208401935050602081019050620004b5565b5050509392505050565b600082601f83011262000502576200050162000243565b5b81516200051484826020860162000476565b91505092915050565b600080600080600060a086880312156200053c576200053b62000239565b5b600086015167ffffffffffffffff8111156200055d576200055c6200023e565b5b6200056b8882890162000399565b955050602086015167ffffffffffffffff8111156200058f576200058e6200023e565b5b6200059d8882890162000399565b9450506040620005b088828901620003f0565b9350506060620005c388828901620003f0565b925050608086015167ffffffffffffffff811115620005e757620005e66200023e565b5b620005f588828901620004ea565b9150509295509295909350565b7f4e487b7100000000000000000000000000000000000000000000000000000000600052601160045260246000fd5b60008160011c9050919050565b6000808291508390505b6001851115620006905780860481111562000668576200066762000602565b5b6001851615620006785780820291505b8081029050620006888562000631565b945062000648565b94509492505050565b600082620006ab57600190506200077e565b81620006bb57600090506200077e565b8160018114620006d45760028114620006df5762000715565b60019150506200077e565b60ff841115620006f457620006f362000602565b5b8360020a9150848211156200070e576200070d62000602565b5b506200077e565b5060208310610133831016604e8410600b84101617156200074f5782820a90508381111562000749576200074862000602565b5b6200077e565b6200075e84848460016200063e565b9250905081840481111562000778576200077762000602565b5b81810290505b9392505050565b60006200079282620003cc565b91506200079f83620003cc565b9250620007ce7fffffffffffffffffffffffffffffffffffffffffffffffffffffffffffffffff848462000699565b905092915050565b7f4e487b7100000000000000000000000000000000000000000000000000000000600052602260045260246000fd5b600060028204905060018216806200081e57607f821691505b60208210811415620008355762000834620007d6565b5b50919050565b613c07806200084b6000396000f3fe608060405234801561001057600080fd5b50600436106101e55760003560e01c80636d77cad61161010f5780639945e70e116100a2578063d445781a11610071578063d445781a146105df578063d45e09c11461060f578063f3d490db14610640578063fad8b32a14610670576101e5565b80639945e70e1461051c578063a9059cbb1461054e578063b10d6b411461057e578063b6363cf2146105af576101e5565b8063940ce824116100de578063940ce824146104aa578063959b8c3f146104c657806395d89b41146104e257806398ddcec714610500576101e5565b80636d77cad6146103ea57806370a082311461041a578063740ab8f41461044a5780638c0dee9c1461047a576101e5565b806330e8280311610187578063556f0dc711610156578063556f0dc71461037657806362eb00681461039457806367c84919146103b057806369598efe146103cc576101e5565b806330e82803146102f0578063313ce56714610320578063475a9fa91461033e57806347ee03941461035a576101e5565b8063168ecec5116101c3578063168ecec51461025457806318160ddd1461027057806323b872dd1461028e5780632b2805db146102be576101e5565b806306fdde03146101ea578063095ea7b314610208578063103ef9e114610238575b600080fd5b6101f261068c565b6040516101ff9190612a56565b60405180910390f35b610222600480360381019061021d9190612b20565b61071a565b60405161022f9190612b7b565b60405180910390f35b610252600480360381019061024d9190612bcc565b610851565b005b61026e60048036038101906102699190612bcc565b610956565b005b610278610a5b565b6040516102859190612c1b565b60405180910390f35b6102a860048036038101906102a39190612c36565b610a61565b6040516102b59190612b7b565b60405180910390f35b6102d860048036038101906102d39190612c89565b610b85565b6040516102e793929190612cc5565b60405180910390f35b61030a60048036038101906103059190612bcc565b610c37565b6040516103179190612c1b565b60405180910390f35b610328610c92565b6040516103359190612c1b565b60405180910390f35b61035860048036038101906103539190612b20565b610c98565b005b610374600480360381019061036f9190612d03565b610e27565b005b61037e610fd8565b60405161038b9190612c1b565b60405180910390f35b6103ae60048036038101906103a99190612d95565b610fde565b005b6103ca60048036038101906103c59190612e09565b611044565b005b6103d461122e565b6040516103e19190612f4f565b60405180910390f35b61040460048036038101906103ff9190612f71565b611286565b6040516104119190612b7b565b60405180910390f35b610434600480360381019061042f9190612d03565b61132c565b6040516104419190612c1b565b60405180910390f35b610464600480360381019061045f9190612d03565b611375565b6040516104719190612f4f565b60405180910390f35b610494600480360381019061048f9190612fc4565b61140c565b6040516104a19190613093565b60405180910390f35b6104c460048036038101906104bf9190613104565b6115b2565b005b6104e060048036038101906104db9190612d03565b61169b565b005b6104ea61178d565b6040516104f79190612a56565b60405180910390f35b61051a60048036038101906105159190612e09565b61181b565b005b610536600480360381019061053191906132a8565b6119ed565b6040516105459392919061337a565b60405180910390f35b61056860048036038101906105639190612b20565b611b2a565b6040516105759190612b7b565b60405180910390f35b61059860048036038101906105939190612c89565b611b42565b6040516105a69291906133b1565b60405180910390f35b6105c960048036038101906105c491906133e1565b611bfb565b6040516105d69190612b7b565b60405180910390f35b6105f960048036038101906105f49190612c89565b611c8f565b6040516106069190612c1b565b60405180910390f35b61062960048036038101906106249190612b20565b611ca7565b604051610637929190613421565b60405180910390f35b61065a60048036038101906106559190612e09565b611d19565b6040516106679190613093565b60405180910390f35b61068a60048036038101906106859190612d03565b611d86565b005b6000805461069990613479565b80601f01602080910402602001604051908101604052809291908181526020018280546106c590613479565b80156107125780601f106106e757610100808354040283529160200191610712565b820191906000526020600020905b8154815290600101906020018083116106f557829003601f168201915b505050505081565b60008073ffffffffffffffffffffffffffffffffffffffff168373ffffffffffffffffffffffffffffffffffffffff16141561078b576040517f08c379a0000000000000000000000000000000000000000000000000000000008152600401610782906134f7565b60405180910390fd5b81600960003373ffffffffffffffffffffffffffffffffffffffff1673ffffffffffffffffffffffffffffffffffffffff16815260200190815260200160002060008573ffffffffffffffffffffffffffffffffffffffff1673ffffffffffffffffffffffffffffffffffffffff168152602001908152602001600020819055507f8c5be1e5ebec7d5bd14f71427d1e84f3dd0314c0f7b2291e5b200ac8c7c3b92533848460405161083f93929190613526565b60405180910390a16001905092915050565b6001601060003373ffffffffffffffffffffffffffffffffffffffff1673ffffffffffffffffffffffffffffffffffffffff16815260200190815260200160002060008373ffffffffffffffffffffffffffffffffffffffff1673ffffffffffffffffffffffffffffffffffffffff168152602001908152602001600020600084815260200190815260200160002060006101000a81548160ff0219169083151502179055503373ffffffffffffffffffffffffffffffffffffffff168173ffffffffffffffffffffffffffffffffffffffff16837f3646a897c70797ecc134b0adc32f471b07bf1d6f451133b0384badab531e3fd660405160405180910390a45050565b6000601060003373ffffffffffffffffffffffffffffffffffffffff1673ffffffffffffffffffffffffffffffffffffffff16815260200190815260200160002060008373ffffffffffffffffffffffffffffffffffffffff1673ffffffffffffffffffffffffffffffffffffffff168152602001908152602001600020600084815260200190815260200160002060006101000a81548160ff0219169083151502179055503373ffffffffffffffffffffffffffffffffffffffff168173ffffffffffffffffffffffffffffffffffffffff16837f3b287c4f1bab4df949b33bceacef984f544dc5d5479930d00e4ee8c9d8dd96f260405160405180910390a45050565b60035481565b600081600960008673ffffffffffffffffffffffffffffffffffffffff1673ffffffffffffffffffffffffffffffffffffffff16815260200190815260200160002060003373ffffffffffffffffffffffffffffffffffffffff1673ffffffffffffffffffffffffffffffffffffffff168152602001908152602001600020541015610aec57600080fd5b610af7848484611e78565b506000600960008673ffffffffffffffffffffffffffffffffffffffff1673ffffffffffffffffffffffffffffffffffffffff16815260200190815260200160002060003373ffffffffffffffffffffffffffffffffffffffff1673ffffffffffffffffffffffffffffffffffffffff16815260200190815260200160002081905550600190509392505050565b600c602052806000526040600020600091509050806000015490806001015490806002018054610bb490613479565b80601f0160208091040260200160405190810160405280929190818152602001828054610be090613479565b8015610c2d5780601f10610c0257610100808354040283529160200191610c2d565b820191906000526020600020905b815481529060010190602001808311610c1057829003601f168201915b5050505050905083565b6000600d60008373ffffffffffffffffffffffffffffffffffffffff1673ffffffffffffffffffffffffffffffffffffffff168152602001908152602001600020600084815260200190815260200160002054905092915050565b60045481565b600560009054906101000a900473ffffffffffffffffffffffffffffffffffffffff1673ffffffffffffffffffffffffffffffffffffffff163373ffffffffffffffffffffffffffffffffffffffff1614610d28576040517f08c379a0000000000000000000000000000000000000000000000000000000008152600401610d1f906135a9565b60405180910390fd5b600073ffffffffffffffffffffffffffffffffffffffff168273ffffffffffffffffffffffffffffffffffffffff161415610d6257600080fd5b600060025482610d7291906135f8565b905080600a60008573ffffffffffffffffffffffffffffffffffffffff1673ffffffffffffffffffffffffffffffffffffffff1681526020019081526020016000206000828254610dc39190613652565b925050819055508060036000828254610ddc9190613652565b925050819055507f5a1f7f24a8d262d4fd95d7324e83dcdd93b4b9911cc5f45cac5a0382242953a4838260035442604051610e1a94939291906136a8565b60405180910390a1505050565b600560009054906101000a900473ffffffffffffffffffffffffffffffffffffffff1673ffffffffffffffffffffffffffffffffffffffff163373ffffffffffffffffffffffffffffffffffffffff1614610eb7576040517f08c379a0000000000000000000000000000000000000000000000000000000008152600401610eae906135a9565b60405180910390fd5b600860008273ffffffffffffffffffffffffffffffffffffffff1673ffffffffffffffffffffffffffffffffffffffff16815260200190815260200160002060009054906101000a900460ff1615610f44576040517f08c379a0000000000000000000000000000000000000000000000000000000008152600401610f3b9061375f565b60405180910390fd5b6001600860008373ffffffffffffffffffffffffffffffffffffffff1673ffffffffffffffffffffffffffffffffffffffff16815260200190815260200160002060006101000a81548160ff0219169083151502179055507fcb3de9106aa8cc3efea54defa4b3ec342e8ae23607fd0255b1dcee4813f9f4bc8142604051610fcd92919061377f565b60405180910390a150565b60025481565b61103e84338585858080601f016020809104026020016040519081016040528093929190818152602001838380828437600081840152601f19601f82011690508083019250505050505050604051806020016040528060008152506120cd565b50505050565b600560009054906101000a900473ffffffffffffffffffffffffffffffffffffffff1673ffffffffffffffffffffffffffffffffffffffff163373ffffffffffffffffffffffffffffffffffffffff16146110d4576040517f08c379a00000000000000000000000000000000000000000000000000000000081526004016110cb906135a9565b60405180910390fd5b6000600254846110e491906135f8565b905080600d60008773ffffffffffffffffffffffffffffffffffffffff1673ffffffffffffffffffffffffffffffffffffffff168152602001908152602001600020600088815260200190815260200160002060008282546111469190613652565b9250508190555080600a60008773ffffffffffffffffffffffffffffffffffffffff1673ffffffffffffffffffffffffffffffffffffffff168152602001908152602001600020600082825461119c9190613652565b9250508190555080600360008282546111b59190613652565b925050819055508473ffffffffffffffffffffffffffffffffffffffff163373ffffffffffffffffffffffffffffffffffffffff16877ff0ded82afbb1bb3ff3fc48cb2a26584aa84e4af0bf309c804ecdb94d0f6a98bb84878760405161121e9392919061380c565b60405180910390a4505050505050565b6060600680548060200260200160405190810160405280929190818152602001828054801561127c57602002820191906000526020600020905b815481526020019060010190808311611268575b5050505050905090565b6000601060008373ffffffffffffffffffffffffffffffffffffffff1673ffffffffffffffffffffffffffffffffffffffff16815260200190815260200160002060008473ffffffffffffffffffffffffffffffffffffffff1673ffffffffffffffffffffffffffffffffffffffff168152602001908152602001600020600085815260200190815260200160002060009054906101000a900460ff1690509392505050565b6000600a60008373ffffffffffffffffffffffffffffffffffffffff1673ffffffffffffffffffffffffffffffffffffffff168152602001908152602001600020549050919050565b6060600e60008373ffffffffffffffffffffffffffffffffffffffff1673ffffffffffffffffffffffffffffffffffffffff16815260200190815260200160002080548060200260200160405190810160405280929190818152602001828054801561140057602002820191906000526020600020905b8154815260200190600101908083116113ec575b50505050509050919050565b6000601060008973ffffffffffffffffffffffffffffffffffffffff1673ffffffffffffffffffffffffffffffffffffffff16815260200190815260200160002060003373ffffffffffffffffffffffffffffffffffffffff1673ffffffffffffffffffffffffffffffffffffffff16815260200190815260200160002060008a815260200190815260200160002060009054906101000a900460ff168061153a5750600f60008973ffffffffffffffffffffffffffffffffffffffff1673ffffffffffffffffffffffffffffffffffffffff16815260200190815260200160002060003373ffffffffffffffffffffffffffffffffffffffff1673ffffffffffffffffffffffffffffffffffffffff16815260200190815260200160002060009054906101000a900460ff165b611579576040517f08c379a00000000000000000000000000000000000000000000000000000000081526004016115709061389d565b60405180910390fd5b6115a58989898960405180602001604052806000815250604051806020016040528060008152506124d4565b5098975050505050505050565b604051806060016040528085815260200184815260200183838080601f016020809104026020016040519081016040528093929190818152602001838380828437600081840152601f19601f82011690508083019250505050505050815250600c60008681526020019081526020016000206000820151816000015560208201518160010155604082015181600201908051906020019061165492919061291a565b509050507fbaa12adb2b0b0e6368005ce69d1a6e1c04e8d2497bea86be6c1378e504574e638484848460405161168d94939291906138ea565b60405180910390a150505050565b6001600f60003373ffffffffffffffffffffffffffffffffffffffff1673ffffffffffffffffffffffffffffffffffffffff16815260200190815260200160002060008373ffffffffffffffffffffffffffffffffffffffff1673ffffffffffffffffffffffffffffffffffffffff16815260200190815260200160002060006101000a81548160ff0219169083151502179055503373ffffffffffffffffffffffffffffffffffffffff168173ffffffffffffffffffffffffffffffffffffffff167ff4caeb2d6ca8932a215a353d0703c326ec2d81fc68170f320eb2ab49e9df61f960405160405180910390a350565b6001805461179a90613479565b80601f01602080910402602001604051908101604052809291908181526020018280546117c690613479565b80156118135780601f106117e857610100808354040283529160200191611813565b820191906000526020600020905b8154815290600101906020018083116117f657829003601f168201915b505050505081565b600f60008573ffffffffffffffffffffffffffffffffffffffff1673ffffffffffffffffffffffffffffffffffffffff16815260200190815260200160002060003373ffffffffffffffffffffffffffffffffffffffff1673ffffffffffffffffffffffffffffffffffffffff16815260200190815260200160002060009054906101000a900460ff16806119475750601060008573ffffffffffffffffffffffffffffffffffffffff1673ffffffffffffffffffffffffffffffffffffffff16815260200190815260200160002060003373ffffffffffffffffffffffffffffffffffffffff1673ffffffffffffffffffffffffffffffffffffffff168152602001908152602001600020600086815260200190815260200160002060009054906101000a900460ff165b611986576040517f08c379a000000000000000000000000000000000000000000000000000000000815260040161197d9061389d565b60405180910390fd5b6119e68585856040518060200160405280600081525086868080601f016020809104026020016040519081016040528093929190818152602001838380828437600081840152601f19601f820116905080830192505050505050506120cd565b5050505050565b60008060008073ffffffffffffffffffffffffffffffffffffffff168773ffffffffffffffffffffffffffffffffffffffff161415611a7657857f5500000000000000000000000000000000000000000000000000000000000000907f696e76616c69642072656365697665720000000000000000000000000000000090925092509250611b1f565b600d60008973ffffffffffffffffffffffffffffffffffffffff1673ffffffffffffffffffffffffffffffffffffffff168152602001908152602001600020600087815260200190815260200160002054851115611b1e57857f5500000000000000000000000000000000000000000000000000000000000000907f696e73756666696369656e742062616c616e636500000000000000000000000090925092509250611b1f565b5b955095509592505050565b6000611b37338484611e78565b506001905092915050565b6060600080600c60008581526020019081526020016000209050806002018160000154818054611b7190613479565b80601f0160208091040260200160405190810160405280929190818152602001828054611b9d90613479565b8015611bea5780601f10611bbf57610100808354040283529160200191611bea565b820191906000526020600020905b815481529060010190602001808311611bcd57829003601f168201915b505050505091509250925050915091565b6000600f60008373ffffffffffffffffffffffffffffffffffffffff1673ffffffffffffffffffffffffffffffffffffffff16815260200190815260200160002060008473ffffffffffffffffffffffffffffffffffffffff1673ffffffffffffffffffffffffffffffffffffffff16815260200190815260200160002060009054906101000a900460ff16905092915050565b600b6020528060005260406000206000915090505481565b60008060011515600560149054906101000a900460ff1615151415611d11577f55000000000000000000000000000000000000000000000000000000000000007f66756e6473206c6f636b656420286c6f636b757020706572696f64290000000091509150611d12565b5b9250929050565b6000611d7c8633878787878080601f016020809104026020016040519081016040528093929190818152602001838380828437600081840152601f19601f82011690508083019250505050505050604051806020016040528060008152506124d4565b5095945050505050565b6000600f60003373ffffffffffffffffffffffffffffffffffffffff1673ffffffffffffffffffffffffffffffffffffffff16815260200190815260200160002060008373ffffffffffffffffffffffffffffffffffffffff1673ffffffffffffffffffffffffffffffffffffffff16815260200190815260200160002060006101000a81548160ff0219169083151502179055503373ffffffffffffffffffffffffffffffffffffffff168173ffffffffffffffffffffffffffffffffffffffff167f50546e66e5f44d728365dc3908c63bc5cfeeab470722c1677e3073a6ac294aa160405160405180910390a350565b60008073ffffffffffffffffffffffffffffffffffffffff168373ffffffffffffffffffffffffffffffffffffffff161415611ee9576040517f08c379a0000000000000000000000000000000000000000000000000000000008152600401611ee090613976565b60405180910390fd5b81600a60008673ffffffffffffffffffffffffffffffffffffffff1673ffffffffffffffffffffffffffffffffffffffff168152602001908152602001600020541015611f6b576040517f08c379a0000000000000000000000000000000000000000000000000000000008152600401611f62906139e2565b60405180910390fd5b81600a60008673ffffffffffffffffffffffffffffffffffffffff1673ffffffffffffffffffffffffffffffffffffffff16815260200190815260200160002054611fb69190613a02565b600a60008673ffffffffffffffffffffffffffffffffffffffff1673ffffffffffffffffffffffffffffffffffffffff1681526020019081526020016000208190555081600a60008573ffffffffffffffffffffffffffffffffffffffff1673ffffffffffffffffffffffffffffffffffffffff168152602001908152602001600020546120449190613652565b600a60008573ffffffffffffffffffffffffffffffffffffffff1673ffffffffffffffffffffffffffffffffffffffff168152602001908152602001600020819055507fddf252ad1be2c89b69c2b068fc378daa952ba7f163c4a11628f55a4df523b3ef8484846040516120ba93929190613526565b60405180910390a1600190509392505050565b600073ffffffffffffffffffffffffffffffffffffffff163373ffffffffffffffffffffffffffffffffffffffff16141561213d576040517f08c379a00000000000000000000000000000000000000000000000000000000081526004016121349061389d565b60405180910390fd5b82600d60008673ffffffffffffffffffffffffffffffffffffffff1673ffffffffffffffffffffffffffffffffffffffff16815260200190815260200160002060008781526020019081526020016000205410156121d0576040517f08c379a00000000000000000000000000000000000000000000000000000000081526004016121c790613a82565b60405180910390fd5b82600d60008673ffffffffffffffffffffffffffffffffffffffff1673ffffffffffffffffffffffffffffffffffffffff16815260200190815260200160002060008781526020019081526020016000205461222c9190613a02565b600d60008673ffffffffffffffffffffffffffffffffffffffff1673ffffffffffffffffffffffffffffffffffffffff16815260200190815260200160002060008781526020019081526020016000208190555082600a60008673ffffffffffffffffffffffffffffffffffffffff1673ffffffffffffffffffffffffffffffffffffffff168152602001908152602001600020546122cb9190613a02565b600a60008673ffffffffffffffffffffffffffffffffffffffff1673ffffffffffffffffffffffffffffffffffffffff1681526020019081526020016000208190555082600d60008073ffffffffffffffffffffffffffffffffffffffff1673ffffffffffffffffffffffffffffffffffffffff16815260200190815260200160002060008781526020019081526020016000205461236a9190613652565b600d60008073ffffffffffffffffffffffffffffffffffffffff1673ffffffffffffffffffffffffffffffffffffffff16815260200190815260200160002060008781526020019081526020016000208190555082600a60008073ffffffffffffffffffffffffffffffffffffffff1673ffffffffffffffffffffffffffffffffffffffff168152602001908152602001600020546124099190613652565b600a60008073ffffffffffffffffffffffffffffffffffffffff1673ffffffffffffffffffffffffffffffffffffffff16815260200190815260200160002081905550826003600082825461245e9190613a02565b925050819055508373ffffffffffffffffffffffffffffffffffffffff163373ffffffffffffffffffffffffffffffffffffffff16867fce306c3dbc4a497124b5a4f2be8388b41084c1d74663da27ecee1186c00239bf86856040516124c5929190613ae6565b60405180910390a45050505050565b6000808714156124eb576124e9868686611e78565b505b83600d60008873ffffffffffffffffffffffffffffffffffffffff1673ffffffffffffffffffffffffffffffffffffffff168152602001908152602001600020600089815260200190815260200160002054101561257e576040517f08c379a000000000000000000000000000000000000000000000000000000000815260040161257590613b62565b60405180910390fd5b600073ffffffffffffffffffffffffffffffffffffffff168573ffffffffffffffffffffffffffffffffffffffff1614156125ee576040517f08c379a00000000000000000000000000000000000000000000000000000000081526004016125e590613976565b60405180910390fd5b83600d60008873ffffffffffffffffffffffffffffffffffffffff1673ffffffffffffffffffffffffffffffffffffffff16815260200190815260200160002060008981526020019081526020016000205461264a9190613a02565b600d60008873ffffffffffffffffffffffffffffffffffffffff1673ffffffffffffffffffffffffffffffffffffffff16815260200190815260200160002060008981526020019081526020016000208190555083600a60008873ffffffffffffffffffffffffffffffffffffffff1673ffffffffffffffffffffffffffffffffffffffff168152602001908152602001600020546126e99190613a02565b600a60008873ffffffffffffffffffffffffffffffffffffffff1673ffffffffffffffffffffffffffffffffffffffff1681526020019081526020016000208190555083600d60008773ffffffffffffffffffffffffffffffffffffffff1673ffffffffffffffffffffffffffffffffffffffff1681526020019081526020016000206000898152602001908152602001600020546127889190613652565b600d60008773ffffffffffffffffffffffffffffffffffffffff1673ffffffffffffffffffffffffffffffffffffffff16815260200190815260200160002060008981526020019081526020016000208190555083600a60008773ffffffffffffffffffffffffffffffffffffffff1673ffffffffffffffffffffffffffffffffffffffff168152602001908152602001600020546128279190613652565b600a60008773ffffffffffffffffffffffffffffffffffffffff1673ffffffffffffffffffffffffffffffffffffffff168152602001908152602001600020819055508473ffffffffffffffffffffffffffffffffffffffff163373ffffffffffffffffffffffffffffffffffffffff16887fff4e9a26af4eb73b8bacfaa4abd4fea03d9448e7b912dc5ff4019048875aa2d433886040516128ca929190613b82565b60405180910390a47fddf252ad1be2c89b69c2b068fc378daa952ba7f163c4a11628f55a4df523b3ef86868660405161290593929190613526565b60405180910390a18690509695505050505050565b82805461292690613479565b90600052602060002090601f016020900481019282612948576000855561298f565b82601f1061296157805160ff191683800117855561298f565b8280016001018555821561298f579182015b8281111561298e578251825591602001919060010190612973565b5b50905061299c91906129a0565b5090565b5b808211156129b95760008160009055506001016129a1565b5090565b600081519050919050565b600082825260208201905092915050565b60005b838110156129f75780820151818401526020810190506129dc565b83811115612a06576000848401525b50505050565b6000601f19601f8301169050919050565b6000612a28826129bd565b612a3281856129c8565b9350612a428185602086016129d9565b612a4b81612a0c565b840191505092915050565b60006020820190508181036000830152612a708184612a1d565b905092915050565b6000604051905090565b600080fd5b600080fd5b600073ffffffffffffffffffffffffffffffffffffffff82169050919050565b6000612ab782612a8c565b9050919050565b612ac781612aac565b8114612ad257600080fd5b50565b600081359050612ae481612abe565b92915050565b6000819050919050565b612afd81612aea565b8114612b0857600080fd5b50565b600081359050612b1a81612af4565b92915050565b60008060408385031215612b3757612b36612a82565b5b6000612b4585828601612ad5565b9250506020612b5685828601612b0b565b9150509250929050565b60008115159050919050565b612b7581612b60565b82525050565b6000602082019050612b906000830184612b6c565b92915050565b6000819050919050565b612ba981612b96565b8114612bb457600080fd5b50565b600081359050612bc681612ba0565b92915050565b60008060408385031215612be357612be2612a82565b5b6000612bf185828601612bb7565b9250506020612c0285828601612ad5565b9150509250929050565b612c1581612aea565b82525050565b6000602082019050612c306000830184612c0c565b92915050565b600080600060608486031215612c4f57612c4e612a82565b5b6000612c5d86828701612ad5565b9350506020612c6e86828701612ad5565b9250506040612c7f86828701612b0b565b9150509250925092565b600060208284031215612c9f57612c9e612a82565b5b6000612cad84828501612bb7565b91505092915050565b612cbf81612b96565b82525050565b6000606082019050612cda6000830186612cb6565b612ce76020830185612cb6565b8181036040830152612cf98184612a1d565b9050949350505050565b600060208284031215612d1957612d18612a82565b5b6000612d2784828501612ad5565b91505092915050565b600080fd5b600080fd5b600080fd5b60008083601f840112612d5557612d54612d30565b5b8235905067ffffffffffffffff811115612d7257612d71612d35565b5b602083019150836001820283011115612d8e57612d8d612d3a565b5b9250929050565b60008060008060608587031215612daf57612dae612a82565b5b6000612dbd87828801612bb7565b9450506020612dce87828801612b0b565b935050604085013567ffffffffffffffff811115612def57612dee612a87565b5b612dfb87828801612d3f565b925092505092959194509250565b600080600080600060808688031215612e2557612e24612a82565b5b6000612e3388828901612bb7565b9550506020612e4488828901612ad5565b9450506040612e5588828901612b0b565b935050606086013567ffffffffffffffff811115612e7657612e75612a87565b5b612e8288828901612d3f565b92509250509295509295909350565b600081519050919050565b600082825260208201905092915050565b6000819050602082019050919050565b612ec681612b96565b82525050565b6000612ed88383612ebd565b60208301905092915050565b6000602082019050919050565b6000612efc82612e91565b612f068185612e9c565b9350612f1183612ead565b8060005b83811015612f42578151612f298882612ecc565b9750612f3483612ee4565b925050600181019050612f15565b5085935050505092915050565b60006020820190508181036000830152612f698184612ef1565b905092915050565b600080600060608486031215612f8a57612f89612a82565b5b6000612f9886828701612bb7565b9350506020612fa986828701612ad5565b9250506040612fba86828701612ad5565b9150509250925092565b60008060008060008060008060c0898b031215612fe457612fe3612a82565b5b6000612ff28b828c01612bb7565b98505060206130038b828c01612ad5565b97505060406130148b828c01612ad5565b96505060606130258b828c01612b0b565b955050608089013567ffffffffffffffff81111561304657613045612a87565b5b6130528b828c01612d3f565b945094505060a089013567ffffffffffffffff81111561307557613074612a87565b5b6130818b828c01612d3f565b92509250509295985092959890939650565b60006020820190506130a86000830184612cb6565b92915050565b60008083601f8401126130c4576130c3612d30565b5b8235905067ffffffffffffffff8111156130e1576130e0612d35565b5b6020830191508360018202830111156130fd576130fc612d3a565b5b9250929050565b6000806000806060858703121561311e5761311d612a82565b5b600061312c87828801612bb7565b945050602061313d87828801612bb7565b935050604085013567ffffffffffffffff81111561315e5761315d612a87565b5b61316a878288016130ae565b925092505092959194509250565b600080fd5b7f4e487b7100000000000000000000000000000000000000000000000000000000600052604160045260246000fd5b6131b582612a0c565b810181811067ffffffffffffffff821117156131d4576131d361317d565b5b80604052505050565b60006131e7612a78565b90506131f382826131ac565b919050565b600067ffffffffffffffff8211156132135761321261317d565b5b61321c82612a0c565b9050602081019050919050565b82818337600083830152505050565b600061324b613246846131f8565b6131dd565b90508281526020810184848401111561326757613266613178565b5b613272848285613229565b509392505050565b600082601f83011261328f5761328e612d30565b5b813561329f848260208601613238565b91505092915050565b600080600080600060a086880312156132c4576132c3612a82565b5b60006132d288828901612ad5565b95505060206132e388828901612ad5565b94505060406132f488828901612bb7565b935050606061330588828901612b0b565b925050608086013567ffffffffffffffff81111561332657613325612a87565b5b6133328882890161327a565b9150509295509295909350565b60007fff0000000000000000000000000000000000000000000000000000000000000082169050919050565b6133748161333f565b82525050565b600060608201905061338f600083018661336b565b61339c6020830185612cb6565b6133a96040830184612cb6565b949350505050565b600060408201905081810360008301526133cb8185612a1d565b90506133da6020830184612cb6565b9392505050565b600080604083850312156133f8576133f7612a82565b5b600061340685828601612ad5565b925050602061341785828601612ad5565b9150509250929050565b6000604082019050613436600083018561336b565b6134436020830184612cb6565b9392505050565b7f4e487b7100000000000000000000000000000000000000000000000000000000600052602260045260246000fd5b6000600282049050600182168061349157607f821691505b602082108114156134a5576134a461344a565b5b50919050565b7f3536000000000000000000000000000000000000000000000000000000000000600082015250565b60006134e16002836129c8565b91506134ec826134ab565b602082019050919050565b60006020820190508181036000830152613510816134d4565b9050919050565b61352081612aac565b82525050565b600060608201905061353b6000830186613517565b6135486020830185613517565b6135556040830184612c0c565b949350505050565b7f3078353600000000000000000000000000000000000000000000000000000000600082015250565b60006135936004836129c8565b915061359e8261355d565b602082019050919050565b600060208201905081810360008301526135c281613586565b9050919050565b7f4e487b7100000000000000000000000000000000000000000000000000000000600052601160045260246000fd5b600061360382612aea565b915061360e83612aea565b9250817fffffffffffffffffffffffffffffffffffffffffffffffffffffffffffffffff0483118215151615613647576136466135c9565b5b828202905092915050565b600061365d82612aea565b915061366883612aea565b9250827fffffffffffffffffffffffffffffffffffffffffffffffffffffffffffffffff0382111561369d5761369c6135c9565b5b828201905092915050565b60006080820190506136bd6000830187613517565b6136ca6020830186612c0c565b6136d76040830185612c0c565b6136e46060830184612c0c565b95945050505050565b7f63616e27742077686974656c69737420616e2061646472657373206d6f72652060008201527f7468616e206f6e63650000000000000000000000000000000000000000000000602082015250565b60006137496029836129c8565b9150613754826136ed565b604082019050919050565b600060208201905081810360008301526137788161373c565b9050919050565b60006040820190506137946000830185613517565b6137a16020830184612c0c565b9392505050565b600082825260208201905092915050565b60006137c583856137a8565b93506137d2838584613229565b6137db83612a0c565b840190509392505050565b50565b60006137f66000836137a8565b9150613801826137e6565b600082019050919050565b60006060820190506138216000830186612c0c565b81810360208301526138348184866137b9565b90508181036040830152613847816137e9565b9050949350505050565b7f696e76616c69642073656e646572000000000000000000000000000000000000600082015250565b6000613887600e836129c8565b915061389282613851565b602082019050919050565b600060208201905081810360008301526138b68161387a565b9050919050565b60006138c983856129c8565b93506138d6838584613229565b6138df83612a0c565b840190509392505050565b60006060820190506138ff6000830187612cb6565b61390c6020830186612cb6565b818103604083015261391f8184866138bd565b905095945050505050565b7f63616e2774207472616e7366657220746f207a65726f20616464726573730000600082015250565b6000613960601e836129c8565b915061396b8261392a565b602082019050919050565b6000602082019050818103600083015261398f81613953565b9050919050565b7f696e73756666696369656e7420616d6f756e7400000000000000000000000000600082015250565b60006139cc6013836129c8565b91506139d782613996565b602082019050919050565b600060208201905081810360008301526139fb816139bf565b9050919050565b6000613a0d82612aea565b9150613a1883612aea565b925082821015613a2b57613a2a6135c9565b5b828203905092915050565b7f696e73756666696369656e7420616d6f756e7420746f206275726e0000000000600082015250565b6000613a6c601b836129c8565b9150613a7782613a36565b602082019050919050565b60006020820190508181036000830152613a9b81613a5f565b9050919050565b600081519050919050565b6000613ab882613aa2565b613ac281856137a8565b9350613ad28185602086016129d9565b613adb81612a0c565b840191505092915050565b6000604082019050613afb6000830185612c0c565b8181036020830152613b0d8184613aad565b90509392505050565b7f696e73756666696369656e7420746f6b656e20696e20706172746974696f6e00600082015250565b6000613b4c601f836129c8565b9150613b5782613b16565b602082019050919050565b60006020820190508181036000830152613b7b81613b3f565b9050919050565b6000608082019050613b976000830185613517565b613ba46020830184612c0c565b8181036040830152613bb5816137e9565b90508181036060830152613bc8816137e9565b9050939250505056fea2646970667358221220f7f36b681ec81f87ec3d5553a32fa2cd391dfdcb9f45b700feefab7938405e9864736f6c634300080a0033",
  "immutableReferences": {},
  "source": "// solidity version\r\n\r\npragma solidity 0.8.10;\r\n\r\n\r\ncontract ERC1400 {\r\n\r\n\r\n    /************************************************ Variable Declarations and Initaalizations ************************************/\r\n\r\n\r\n\r\n     // *************************************** Strings ********************************************************* //\r\n\r\n    string public name;   // token name\r\n    string public symbol; // token symbol\r\n\r\n\r\n\r\n    // *************************************** Integers ********************************************************* //\r\n\r\n    uint256 public granularity;   // token granularity\r\n    uint256 public totalSupply; // token total supply\r\n    uint256 public decimals; //token decimals\r\n\r\n\r\n    // *************************************** Addresses ********************************************************* //\r\n\r\n    address private owner;  // set the address of the owner to be private\r\n\r\n\r\n\r\n     // *************************************** Booleans ********************************************************* //\r\n\r\n    bool private lockUpTokens = false; // token lockup indicator\r\n    bool private isIssuable;    //  manage when a token can be issued\r\n    \r\n\r\n    // ************************ Array ******************************//\r\n\r\n    bytes32[] internal _totalPartitions;\r\n    bytes21[] internal defaultPartitions;\r\n\r\n\r\n     // *************************************** Structs ********************************************************* //\r\n\r\n    struct Doc {\r\n        bytes32 _name;\r\n        bytes32 _documentHash;\r\n        string _uri;\r\n        \r\n    } // struct to handle the documents\r\n\r\n\r\n\r\n     // *************************************** Events ********************************************************* //\r\n\r\n    event WhiteList (address _investor, uint256 _timeAdded);                                                 // event to be emitted whenever an address is whitelisted\r\n    event Issued (address _to, uint256 _amountIssued, uint256 _totalSupply, uint256 _timeIssued);            // event to be emitted whenever new tokens are minted\r\n    event Transfer (address _from, address _to, uint256 _amount);                                            // event to be emitted whenever token is been transferred\r\n    event Approval (address _tokenHolder, address _externalAddress, uint256 _amount);                        // event to be emitted whenever an external address is approved such as escrows\r\n    event Document (bytes32 _name, bytes32 _documentHash, string _uri);                                      // event to be emitted whenever a document is put on-chain\r\n    event TransferByPartition (\r\n\r\n        bytes32 indexed _fromPartition,\r\n        address _operator,\r\n        address indexed _from,\r\n        address indexed _to,\r\n        uint256 _value,\r\n        bytes _data,\r\n        bytes _operatorData\r\n\r\n\r\n    );                                                                           // event to be emitted whenever tokens are transfered from an address partition to another addres of same partition\r\n\r\n    event AuthorizedOperator (address indexed _operator, address indexed _tokenHolder);     // event to be emitted whenever an operator is authorized\r\n    event RevokedOperator (address indexed _operator, address indexed _tokenHolder);     // event to be emitted whenever an operator is revoked\r\n    event AuthorizedOperatorByPartition (bytes32 indexed _partition, address indexed _operator, address indexed _tokenHolder);     // event to be emitted whenever an operator is authorized for a partition\r\n    event RevokedOperatorByPartition (bytes32 indexed _partition, address indexed _operator, address indexed _tokenHolder);     // event to be emitted whenever an operator is revoked for a partition\r\n    event IssuedByPartition (bytes32 indexed _partition, address indexed _operator, address indexed _to, uint256 _amount, bytes _data, bytes _operatorData);    //  event to be emitted whenever a new token is issued to an holder's partition\r\n    event RedeemedByPartition (bytes32 indexed _partition, address indexed _operator, address indexed _from, uint256 _amount, bytes _operatorData);     // event to be emitted when tokens are burnt from any partitions\r\n\r\n\r\n     // *************************************** Mappings ********************************************************* //\r\n\r\n    mapping(address => bool) private whitelist;                             //  whitelist map\r\n    mapping(address => mapping(address => uint256)) private allowance;      // set the address of the allowed external operator\r\n    mapping(address => uint256) internal _balanceOf;                           // map to store the token balances of token holders\r\n    mapping(bytes32 => uint256) public partitions;                          // map to store the total supply of each partitions partitions\r\n    mapping(bytes32 => Doc) public documents;                               // map to store the documents\r\n    mapping(address => mapping(bytes32 => uint256)) internal _balanceOfByPartition;        // map to store the partitioned token balance of a token holder \r\n    mapping(address => bytes32[]) internal _partitionsOf;                         // map that stores the partitions of a token holder\r\n    mapping(address => mapping(address => bool)) internal _isOperator;       // map to approve or revoke operators for a token holder\r\n    \r\n    // holder's address -> operator  address -> partition -> true/false\r\n    mapping(address => mapping(address => mapping (bytes32 => bool))) internal _isOperatorForPartition;                  // map to approve or revoke operators by partition\r\n\r\n    constructor (string memory _name, string memory _symbol, uint256 _decimals, uint256 _totalSupply, bytes32[] memory _defaultPartitions) {\r\n\r\n        name = _name;\r\n        symbol = _symbol;\r\n        decimals = _decimals;\r\n        granularity = 10 ** decimals; // for token decimals \r\n        totalSupply = _totalSupply;\r\n        owner = msg.sender;\r\n        _totalPartitions = _defaultPartitions;\r\n\r\n    }\r\n\r\n    modifier restricted {\r\n        require(msg.sender == owner, \"0x56\");\r\n        _;\r\n    }\r\n\r\n    // *************************************** Internal functions ********************************************************* //\r\n\r\n    // 1. internal funtion to transfer tokens from an address to another address\r\n     function _transfer(address _from, address _to, uint256 _amount) internal returns (bool success) {\r\n\r\n        require(_to != address(0),  \"can't transfer to zero address\");\r\n        require(_balanceOf[_from] >= _amount, \"insufficient amount\");\r\n\r\n        _balanceOf[_from] = _balanceOf[_from] - _amount;                  // reduce the sender's balance --> use safemath\r\n        _balanceOf[_to] = _balanceOf[_to] + _amount;                      // increase the value of the receiver ---> usesafemath\r\n        emit Transfer (_from, _to, _amount);                            // emit the Tranfer event\r\n        return true;\r\n     }\r\n\r\n    // function to mint and issue new tokens. This function is restricted to other addresses except the owner of the contract\r\n    function issueTokens(address _to, uint256 _amount) external restricted {\r\n        \r\n        \r\n        require(_to != address(0));\r\n        uint256 amount =  _amount * granularity;                         // the destinaton address should not be an empty address\r\n        _balanceOf[_to] += amount;                                       // use safemath library to avoid under and overflow\r\n        totalSupply += amount;                                          // add the new minted token to the total supply ---> use safemath library to avoid under and overflow\r\n        emit Issued(_to, amount, totalSupply, block.timestamp);        // emit the issued event --> it emits the destination address, amount minted, updated total supply and the time issued\r\n        \r\n\r\n    }\r\n\r\n\r\n    // approve tokens to external operators\r\n    function approve(address _externalAddress, uint256 _value) external returns (bool success) {\r\n\r\n        require(_externalAddress != address(0), \"56\");                  //0x56   invalid external address\r\n        allowance[msg.sender][_externalAddress] = _value;              // use safemath function here to avoid under and overflow\r\n        emit Approval(msg.sender, _externalAddress, _value);            // emit the approved event\r\n        return true;\r\n\r\n    }\r\n\r\n\r\n    // function that returns balance\r\n    function balanceOf(address _tokenHolder) external view returns (uint256) {\r\n        return _balanceOf[_tokenHolder];\r\n    }\r\n\r\n\r\n\r\n    // used bytes1 instead of byte as bytes1 is now an alias for byte    \r\n    function canTransfer(address _to, uint256 _value) public view returns (bytes1 status, bytes32 statusDescription){\r\n\r\n        if( lockUpTokens == true) {\r\n\r\n            return (hex\"55\", \"funds locked (lockup period)\");\r\n        } \r\n\r\n    }\r\n\r\n\r\n\r\n    // function to add an address to whitelist\r\n    function addToWhiteList(address _investor) external restricted {\r\n        \r\n        require(!whitelist[_investor], \"can't whitelist an address more than once\");\r\n        whitelist[_investor] = true;\r\n        emit WhiteList(_investor, block.timestamp);\r\n\r\n    }\r\n\r\n    // function to transfer tokens. the internal transfer function will be called here\r\n    function transfer(address _to, uint256 _amount) public returns (bool success) {\r\n\r\n        _transfer(msg.sender, _to, _amount);\r\n        return true;\r\n\r\n    }\r\n\r\n    // function transferFrom. The function for external addresses such as escrows to move tokens on behalf of the token holder\r\n    \r\n    function transferFrom(address _from, address _to, uint256 _amount) external returns (bool success) {\r\n\r\n        // _from is the current token holder\r\n        // _to is the destinantion address\r\n        //  msg.sender is the external address calling this function\r\n        // the token holder should have at least the amount of tokens to be transferred ----> this check has been implemented in the internal _transfer function\r\n        require(allowance[_from][msg.sender] >= _amount);           // the allowed value approved by the token holder must not be less than the amount\r\n        _transfer(_from, _to, _amount);                             // transfer the tokens\r\n\r\n        // reset the allowance value\r\n\r\n        allowance[_from][msg.sender] =  0;   \r\n        return true;           \r\n\r\n    }  \r\n\r\n\r\n\r\n    /***************  Document *****************/\r\n\r\n    // set document\r\n\r\n    function setDocument (bytes32 _name , bytes32 _documentHash, string calldata _uri) external  {\r\n        \r\n        documents[_name] = Doc(_name, _documentHash, _uri);     // save the document\r\n        emit Document(_name, _documentHash, _uri);              // emit event when document is set on chain\r\n\r\n    }\r\n\r\n    // get document\r\n    \r\n    function getDocument (bytes32 _name) external view returns (string memory uri, bytes32 name) {\r\n\r\n        Doc storage _document = documents[_name];\r\n\r\n        return (_document._uri, _document._name);  // return the document uri and name\r\n\r\n    }\r\n\r\n    /******************************* operators ***************************/\r\n\r\n    function isOperator (address _operator, address _tokenHolder) external view returns (bool) {\r\n        return _isOperator[_tokenHolder][_operator];\r\n    }\r\n\r\n    function authorizeOperator (address _operator) public {\r\n        _isOperator[msg.sender][_operator] = true;\r\n        emit AuthorizedOperator(_operator, msg.sender);\r\n    }\r\n\r\n    function revokeOperator (address _operator) public {\r\n        _isOperator[msg.sender][_operator] = false;\r\n        emit RevokedOperator(_operator, msg.sender);\r\n    }\r\n\r\n    function isOperatorForPartition(bytes32 _partition, address _operator, address _tokenHolder) external view returns (bool) {\r\n        return  _isOperatorForPartition[_tokenHolder][_operator][_partition];\r\n    }\r\n    \r\n    function authorizeOperatorByPartition (bytes32 _partition, address _operator) public  {\r\n        _isOperatorForPartition[msg.sender][_operator][_partition] = true;\r\n        emit AuthorizedOperatorByPartition(_partition, _operator, msg.sender);\r\n    }\r\n\r\n    function revokeOperatorByPartition (bytes32 _partition, address _operator) public {\r\n        _isOperatorForPartition[msg.sender][_operator][_partition] = false;\r\n        emit RevokedOperatorByPartition(_partition, _operator, msg.sender);\r\n    }\r\n   \r\n   /************************************* Partitions ****************************/\r\n\r\n\r\n   /************************ Internal functions for partition ************************/\r\n\r\n    function _transferByPartiton(bytes32 _partition, address _from, address _to, uint256 _value, bytes memory _data, bytes memory _operatorData) internal returns(bytes32) {\r\n       \r\n       if (_partition == \"\") {\r\n           _transfer(_from, _to, _value);\r\n       }\r\n\r\n       require( _balanceOfByPartition[_from][_partition] >= _value, \"insufficient token in partition\"); // the partiton balance of the holder must be greater than or equal to the value\r\n       require(_to != address(0),  \"can't transfer to zero address\");   //  can't send to ether address\r\n\r\n       _balanceOfByPartition[_from][_partition] = _balanceOfByPartition[_from][_partition] - _value;\r\n       _balanceOf[_from] = _balanceOf[_from] - _value; // the value should reflect in the global token balance of the sender\r\n       \r\n       _balanceOfByPartition[_to][_partition] = _balanceOfByPartition[_to][_partition] + _value;\r\n       _balanceOf[_to] = _balanceOf[_to] + _value; // the value should reflect in the global token balance of the receiver\r\n\r\n       emit TransferByPartition(_partition, msg.sender, msg.sender, _to, _value, \"\", \"\");\r\n       emit Transfer(_from, _to, _value);\r\n\r\n       return _partition;\r\n\r\n    }\r\n\r\n\r\n   /*********************************************************************************/\r\n\r\n   // function to return partitioned token balance\r\n\r\n   function totalPartitions () external view returns (bytes32[] memory) {\r\n       return _totalPartitions;\r\n   }\r\n\r\n   function balanceOfByPartition(bytes32 _partition, address _tokenHolder) external view returns (uint256) {\r\n       return _balanceOfByPartition[_tokenHolder][_partition];\r\n   }\r\n\r\n   // function to return the partitions of a token holder\r\n\r\n    function partitionsOf(address _tokenHolder) external view returns (bytes32[] memory) {\r\n\r\n        return _partitionsOf[_tokenHolder];\r\n\r\n   } \r\n\r\n   // can transfer by partition\r\n\r\n   function canTransferByPartition(address _from, address _to, bytes32 _partition, uint256 _value, bytes memory _data) external view returns(bytes1, bytes32, bytes32) {\r\n\r\n       if (_to == address(0)) {\r\n           return (hex\"55\", \"invalid receiver\", _partition);\r\n       }\r\n\r\n       if (_value > _balanceOfByPartition[_from][_partition]) {\r\n           return (hex\"55\", \"insufficient balance\", _partition);\r\n       }\r\n\r\n   }\r\n\r\n   // transfer by partition\r\n\r\n   function transferByPartition(bytes32 _partition, address _to, uint256 _value, bytes calldata _data) external returns (bytes32) {\r\n\r\n       _transferByPartiton(_partition, msg.sender, _to, _value, _data , \"\");\r\n \r\n   }    \r\n\r\n   // operator transfer by partition\r\n   function operatorTransferByPartition(bytes32 _partition, address _from, address _to, uint256 _value, bytes calldata _data, bytes calldata _operatorData) external returns (bytes32) {\r\n      \r\n       require(_isOperatorForPartition[_from][msg.sender][_partition] || _isOperator[_from][msg.sender], \"invalid sender\"); // 0x56 invalid sender\r\n       _transferByPartiton(_partition, _from, _to, _value, \"\", \"\");\r\n   }\r\n\r\n\r\n   // ************************* issuance / redemption ******************************//\r\n\r\n   // function to issue new tokens by partition\r\n\r\n   function issueByPartition(bytes32 _partition, address _tokenHolder, uint256 _value, bytes calldata _data) external restricted {\r\n\r\n        uint256 amount =  _value * granularity; \r\n        _balanceOfByPartition[_tokenHolder][_partition] += amount;   // increment the partition's token balance of this token holder\r\n        _balanceOf[_tokenHolder] += amount; // increment the total balance of this token holder \r\n        totalSupply += amount; // increase the total supply\r\n        emit IssuedByPartition(_partition, msg.sender, _tokenHolder, amount, _data, \"\");\r\n    \r\n\r\n   }\r\n\r\n\r\n   // function to redeem by partition\r\n\r\n   function redeemByPartition(bytes32 _partition, uint256 _value, bytes calldata _data) external {\r\n\r\n       _redeemByPartition(_partition, msg.sender, _value, _data, \"\");\r\n\r\n   }\r\n\r\n   function operatorRedeemByPartition(bytes32 _partition, address _tokenHolder, uint256 _value, bytes calldata _operatorData) external {\r\n\r\n       require(_isOperator[_tokenHolder][msg.sender] || _isOperatorForPartition[_tokenHolder][msg.sender][_partition], \"invalid sender\");\r\n       _redeemByPartition(_partition, _tokenHolder, _value, \"\", _operatorData);\r\n\r\n   }\r\n\r\n\r\n   function _redeemByPartition(bytes32 _partition, address _tokenHolder, uint256 _value, bytes memory _data, bytes memory _operatorData) internal {\r\n\r\n       require(msg.sender != address(0), \"invalid sender\");\r\n       require(_balanceOfByPartition[_tokenHolder][_partition] >= _value, \"insufficient amount to burn\");\r\n       _balanceOfByPartition[_tokenHolder][_partition] = _balanceOfByPartition[_tokenHolder][_partition] - _value;\r\n       _balanceOf[_tokenHolder] = _balanceOf[_tokenHolder] - _value; // the value should reflect in the global token balance of the sender\r\n       \r\n       _balanceOfByPartition[address(0)][_partition] = _balanceOfByPartition[address(0)][_partition] + _value;\r\n       _balanceOf[address(0)] = _balanceOf[address(0)] + _value; // the value should reflect in the global token balance of the receiver\r\n       totalSupply -= _value;\r\n       emit RedeemedByPartition(_partition, msg.sender, _tokenHolder, _value, _operatorData);\r\n\r\n   }\r\n\r\n\r\n}",
  "sourcePath": "C:\\Users\\Uju Nobei\\Documents\\Israel Linux\\blockchain\\TANGL\\security token\\contracts\\ERC1400.sol",
  "compiler": {
    "name": "solc",
    "version": "0.8.10+commit.fc410830.Emscripten.clang"
  },
  "schemaVersion": "3.4.3",
  "updatedAt": "2022-02-18T09:22:43.247Z",
  "networkType": "ethereum",
  "devdoc": {
    "kind": "dev",
    "methods": {},
    "version": 1
  },
  "userdoc": {
    "kind": "user",
    "methods": {},
    "version": 1
  }
}