{
  "contractName": "ERC1400",
  "abi": [
    {
      "inputs": [
        {
          "internalType": "string",
          "name": "_name",
          "type": "string"
        },
        {
          "internalType": "string",
          "name": "_symbol",
          "type": "string"
        },
        {
          "internalType": "uint256",
          "name": "_decimals",
          "type": "uint256"
        },
        {
          "internalType": "uint256",
          "name": "_totalSupply",
          "type": "uint256"
        },
        {
          "internalType": "bytes32[]",
          "name": "defaultPartitions",
          "type": "bytes32[]"
        }
      ],
      "stateMutability": "nonpayable",
      "type": "constructor"
    },
    {
      "anonymous": false,
      "inputs": [
        {
          "indexed": false,
          "internalType": "address",
          "name": "_tokenHolder",
          "type": "address"
        },
        {
          "indexed": false,
          "internalType": "address",
          "name": "_externalAddress",
          "type": "address"
        },
        {
          "indexed": false,
          "internalType": "uint256",
          "name": "_amount",
          "type": "uint256"
        }
      ],
      "name": "Approval",
      "type": "event"
    },
    {
      "anonymous": false,
      "inputs": [
        {
          "indexed": true,
          "internalType": "address",
          "name": "_operator",
          "type": "address"
        },
        {
          "indexed": true,
          "internalType": "address",
          "name": "_tokenHolder",
          "type": "address"
        }
      ],
      "name": "AuthorizedOperator",
      "type": "event"
    },
    {
      "anonymous": false,
      "inputs": [
        {
          "indexed": true,
          "internalType": "bytes32",
          "name": "_partition",
          "type": "bytes32"
        },
        {
          "indexed": true,
          "internalType": "address",
          "name": "_operator",
          "type": "address"
        },
        {
          "indexed": true,
          "internalType": "address",
          "name": "_tokenHolder",
          "type": "address"
        }
      ],
      "name": "AuthorizedOperatorByPartition",
      "type": "event"
    },
    {
      "anonymous": false,
      "inputs": [
        {
          "indexed": false,
          "internalType": "address",
          "name": "_controller",
          "type": "address"
        },
        {
          "indexed": true,
          "internalType": "address",
          "name": "_tokenHolder",
          "type": "address"
        },
        {
          "indexed": false,
          "internalType": "uint256",
          "name": "_value",
          "type": "uint256"
        },
        {
          "indexed": false,
          "internalType": "bytes",
          "name": "_data",
          "type": "bytes"
        },
        {
          "indexed": false,
          "internalType": "bytes",
          "name": "_operatorData",
          "type": "bytes"
        }
      ],
      "name": "ControllerRedemption",
      "type": "event"
    },
    {
      "anonymous": false,
      "inputs": [
        {
          "indexed": false,
          "internalType": "address",
          "name": "_controller",
          "type": "address"
        },
        {
          "indexed": true,
          "internalType": "address",
          "name": "_from",
          "type": "address"
        },
        {
          "indexed": true,
          "internalType": "address",
          "name": "_to",
          "type": "address"
        },
        {
          "indexed": false,
          "internalType": "uint256",
          "name": "_value",
          "type": "uint256"
        },
        {
          "indexed": false,
          "internalType": "bytes",
          "name": "_data",
          "type": "bytes"
        },
        {
          "indexed": false,
          "internalType": "bytes",
          "name": "_operatorData",
          "type": "bytes"
        }
      ],
      "name": "ControllerTransfer",
      "type": "event"
    },
    {
      "anonymous": false,
      "inputs": [
        {
          "indexed": true,
          "internalType": "bytes32",
          "name": "_name",
          "type": "bytes32"
        },
        {
          "indexed": false,
          "internalType": "string",
          "name": "_uri",
          "type": "string"
        },
        {
          "indexed": false,
          "internalType": "bytes32",
          "name": "_documentHash",
          "type": "bytes32"
        }
      ],
      "name": "Document",
      "type": "event"
    },
    {
      "anonymous": false,
      "inputs": [
        {
          "indexed": false,
          "internalType": "address",
          "name": "_to",
          "type": "address"
        },
        {
          "indexed": false,
          "internalType": "uint256",
          "name": "_amountIssued",
          "type": "uint256"
        },
        {
          "indexed": false,
          "internalType": "uint256",
          "name": "_totalSupply",
          "type": "uint256"
        },
        {
          "indexed": false,
          "internalType": "uint256",
          "name": "_timeIssued",
          "type": "uint256"
        }
      ],
      "name": "Issued",
      "type": "event"
    },
    {
      "anonymous": false,
      "inputs": [
        {
          "indexed": true,
          "internalType": "bytes32",
          "name": "_partition",
          "type": "bytes32"
        },
        {
          "indexed": true,
          "internalType": "address",
          "name": "_operator",
          "type": "address"
        },
        {
          "indexed": true,
          "internalType": "address",
          "name": "_to",
          "type": "address"
        },
        {
          "indexed": false,
          "internalType": "uint256",
          "name": "_amount",
          "type": "uint256"
        },
        {
          "indexed": false,
          "internalType": "bytes",
          "name": "_data",
          "type": "bytes"
        },
        {
          "indexed": false,
          "internalType": "bytes",
          "name": "_operatorData",
          "type": "bytes"
        }
      ],
      "name": "IssuedByPartition",
      "type": "event"
    },
    {
      "anonymous": false,
      "inputs": [
        {
          "indexed": true,
          "internalType": "address",
          "name": "_operator",
          "type": "address"
        },
        {
          "indexed": true,
          "internalType": "address",
          "name": "_from",
          "type": "address"
        },
        {
          "indexed": false,
          "internalType": "uint256",
          "name": "_value",
          "type": "uint256"
        },
        {
          "indexed": false,
          "internalType": "bytes",
          "name": "_data",
          "type": "bytes"
        }
      ],
      "name": "Redeemed",
      "type": "event"
    },
    {
      "anonymous": false,
      "inputs": [
        {
          "indexed": true,
          "internalType": "bytes32",
          "name": "_partition",
          "type": "bytes32"
        },
        {
          "indexed": true,
          "internalType": "address",
          "name": "_operator",
          "type": "address"
        },
        {
          "indexed": true,
          "internalType": "address",
          "name": "_from",
          "type": "address"
        },
        {
          "indexed": false,
          "internalType": "uint256",
          "name": "_amount",
          "type": "uint256"
        },
        {
          "indexed": false,
          "internalType": "bytes",
          "name": "_operatorData",
          "type": "bytes"
        }
      ],
      "name": "RedeemedByPartition",
      "type": "event"
    },
    {
      "anonymous": false,
      "inputs": [
        {
          "indexed": true,
          "internalType": "address",
          "name": "_operator",
          "type": "address"
        },
        {
          "indexed": true,
          "internalType": "address",
          "name": "_tokenHolder",
          "type": "address"
        }
      ],
      "name": "RevokedOperator",
      "type": "event"
    },
    {
      "anonymous": false,
      "inputs": [
        {
          "indexed": true,
          "internalType": "bytes32",
          "name": "_partition",
          "type": "bytes32"
        },
        {
          "indexed": true,
          "internalType": "address",
          "name": "_operator",
          "type": "address"
        },
        {
          "indexed": true,
          "internalType": "address",
          "name": "_tokenHolder",
          "type": "address"
        }
      ],
      "name": "RevokedOperatorByPartition",
      "type": "event"
    },
    {
      "anonymous": false,
      "inputs": [
        {
          "indexed": false,
          "internalType": "address",
          "name": "_from",
          "type": "address"
        },
        {
          "indexed": false,
          "internalType": "address",
          "name": "_to",
          "type": "address"
        },
        {
          "indexed": false,
          "internalType": "uint256",
          "name": "_amount",
          "type": "uint256"
        }
      ],
      "name": "Transfer",
      "type": "event"
    },
    {
      "anonymous": false,
      "inputs": [
        {
          "indexed": true,
          "internalType": "bytes32",
          "name": "_fromPartition",
          "type": "bytes32"
        },
        {
          "indexed": false,
          "internalType": "address",
          "name": "_operator",
          "type": "address"
        },
        {
          "indexed": true,
          "internalType": "address",
          "name": "_from",
          "type": "address"
        },
        {
          "indexed": true,
          "internalType": "address",
          "name": "_to",
          "type": "address"
        },
        {
          "indexed": false,
          "internalType": "uint256",
          "name": "_value",
          "type": "uint256"
        },
        {
          "indexed": false,
          "internalType": "bytes",
          "name": "_data",
          "type": "bytes"
        },
        {
          "indexed": false,
          "internalType": "bytes",
          "name": "_operatorData",
          "type": "bytes"
        }
      ],
      "name": "TransferByPartition",
      "type": "event"
    },
    {
      "anonymous": false,
      "inputs": [
        {
          "indexed": false,
          "internalType": "address",
          "name": "_investor",
          "type": "address"
        },
        {
          "indexed": false,
          "internalType": "uint256",
          "name": "_timeAdded",
          "type": "uint256"
        }
      ],
      "name": "WhiteList",
      "type": "event"
    },
    {
      "inputs": [],
      "name": "decimals",
      "outputs": [
        {
          "internalType": "uint256",
          "name": "",
          "type": "uint256"
        }
      ],
      "stateMutability": "view",
      "type": "function",
      "constant": true
    },
    {
      "inputs": [],
      "name": "granularity",
      "outputs": [
        {
          "internalType": "uint256",
          "name": "",
          "type": "uint256"
        }
      ],
      "stateMutability": "view",
      "type": "function",
      "constant": true
    },
    {
      "inputs": [
        {
          "components": [
            {
              "internalType": "string",
              "name": "firstName",
              "type": "string"
            },
            {
              "internalType": "string",
              "name": "lastName",
              "type": "string"
            },
            {
              "internalType": "string",
              "name": "location",
              "type": "string"
            },
            {
              "internalType": "address",
              "name": "walletAddress",
              "type": "address"
            }
          ],
          "internalType": "struct Certificate.Holder",
          "name": "_from",
          "type": "tuple"
        },
        {
          "components": [
            {
              "internalType": "string",
              "name": "firstName",
              "type": "string"
            },
            {
              "internalType": "string",
              "name": "lastName",
              "type": "string"
            },
            {
              "internalType": "string",
              "name": "location",
              "type": "string"
            },
            {
              "internalType": "address",
              "name": "walletAddress",
              "type": "address"
            }
          ],
          "internalType": "struct Certificate.Holder",
          "name": "_to",
          "type": "tuple"
        },
        {
          "internalType": "uint256",
          "name": "_amount",
          "type": "uint256"
        }
      ],
      "name": "hashTransfer",
      "outputs": [
        {
          "internalType": "bytes32",
          "name": "",
          "type": "bytes32"
        }
      ],
      "stateMutability": "pure",
      "type": "function",
      "constant": true
    },
    {
      "inputs": [],
      "name": "name",
      "outputs": [
        {
          "internalType": "string",
          "name": "",
          "type": "string"
        }
      ],
      "stateMutability": "view",
      "type": "function",
      "constant": true
    },
    {
      "inputs": [],
      "name": "returnedSigner",
      "outputs": [
        {
          "internalType": "address",
          "name": "",
          "type": "address"
        }
      ],
      "stateMutability": "view",
      "type": "function",
      "constant": true
    },
    {
      "inputs": [],
      "name": "symbol",
      "outputs": [
        {
          "internalType": "string",
          "name": "",
          "type": "string"
        }
      ],
      "stateMutability": "view",
      "type": "function",
      "constant": true
    },
    {
      "inputs": [],
      "name": "totalSupply",
      "outputs": [
        {
          "internalType": "uint256",
          "name": "",
          "type": "uint256"
        }
      ],
      "stateMutability": "view",
      "type": "function",
      "constant": true
    },
    {
      "inputs": [
        {
          "internalType": "bytes",
          "name": "_signature",
          "type": "bytes"
        },
        {
          "internalType": "bytes32",
          "name": "_ethHash",
          "type": "bytes32"
        }
      ],
      "name": "verifySignature",
      "outputs": [
        {
          "internalType": "address",
          "name": "",
          "type": "address"
        }
      ],
      "stateMutability": "pure",
      "type": "function",
      "constant": true
    },
    {
      "inputs": [
        {
          "internalType": "bytes32",
          "name": "_name",
          "type": "bytes32"
        },
        {
          "internalType": "string",
          "name": "_uri",
          "type": "string"
        },
        {
          "internalType": "bytes32",
          "name": "_documentHash",
          "type": "bytes32"
        }
      ],
      "name": "setDocument",
      "outputs": [],
      "stateMutability": "nonpayable",
      "type": "function"
    },
    {
      "inputs": [
        {
          "internalType": "bytes32",
          "name": "_name",
          "type": "bytes32"
        }
      ],
      "name": "getDocument",
      "outputs": [
        {
          "internalType": "string",
          "name": "uri",
          "type": "string"
        },
        {
          "internalType": "bytes32",
          "name": "docHash",
          "type": "bytes32"
        }
      ],
      "stateMutability": "view",
      "type": "function",
      "constant": true
    },
    {
      "inputs": [
        {
          "internalType": "address",
          "name": "_tokenHolder",
          "type": "address"
        }
      ],
      "name": "balanceOf",
      "outputs": [
        {
          "internalType": "uint256",
          "name": "",
          "type": "uint256"
        }
      ],
      "stateMutability": "view",
      "type": "function",
      "constant": true
    },
    {
      "inputs": [
        {
          "internalType": "bytes32",
          "name": "_partition",
          "type": "bytes32"
        },
        {
          "internalType": "address",
          "name": "_tokenHolder",
          "type": "address"
        }
      ],
      "name": "balanceOfByPartition",
      "outputs": [
        {
          "internalType": "uint256",
          "name": "",
          "type": "uint256"
        }
      ],
      "stateMutability": "view",
      "type": "function",
      "constant": true
    },
    {
      "inputs": [
        {
          "internalType": "address",
          "name": "_externalAddress",
          "type": "address"
        },
        {
          "internalType": "uint256",
          "name": "_value",
          "type": "uint256"
        }
      ],
      "name": "approve",
      "outputs": [
        {
          "internalType": "bool",
          "name": "success",
          "type": "bool"
        }
      ],
      "stateMutability": "nonpayable",
      "type": "function"
    },
    {
      "inputs": [
        {
          "internalType": "address",
          "name": "_to",
          "type": "address"
        },
        {
          "internalType": "uint256",
          "name": "_value",
          "type": "uint256"
        }
      ],
      "name": "transfer",
      "outputs": [
        {
          "internalType": "bool",
          "name": "success",
          "type": "bool"
        }
      ],
      "stateMutability": "nonpayable",
      "type": "function"
    },
    {
      "inputs": [
        {
          "internalType": "address",
          "name": "_from",
          "type": "address"
        },
        {
          "internalType": "address",
          "name": "_to",
          "type": "address"
        },
        {
          "internalType": "uint256",
          "name": "_value",
          "type": "uint256"
        }
      ],
      "name": "transferFrom",
      "outputs": [
        {
          "internalType": "bool",
          "name": "success",
          "type": "bool"
        }
      ],
      "stateMutability": "nonpayable",
      "type": "function"
    },
    {
      "inputs": [
        {
          "internalType": "address",
          "name": "_to",
          "type": "address"
        },
        {
          "internalType": "uint256",
          "name": "_value",
          "type": "uint256"
        },
        {
          "internalType": "bytes",
          "name": "_data",
          "type": "bytes"
        }
      ],
      "name": "transferWithData",
      "outputs": [],
      "stateMutability": "nonpayable",
      "type": "function"
    },
    {
      "inputs": [
        {
          "internalType": "address",
          "name": "_from",
          "type": "address"
        },
        {
          "internalType": "address",
          "name": "_to",
          "type": "address"
        },
        {
          "internalType": "uint256",
          "name": "_value",
          "type": "uint256"
        },
        {
          "internalType": "bytes",
          "name": "_data",
          "type": "bytes"
        }
      ],
      "name": "transferFromWithData",
      "outputs": [],
      "stateMutability": "nonpayable",
      "type": "function"
    },
    {
      "inputs": [
        {
          "internalType": "bytes32",
          "name": "_partition",
          "type": "bytes32"
        },
        {
          "internalType": "address",
          "name": "_to",
          "type": "address"
        },
        {
          "internalType": "uint256",
          "name": "_value",
          "type": "uint256"
        },
        {
          "internalType": "bytes",
          "name": "_data",
          "type": "bytes"
        }
      ],
      "name": "transferByPartition",
      "outputs": [
        {
          "internalType": "bytes32",
          "name": "",
          "type": "bytes32"
        }
      ],
      "stateMutability": "nonpayable",
      "type": "function"
    },
    {
      "inputs": [
        {
          "internalType": "bytes32",
          "name": "_partition",
          "type": "bytes32"
        },
        {
          "internalType": "address",
          "name": "_from",
          "type": "address"
        },
        {
          "internalType": "address",
          "name": "_to",
          "type": "address"
        },
        {
          "internalType": "uint256",
          "name": "_value",
          "type": "uint256"
        },
        {
          "internalType": "bytes",
          "name": "_data",
          "type": "bytes"
        },
        {
          "internalType": "bytes",
          "name": "_operatorData",
          "type": "bytes"
        }
      ],
      "name": "operatorTransferByPartition",
      "outputs": [
        {
          "internalType": "bytes32",
          "name": "",
          "type": "bytes32"
        }
      ],
      "stateMutability": "nonpayable",
      "type": "function"
    },
    {
      "inputs": [],
      "name": "isControllable",
      "outputs": [
        {
          "internalType": "bool",
          "name": "",
          "type": "bool"
        }
      ],
      "stateMutability": "view",
      "type": "function",
      "constant": true
    },
    {
      "inputs": [
        {
          "internalType": "address",
          "name": "_controller",
          "type": "address"
        }
      ],
      "name": "isController",
      "outputs": [
        {
          "internalType": "bool",
          "name": "",
          "type": "bool"
        }
      ],
      "stateMutability": "view",
      "type": "function",
      "constant": true
    },
    {
      "inputs": [
        {
          "internalType": "bool",
          "name": "_status",
          "type": "bool"
        }
      ],
      "name": "setControllability",
      "outputs": [],
      "stateMutability": "nonpayable",
      "type": "function"
    },
    {
      "inputs": [
        {
          "internalType": "address",
          "name": "_controller",
          "type": "address"
        }
      ],
      "name": "setController",
      "outputs": [],
      "stateMutability": "nonpayable",
      "type": "function"
    },
    {
      "inputs": [],
      "name": "getControllers",
      "outputs": [
        {
          "internalType": "address[]",
          "name": "",
          "type": "address[]"
        }
      ],
      "stateMutability": "view",
      "type": "function",
      "constant": true
    },
    {
      "inputs": [
        {
          "internalType": "address",
          "name": "_controller",
          "type": "address"
        }
      ],
      "name": "removeController",
      "outputs": [],
      "stateMutability": "nonpayable",
      "type": "function"
    },
    {
      "inputs": [
        {
          "internalType": "address",
          "name": "_from",
          "type": "address"
        },
        {
          "internalType": "address",
          "name": "_to",
          "type": "address"
        },
        {
          "internalType": "uint256",
          "name": "_value",
          "type": "uint256"
        },
        {
          "internalType": "bytes",
          "name": "_data",
          "type": "bytes"
        },
        {
          "internalType": "bytes",
          "name": "_operatorData",
          "type": "bytes"
        }
      ],
      "name": "controllerTransfer",
      "outputs": [],
      "stateMutability": "nonpayable",
      "type": "function"
    },
    {
      "inputs": [
        {
          "internalType": "address",
          "name": "_tokenHolder",
          "type": "address"
        },
        {
          "internalType": "uint256",
          "name": "_value",
          "type": "uint256"
        },
        {
          "internalType": "bytes",
          "name": "_data",
          "type": "bytes"
        },
        {
          "internalType": "bytes",
          "name": "_operatorData",
          "type": "bytes"
        }
      ],
      "name": "controllerRedeem",
      "outputs": [],
      "stateMutability": "nonpayable",
      "type": "function"
    },
    {
      "inputs": [
        {
          "internalType": "address",
          "name": "_operator",
          "type": "address"
        }
      ],
      "name": "authorizeOperator",
      "outputs": [],
      "stateMutability": "nonpayable",
      "type": "function"
    },
    {
      "inputs": [
        {
          "internalType": "address",
          "name": "_operator",
          "type": "address"
        }
      ],
      "name": "revokeOperator",
      "outputs": [],
      "stateMutability": "nonpayable",
      "type": "function"
    },
    {
      "inputs": [
        {
          "internalType": "bytes32",
          "name": "_partition",
          "type": "bytes32"
        },
        {
          "internalType": "address",
          "name": "_operator",
          "type": "address"
        }
      ],
      "name": "authorizeOperatorByPartition",
      "outputs": [],
      "stateMutability": "nonpayable",
      "type": "function"
    },
    {
      "inputs": [
        {
          "internalType": "bytes32",
          "name": "_partition",
          "type": "bytes32"
        },
        {
          "internalType": "address",
          "name": "_operator",
          "type": "address"
        }
      ],
      "name": "revokeOperatorByPartition",
      "outputs": [],
      "stateMutability": "nonpayable",
      "type": "function"
    },
    {
      "inputs": [
        {
          "internalType": "address",
          "name": "_operator",
          "type": "address"
        },
        {
          "internalType": "address",
          "name": "_tokenHolder",
          "type": "address"
        }
      ],
      "name": "isOperator",
      "outputs": [
        {
          "internalType": "bool",
          "name": "",
          "type": "bool"
        }
      ],
      "stateMutability": "view",
      "type": "function",
      "constant": true
    },
    {
      "inputs": [
        {
          "internalType": "bytes32",
          "name": "_partition",
          "type": "bytes32"
        },
        {
          "internalType": "address",
          "name": "_operator",
          "type": "address"
        },
        {
          "internalType": "address",
          "name": "_tokenHolder",
          "type": "address"
        }
      ],
      "name": "isOperatorForPartition",
      "outputs": [
        {
          "internalType": "bool",
          "name": "",
          "type": "bool"
        }
      ],
      "stateMutability": "view",
      "type": "function",
      "constant": true
    },
    {
      "inputs": [],
      "name": "isIssuable",
      "outputs": [
        {
          "internalType": "bool",
          "name": "",
          "type": "bool"
        }
      ],
      "stateMutability": "view",
      "type": "function",
      "constant": true
    },
    {
      "inputs": [
        {
          "internalType": "address",
          "name": "_tokenHolder",
          "type": "address"
        },
        {
          "internalType": "uint256",
          "name": "_value",
          "type": "uint256"
        },
        {
          "internalType": "bytes",
          "name": "_data",
          "type": "bytes"
        }
      ],
      "name": "issue",
      "outputs": [],
      "stateMutability": "nonpayable",
      "type": "function"
    },
    {
      "inputs": [
        {
          "internalType": "bytes32",
          "name": "_partition",
          "type": "bytes32"
        },
        {
          "internalType": "address",
          "name": "_tokenHolder",
          "type": "address"
        },
        {
          "internalType": "uint256",
          "name": "_value",
          "type": "uint256"
        },
        {
          "internalType": "bytes",
          "name": "_data",
          "type": "bytes"
        }
      ],
      "name": "issueByPartition",
      "outputs": [],
      "stateMutability": "nonpayable",
      "type": "function"
    },
    {
      "inputs": [
        {
          "internalType": "uint256",
          "name": "_value",
          "type": "uint256"
        },
        {
          "internalType": "bytes",
          "name": "_data",
          "type": "bytes"
        }
      ],
      "name": "redeem",
      "outputs": [],
      "stateMutability": "nonpayable",
      "type": "function"
    },
    {
      "inputs": [
        {
          "internalType": "address",
          "name": "_tokenHolder",
          "type": "address"
        },
        {
          "internalType": "uint256",
          "name": "_value",
          "type": "uint256"
        },
        {
          "internalType": "bytes",
          "name": "_data",
          "type": "bytes"
        }
      ],
      "name": "redeemFrom",
      "outputs": [],
      "stateMutability": "nonpayable",
      "type": "function"
    },
    {
      "inputs": [
        {
          "internalType": "bytes32",
          "name": "_partition",
          "type": "bytes32"
        },
        {
          "internalType": "uint256",
          "name": "_value",
          "type": "uint256"
        },
        {
          "internalType": "bytes",
          "name": "_data",
          "type": "bytes"
        }
      ],
      "name": "redeemByPartition",
      "outputs": [],
      "stateMutability": "nonpayable",
      "type": "function"
    },
    {
      "inputs": [
        {
          "internalType": "bytes32",
          "name": "_partition",
          "type": "bytes32"
        },
        {
          "internalType": "address",
          "name": "_tokenHolder",
          "type": "address"
        },
        {
          "internalType": "uint256",
          "name": "_value",
          "type": "uint256"
        },
        {
          "internalType": "bytes",
          "name": "_operatorData",
          "type": "bytes"
        }
      ],
      "name": "operatorRedeemByPartition",
      "outputs": [],
      "stateMutability": "nonpayable",
      "type": "function"
    },
    {
      "inputs": [
        {
          "internalType": "address",
          "name": "_to",
          "type": "address"
        },
        {
          "internalType": "uint256",
          "name": "_value",
          "type": "uint256"
        },
        {
          "internalType": "bytes",
          "name": "_data",
          "type": "bytes"
        }
      ],
      "name": "canTransfer",
      "outputs": [
        {
          "internalType": "bytes1",
          "name": "code",
          "type": "bytes1"
        },
        {
          "internalType": "bytes32",
          "name": "reason",
          "type": "bytes32"
        }
      ],
      "stateMutability": "view",
      "type": "function",
      "constant": true
    },
    {
      "inputs": [
        {
          "internalType": "address",
          "name": "_from",
          "type": "address"
        },
        {
          "internalType": "address",
          "name": "_to",
          "type": "address"
        },
        {
          "internalType": "uint256",
          "name": "_value",
          "type": "uint256"
        },
        {
          "internalType": "bytes",
          "name": "_data",
          "type": "bytes"
        }
      ],
      "name": "canTransferFrom",
      "outputs": [
        {
          "internalType": "bytes1",
          "name": "code",
          "type": "bytes1"
        },
        {
          "internalType": "bytes32",
          "name": "reason",
          "type": "bytes32"
        }
      ],
      "stateMutability": "view",
      "type": "function",
      "constant": true
    },
    {
      "inputs": [
        {
          "internalType": "address",
          "name": "_from",
          "type": "address"
        },
        {
          "internalType": "address",
          "name": "_to",
          "type": "address"
        },
        {
          "internalType": "bytes32",
          "name": "_partition",
          "type": "bytes32"
        },
        {
          "internalType": "uint256",
          "name": "_value",
          "type": "uint256"
        },
        {
          "internalType": "bytes",
          "name": "_data",
          "type": "bytes"
        }
      ],
      "name": "canTransferByPartition",
      "outputs": [
        {
          "internalType": "bytes1",
          "name": "",
          "type": "bytes1"
        },
        {
          "internalType": "bytes32",
          "name": "",
          "type": "bytes32"
        },
        {
          "internalType": "bytes32",
          "name": "",
          "type": "bytes32"
        }
      ],
      "stateMutability": "view",
      "type": "function",
      "constant": true
    },
    {
      "inputs": [],
      "name": "totalPartitions",
      "outputs": [
        {
          "internalType": "bytes32[]",
          "name": "",
          "type": "bytes32[]"
        }
      ],
      "stateMutability": "view",
      "type": "function",
      "constant": true
    }
  ],
  "bytecode": "0x60806040526000600860146101000a81548160ff0219169083151502179055506001600860156101000a81548160ff0219169083151502179055506001600860166101000a81548160ff0219169083151502179055503480156200006257600080fd5b50604051620067e8380380620067e8833981810160405281019062000088919062000553565b8460039080519060200190620000a092919062000144565b508360049080519060200190620000b992919062000144565b5082600781905550600754600a620000d29190620007bb565b6005819055508160068190555033600860006101000a81548173ffffffffffffffffffffffffffffffffffffffff021916908373ffffffffffffffffffffffffffffffffffffffff16021790555080600a908051906020019062000138929190620001d5565b50505050505062000871565b82805462000152906200083b565b90600052602060002090601f016020900481019282620001765760008555620001c2565b82601f106200019157805160ff1916838001178555620001c2565b82800160010185558215620001c2579182015b82811115620001c1578251825591602001919060010190620001a4565b5b509050620001d1919062000227565b5090565b82805482825590600052602060002090810192821562000214579160200282015b8281111562000213578251825591602001919060010190620001f6565b5b50905062000223919062000246565b5090565b5b808211156200024257600081600090555060010162000228565b5090565b5b808211156200026157600081600090555060010162000247565b5090565b6000604051905090565b600080fd5b600080fd5b600080fd5b600080fd5b6000601f19601f8301169050919050565b7f4e487b7100000000000000000000000000000000000000000000000000000000600052604160045260246000fd5b620002ce8262000283565b810181811067ffffffffffffffff82111715620002f057620002ef62000294565b5b80604052505050565b60006200030562000265565b9050620003138282620002c3565b919050565b600067ffffffffffffffff82111562000336576200033562000294565b5b620003418262000283565b9050602081019050919050565b60005b838110156200036e57808201518184015260208101905062000351565b838111156200037e576000848401525b50505050565b60006200039b620003958462000318565b620002f9565b905082815260208101848484011115620003ba57620003b96200027e565b5b620003c78482856200034e565b509392505050565b600082601f830112620003e757620003e662000279565b5b8151620003f984826020860162000384565b91505092915050565b6000819050919050565b620004178162000402565b81146200042357600080fd5b50565b60008151905062000437816200040c565b92915050565b600067ffffffffffffffff8211156200045b576200045a62000294565b5b602082029050602081019050919050565b600080fd5b6000819050919050565b620004868162000471565b81146200049257600080fd5b50565b600081519050620004a6816200047b565b92915050565b6000620004c3620004bd846200043d565b620002f9565b90508083825260208201905060208402830185811115620004e957620004e86200046c565b5b835b8181101562000516578062000501888262000495565b845260208401935050602081019050620004eb565b5050509392505050565b600082601f83011262000538576200053762000279565b5b81516200054a848260208601620004ac565b91505092915050565b600080600080600060a086880312156200057257620005716200026f565b5b600086015167ffffffffffffffff81111562000593576200059262000274565b5b620005a188828901620003cf565b955050602086015167ffffffffffffffff811115620005c557620005c462000274565b5b620005d388828901620003cf565b9450506040620005e68882890162000426565b9350506060620005f98882890162000426565b925050608086015167ffffffffffffffff8111156200061d576200061c62000274565b5b6200062b8882890162000520565b9150509295509295909350565b7f4e487b7100000000000000000000000000000000000000000000000000000000600052601160045260246000fd5b60008160011c9050919050565b6000808291508390505b6001851115620006c6578086048111156200069e576200069d62000638565b5b6001851615620006ae5780820291505b8081029050620006be8562000667565b94506200067e565b94509492505050565b600082620006e15760019050620007b4565b81620006f15760009050620007b4565b81600181146200070a576002811462000715576200074b565b6001915050620007b4565b60ff8411156200072a576200072962000638565b5b8360020a91508482111562000744576200074362000638565b5b50620007b4565b5060208310610133831016604e8410600b8410161715620007855782820a9050838111156200077f576200077e62000638565b5b620007b4565b62000794848484600162000674565b92509050818404811115620007ae57620007ad62000638565b5b81810290505b9392505050565b6000620007c88262000402565b9150620007d58362000402565b9250620008047fffffffffffffffffffffffffffffffffffffffffffffffffffffffffffffffff8484620006cf565b905092915050565b7f4e487b7100000000000000000000000000000000000000000000000000000000600052602260045260246000fd5b600060028204905060018216806200085457607f821691505b602082108114156200086b576200086a6200080c565b5b50919050565b615f6780620008816000396000f3fe608060405234801561001057600080fd5b50600436106102745760003560e01c80636fe8d3a611610151578063b429afeb116100c3578063e77c646d11610087578063e77c646d146107e6578063ee532f3114610802578063f282527a1461081e578063f3d490db1461083a578063f6a74ed71461086a578063fad8b32a1461088657610274565b8063b429afeb1461071c578063b4e8a6c41461074c578063b6363cf21461076a578063bb3acde91461079a578063e1989326146107b657610274565b806395d89b411161011557806395d89b41146106335780639675193c1461065157806398ddcec71461066d5780639945e70e14610689578063a9059cbb146106bb578063b10d6b41146106eb57610274565b80636fe8d3a61461057f57806370a082311461059b5780638c0dee9c146105cb57806392eefe9b146105fb578063959b8c3f1461061757610274565b80632bc6acc3116101ea5780634c783bf5116101ae5780634c783bf5146104bd578063556f0dc7146104db57806362eb0068146104f957806367c849191461051557806369598efe146105315780636d77cad61461054f57610274565b80632bc6acc3146104175780632f1cae851461043357806330e8280314610451578063313ce56714610481578063360494921461049f57610274565b8063168ecec51161023c578063168ecec51461033057806318160ddd1461034c5780631badb25c1461036a57806323b872dd1461039b5780632535f762146103cb57806328aa98a9146103e757610274565b8063010648ca1461027957806306fdde0314610295578063095ea7b3146102b3578063103ef9e1146102e3578063122eb575146102ff575b600080fd5b610293600480360381019061028e91906142cd565b6108a2565b005b61029d61098a565b6040516102aa91906143da565b60405180910390f35b6102cd60048036038101906102c89190614490565b610a18565b6040516102da91906144eb565b60405180910390f35b6102fd60048036038101906102f89190614506565b610b4f565b005b61031960048036038101906103149190614676565b610c54565b604051610327929190614743565b60405180910390f35b61034a60048036038101906103459190614506565b610fc1565b005b6103546110c6565b604051610361919061477b565b60405180910390f35b610384600480360381019061037f9190614796565b6110cc565b604051610392929190614743565b60405180910390f35b6103b560048036038101906103b09190614805565b6112f6565b6040516103c291906144eb565b60405180910390f35b6103e560048036038101906103e09190614796565b611450565b005b61040160048036038101906103fc91906149cf565b611473565b60405161040e9190614a5a565b60405180910390f35b610431600480360381019061042c9190614acb565b61157c565b005b61043b61162b565b60405161044891906144eb565b60405180910390f35b61046b60048036038101906104669190614506565b611642565b604051610478919061477b565b60405180910390f35b61048961169d565b604051610496919061477b565b60405180910390f35b6104a76116a3565b6040516104b49190614b81565b60405180910390f35b6104c56116c9565b6040516104d291906144eb565b60405180910390f35b6104e36116e0565b6040516104f0919061477b565b60405180910390f35b610513600480360381019061050e9190614b9c565b6116e6565b005b61052f600480360381019061052a9190614c0b565b611719565b005b61053961194f565b6040516105469190614d4c565b60405180910390f35b61056960048036038101906105649190614d6e565b6119a7565b60405161057691906144eb565b60405180910390f35b61059960048036038101906105949190614ded565b611a4d565b005b6105b560048036038101906105b09190614e1a565b611afa565b6040516105c2919061477b565b60405180910390f35b6105e560048036038101906105e09190614e47565b611b43565b6040516105f29190614a5a565b60405180910390f35b61061560048036038101906106109190614e1a565b611e08565b005b610631600480360381019061062c9190614e1a565b6120a8565b005b61063b61219a565b60405161064891906143da565b60405180910390f35b61066b60048036038101906106669190614796565b612228565b005b61068760048036038101906106829190614c0b565b612309565b005b6106a3600480360381019061069e9190614f0c565b61258d565b6040516106b293929190614fa3565b60405180910390f35b6106d560048036038101906106d09190614490565b612779565b6040516106e291906144eb565b60405180910390f35b61070560048036038101906107009190614fda565b612791565b604051610713929190615007565b60405180910390f35b61073660048036038101906107319190614e1a565b612870565b60405161074391906144eb565b60405180910390f35b6107546128c6565b60405161076191906150f5565b60405180910390f35b610784600480360381019061077f9190615117565b612954565b60405161079191906144eb565b60405180910390f35b6107b460048036038101906107af9190615157565b6129e8565b005b6107d060048036038101906107cb91906151cb565b612bfe565b6040516107dd9190614b81565b60405180910390f35b61080060048036038101906107fb9190615227565b612d2b565b005b61081c60048036038101906108179190614676565b612d4c565b005b61083860048036038101906108339190615283565b612e9f565b005b610854600480360381019061084f9190614c0b565b612f23565b6040516108619190614a5a565b60405180910390f35b610884600480360381019061087f9190614e1a565b612f67565b005b6108a0600480360381019061089b9190614e1a565b6131ce565b005b604051806060016040528085815260200182815260200184848080601f016020809104026020016040519081016040528093929190818152602001838380828437600081840152601f19601f82011690508083019250505050505050815250600f60008681526020019081526020016000206000820151816000015560208201518160010155604082015181600201908051906020019061094492919061417b565b50905050837f89730c201d2df6a4cef4e892559e63e022078b0ee939d11b6ced61fb098b282484848460405161097c9392919061536c565b60405180910390a250505050565b60038054610997906153cd565b80601f01602080910402602001604051908101604052809291908181526020018280546109c3906153cd565b8015610a105780601f106109e557610100808354040283529160200191610a10565b820191906000526020600020905b8154815290600101906020018083116109f357829003601f168201915b505050505081565b60008073ffffffffffffffffffffffffffffffffffffffff168373ffffffffffffffffffffffffffffffffffffffff161415610a89576040517f08c379a0000000000000000000000000000000000000000000000000000000008152600401610a809061544b565b60405180910390fd5b81600d60003373ffffffffffffffffffffffffffffffffffffffff1673ffffffffffffffffffffffffffffffffffffffff16815260200190815260200160002060008573ffffffffffffffffffffffffffffffffffffffff1673ffffffffffffffffffffffffffffffffffffffff168152602001908152602001600020819055507f8c5be1e5ebec7d5bd14f71427d1e84f3dd0314c0f7b2291e5b200ac8c7c3b925338484604051610b3d9392919061546b565b60405180910390a16001905092915050565b6001601460003373ffffffffffffffffffffffffffffffffffffffff1673ffffffffffffffffffffffffffffffffffffffff16815260200190815260200160002060008373ffffffffffffffffffffffffffffffffffffffff1673ffffffffffffffffffffffffffffffffffffffff168152602001908152602001600020600084815260200190815260200160002060006101000a81548160ff0219169083151502179055503373ffffffffffffffffffffffffffffffffffffffff168173ffffffffffffffffffffffffffffffffffffffff16837f3646a897c70797ecc134b0adc32f471b07bf1d6f451133b0384badab531e3fd660405160405180910390a45050565b60008083600e60008873ffffffffffffffffffffffffffffffffffffffff1673ffffffffffffffffffffffffffffffffffffffff168152602001908152602001600020541015610ce9577f52000000000000000000000000000000000000000000000000000000000000007f696e73756666696369656e742062616c616e636500000000000000000000000091509150610fb8565b83600d60008873ffffffffffffffffffffffffffffffffffffffff1673ffffffffffffffffffffffffffffffffffffffff16815260200190815260200160002060003373ffffffffffffffffffffffffffffffffffffffff1673ffffffffffffffffffffffffffffffffffffffff168152602001908152602001600020541015610db8577f53000000000000000000000000000000000000000000000000000000000000007f696e73756666696369656e7420616c6c6f77616e63650000000000000000000091509150610fb8565b600073ffffffffffffffffffffffffffffffffffffffff168573ffffffffffffffffffffffffffffffffffffffff161415610e38577f57000000000000000000000000000000000000000000000000000000000000007f696e76616c69642072656365697665720000000000000000000000000000000091509150610fb8565b601260008773ffffffffffffffffffffffffffffffffffffffff1673ffffffffffffffffffffffffffffffffffffffff16815260200190815260200160002060003373ffffffffffffffffffffffffffffffffffffffff1673ffffffffffffffffffffffffffffffffffffffff16815260200190815260200160002060009054906101000a900460ff1615610f12577f58000000000000000000000000000000000000000000000000000000000000007f696e76616c6964206f70657261746f720000000000000000000000000000000091509150610fb8565b60011515610f1f846132c0565b151514610f71577f59000000000000000000000000000000000000000000000000000000000000007f696e76616c6964207369676e657200000000000000000000000000000000000091509150610fb8565b7f51000000000000000000000000000000000000000000000000000000000000007f7472616e73666572207375636365737300000000000000000000000000000000915091505b94509492505050565b6000601460003373ffffffffffffffffffffffffffffffffffffffff1673ffffffffffffffffffffffffffffffffffffffff16815260200190815260200160002060008373ffffffffffffffffffffffffffffffffffffffff1673ffffffffffffffffffffffffffffffffffffffff168152602001908152602001600020600084815260200190815260200160002060006101000a81548160ff0219169083151502179055503373ffffffffffffffffffffffffffffffffffffffff168173ffffffffffffffffffffffffffffffffffffffff16837f3b287c4f1bab4df949b33bceacef984f544dc5d5479930d00e4ee8c9d8dd96f260405160405180910390a45050565b60065481565b60008060011515600860149054906101000a900460ff1615151415611136577f55000000000000000000000000000000000000000000000000000000000000007f66756e6473206c6f636b656420286c6f636b757020706572696f642900000000915091506112ee565b600073ffffffffffffffffffffffffffffffffffffffff168573ffffffffffffffffffffffffffffffffffffffff1614156111b6577f57000000000000000000000000000000000000000000000000000000000000007f696e76616c696420726563656976657200000000000000000000000000000000915091506112ee565b83600e60003373ffffffffffffffffffffffffffffffffffffffff1673ffffffffffffffffffffffffffffffffffffffff168152602001908152602001600020541015611248577f52000000000000000000000000000000000000000000000000000000000000007f696e73756666696369656e742062616c616e6365000000000000000000000000915091506112ee565b60011515611255846132c0565b1515146112a7577f59000000000000000000000000000000000000000000000000000000000000007f696e76616c6964207369676e6572000000000000000000000000000000000000915091506112ee565b7f51000000000000000000000000000000000000000000000000000000000000007f7472616e73666572207375636365737300000000000000000000000000000000915091505b935093915050565b600081600d60008673ffffffffffffffffffffffffffffffffffffffff1673ffffffffffffffffffffffffffffffffffffffff16815260200190815260200160002060003373ffffffffffffffffffffffffffffffffffffffff1673ffffffffffffffffffffffffffffffffffffffff1681526020019081526020016000205410156113b7576040517f08c379a00000000000000000000000000000000000000000000000000000000081526004016113ae906154ee565b60405180910390fd5b6113c2848484613422565b506000600d60008673ffffffffffffffffffffffffffffffffffffffff1673ffffffffffffffffffffffffffffffffffffffff16815260200190815260200160002060003373ffffffffffffffffffffffffffffffffffffffff1673ffffffffffffffffffffffffffffffffffffffff16815260200190815260200160002081905550600190509392505050565b611459816132c0565b61146257600080fd5b61146d338484613422565b50505050565b60006114ef73549f71200b5ee3f3c04ef5a29e7c70d40e42ed836040518060400160405280600181526020017f31000000000000000000000000000000000000000000000000000000000000008152506105397f54132a91a1bafcf3d90beaad0c0d5f0bda635715da5017e515739dbb823f282d60001b613677565b7f4e471c5cc26fe7da713d5b9fea88685970ca3d3aea1f230bc17b6397ce6d78eb6115198661371c565b6115228661371c565b85604051602001611536949392919061550e565b6040516020818303038152906040528051906020012060405160200161155d9291906155cb565b6040516020818303038152906040528051906020012090509392505050565b6115cb868686868080601f016020809104026020016040519081016040528093929190818152602001838380828437600081840152601f19601f82011690508083019250505050505050613799565b8573ffffffffffffffffffffffffffffffffffffffff167f876b7cb47aa150b3a5516188b19ed308752ad4d0ae9a702543353b78163f758933878787878760405161161b96959493929190615640565b60405180910390a2505050505050565b6000600860159054906101000a900460ff16905090565b6000601060008373ffffffffffffffffffffffffffffffffffffffff1673ffffffffffffffffffffffffffffffffffffffff168152602001908152602001600020600084815260200190815260200160002054905092915050565b60075481565b600160009054906101000a900473ffffffffffffffffffffffffffffffffffffffff1681565b6000600860169054906101000a900460ff16905090565b60055481565b6116ef816132c0565b6116f857600080fd5b61171483338484604051806020016040528060008152506138ad565b505050565b600860009054906101000a900473ffffffffffffffffffffffffffffffffffffffff1673ffffffffffffffffffffffffffffffffffffffff163373ffffffffffffffffffffffffffffffffffffffff16146117a9576040517f08c379a00000000000000000000000000000000000000000000000000000000081526004016117a0906156e3565b60405180910390fd5b600860159054906101000a900460ff166117f8576040517f08c379a00000000000000000000000000000000000000000000000000000000081526004016117ef9061574f565b60405180910390fd5b600060055483611808919061579e565b905080601060008673ffffffffffffffffffffffffffffffffffffffff1673ffffffffffffffffffffffffffffffffffffffff1681526020019081526020016000206000878152602001908152602001600020600082825461186a91906157f8565b9250508190555080600e60008673ffffffffffffffffffffffffffffffffffffffff1673ffffffffffffffffffffffffffffffffffffffff16815260200190815260200160002060008282546118c091906157f8565b9250508190555080600660008282546118d991906157f8565b925050819055508373ffffffffffffffffffffffffffffffffffffffff163373ffffffffffffffffffffffffffffffffffffffff16867ff0ded82afbb1bb3ff3fc48cb2a26584aa84e4af0bf309c804ecdb94d0f6a98bb84866040516119409291906158b8565b60405180910390a45050505050565b6060600980548060200260200160405190810160405280929190818152602001828054801561199d57602002820191906000526020600020905b815481526020019060010190808311611989575b5050505050905090565b6000601460008373ffffffffffffffffffffffffffffffffffffffff1673ffffffffffffffffffffffffffffffffffffffff16815260200190815260200160002060008473ffffffffffffffffffffffffffffffffffffffff1673ffffffffffffffffffffffffffffffffffffffff168152602001908152602001600020600085815260200190815260200160002060009054906101000a900460ff1690509392505050565b600860009054906101000a900473ffffffffffffffffffffffffffffffffffffffff1673ffffffffffffffffffffffffffffffffffffffff163373ffffffffffffffffffffffffffffffffffffffff1614611add576040517f08c379a0000000000000000000000000000000000000000000000000000000008152600401611ad4906156e3565b60405180910390fd5b80600860166101000a81548160ff02191690831515021790555050565b6000600e60008373ffffffffffffffffffffffffffffffffffffffff1673ffffffffffffffffffffffffffffffffffffffff168152602001908152602001600020549050919050565b6000611b4e826132c0565b611b5757600080fd5b60011515600860169054906101000a900460ff161515148015611bc35750601560003373ffffffffffffffffffffffffffffffffffffffff1673ffffffffffffffffffffffffffffffffffffffff16815260200190815260200160002060009054906101000a900460ff165b15611c6557611bf4878787876040518060200160405280600081525060405180602001604052806000815250613cb4565b508473ffffffffffffffffffffffffffffffffffffffff168673ffffffffffffffffffffffffffffffffffffffff167f6bf62b4b9c7b768275122bf70d429efc398a056d669b1efdf6c3976346246d7d33878787604051611c5894939291906158fb565b60405180910390a3611dfe565b601460008773ffffffffffffffffffffffffffffffffffffffff1673ffffffffffffffffffffffffffffffffffffffff16815260200190815260200160002060003373ffffffffffffffffffffffffffffffffffffffff1673ffffffffffffffffffffffffffffffffffffffff168152602001908152602001600020600088815260200190815260200160002060009054906101000a900460ff1680611d915750601260008773ffffffffffffffffffffffffffffffffffffffff1673ffffffffffffffffffffffffffffffffffffffff16815260200190815260200160002060003373ffffffffffffffffffffffffffffffffffffffff1673ffffffffffffffffffffffffffffffffffffffff16815260200190815260200160002060009054906101000a900460ff165b611dd0576040517f08c379a0000000000000000000000000000000000000000000000000000000008152600401611dc7906156e3565b60405180910390fd5b611dfc878787876040518060200160405280600081525060405180602001604052806000815250613cb4565b505b9695505050505050565b600860009054906101000a900473ffffffffffffffffffffffffffffffffffffffff1673ffffffffffffffffffffffffffffffffffffffff163373ffffffffffffffffffffffffffffffffffffffff1614611e98576040517f08c379a0000000000000000000000000000000000000000000000000000000008152600401611e8f906156e3565b60405180910390fd5b600073ffffffffffffffffffffffffffffffffffffffff168173ffffffffffffffffffffffffffffffffffffffff161415611f08576040517f08c379a0000000000000000000000000000000000000000000000000000000008152600401611eff9061544b565b60405180910390fd5b601560008273ffffffffffffffffffffffffffffffffffffffff1673ffffffffffffffffffffffffffffffffffffffff16815260200190815260200160002060009054906101000a900460ff1615611f95576040517f08c379a0000000000000000000000000000000000000000000000000000000008152600401611f8c9061599a565b60405180910390fd5b6001601560008373ffffffffffffffffffffffffffffffffffffffff1673ffffffffffffffffffffffffffffffffffffffff16815260200190815260200160002060006101000a81548160ff021916908315150217905550600b819080600181540180825580915050600190039060005260206000200160009091909190916101000a81548173ffffffffffffffffffffffffffffffffffffffff021916908373ffffffffffffffffffffffffffffffffffffffff1602179055506001600b8054905061206291906159ba565b601660008373ffffffffffffffffffffffffffffffffffffffff1673ffffffffffffffffffffffffffffffffffffffff1681526020019081526020016000208190555050565b6001601260003373ffffffffffffffffffffffffffffffffffffffff1673ffffffffffffffffffffffffffffffffffffffff16815260200190815260200160002060008373ffffffffffffffffffffffffffffffffffffffff1673ffffffffffffffffffffffffffffffffffffffff16815260200190815260200160002060006101000a81548160ff0219169083151502179055503373ffffffffffffffffffffffffffffffffffffffff168173ffffffffffffffffffffffffffffffffffffffff167ff4caeb2d6ca8932a215a353d0703c326ec2d81fc68170f320eb2ab49e9df61f960405160405180910390a350565b600480546121a7906153cd565b80601f01602080910402602001604051908101604052809291908181526020018280546121d3906153cd565b80156122205780601f106121f557610100808354040283529160200191612220565b820191906000526020600020905b81548152906001019060200180831161220357829003601f168201915b505050505081565b612231816132c0565b61223a57600080fd5b81600d60008573ffffffffffffffffffffffffffffffffffffffff1673ffffffffffffffffffffffffffffffffffffffff16815260200190815260200160002060003373ffffffffffffffffffffffffffffffffffffffff1673ffffffffffffffffffffffffffffffffffffffff1681526020019081526020016000205410156122f9576040517f08c379a00000000000000000000000000000000000000000000000000000000081526004016122f0906154ee565b60405180910390fd5b612304838383613799565b505050565b612312816132c0565b61231b57600080fd5b60011515600860169054906101000a900460ff1615151480156123875750601560003373ffffffffffffffffffffffffffffffffffffffff1673ffffffffffffffffffffffffffffffffffffffff16815260200190815260200160002060009054906101000a900460ff165b156123ff576123a884848460405180602001604052806000815250856138ad565b8273ffffffffffffffffffffffffffffffffffffffff167f876b7cb47aa150b3a5516188b19ed308752ad4d0ae9a702543353b78163f75893384846040516123f2939291906159ee565b60405180910390a2612587565b601260008473ffffffffffffffffffffffffffffffffffffffff1673ffffffffffffffffffffffffffffffffffffffff16815260200190815260200160002060003373ffffffffffffffffffffffffffffffffffffffff1673ffffffffffffffffffffffffffffffffffffffff16815260200190815260200160002060009054906101000a900460ff168061252b5750601460008473ffffffffffffffffffffffffffffffffffffffff1673ffffffffffffffffffffffffffffffffffffffff16815260200190815260200160002060003373ffffffffffffffffffffffffffffffffffffffff1673ffffffffffffffffffffffffffffffffffffffff168152602001908152602001600020600085815260200190815260200160002060009054906101000a900460ff165b61256a576040517f08c379a00000000000000000000000000000000000000000000000000000000081526004016125619061544b565b60405180910390fd5b61258684848460405180602001604052806000815250856138ad565b5b50505050565b60008060008073ffffffffffffffffffffffffffffffffffffffff168773ffffffffffffffffffffffffffffffffffffffff16141561261657857f5500000000000000000000000000000000000000000000000000000000000000907f696e76616c6964207265636569766572000000000000000000000000000000009092509250925061276e565b601060008973ffffffffffffffffffffffffffffffffffffffff1673ffffffffffffffffffffffffffffffffffffffff1681526020019081526020016000206000878152602001908152602001600020548511156126be57857f5500000000000000000000000000000000000000000000000000000000000000907f696e73756666696369656e742062616c616e63650000000000000000000000009092509250925061276e565b600115156126cb856132c0565b15151461272257857f5900000000000000000000000000000000000000000000000000000000000000907f696e76616c6964207369676e65720000000000000000000000000000000000009092509250925061276e565b857f5100000000000000000000000000000000000000000000000000000000000000907f7472616e73666572207375636365737300000000000000000000000000000000909250925092505b955095509592505050565b6000612786338484613422565b506001905092915050565b6060600080600f600085815260200190815260200160002060405180606001604052908160008201548152602001600182015481526020016002820180546127d8906153cd565b80601f0160208091040260200160405190810160405280929190818152602001828054612804906153cd565b80156128515780601f1061282657610100808354040283529160200191612851565b820191906000526020600020905b81548152906001019060200180831161283457829003601f168201915b5050505050815250509050806040015181602001519250925050915091565b6000601560008373ffffffffffffffffffffffffffffffffffffffff1673ffffffffffffffffffffffffffffffffffffffff16815260200190815260200160002060009054906101000a900460ff169050919050565b6060600b80548060200260200160405190810160405280929190818152602001828054801561294a57602002820191906000526020600020905b8160009054906101000a900473ffffffffffffffffffffffffffffffffffffffff1673ffffffffffffffffffffffffffffffffffffffff1681526020019060010190808311612900575b5050505050905090565b6000601260008373ffffffffffffffffffffffffffffffffffffffff1673ffffffffffffffffffffffffffffffffffffffff16815260200190815260200160002060008473ffffffffffffffffffffffffffffffffffffffff1673ffffffffffffffffffffffffffffffffffffffff16815260200190815260200160002060009054906101000a900460ff16905092915050565b600860009054906101000a900473ffffffffffffffffffffffffffffffffffffffff1673ffffffffffffffffffffffffffffffffffffffff163373ffffffffffffffffffffffffffffffffffffffff1614612a78576040517f08c379a0000000000000000000000000000000000000000000000000000000008152600401612a6f906156e3565b60405180910390fd5b600860159054906101000a900460ff16612ac7576040517f08c379a0000000000000000000000000000000000000000000000000000000008152600401612abe9061574f565b60405180910390fd5b600073ffffffffffffffffffffffffffffffffffffffff168473ffffffffffffffffffffffffffffffffffffffff161415612b37576040517f08c379a0000000000000000000000000000000000000000000000000000000008152600401612b2e90615a8b565b60405180910390fd5b600060055484612b47919061579e565b905080600e60008773ffffffffffffffffffffffffffffffffffffffff1673ffffffffffffffffffffffffffffffffffffffff1681526020019081526020016000206000828254612b9891906157f8565b925050819055508060066000828254612bb191906157f8565b925050819055507f5a1f7f24a8d262d4fd95d7324e83dcdd93b4b9911cc5f45cac5a0382242953a4858260065442604051612bef9493929190615aab565b60405180910390a15050505050565b600080600080612c0d866140e9565b925092509250600073ffffffffffffffffffffffffffffffffffffffff1660018683868660405160008152602001604052604051612c4e9493929190615b0c565b6020604051602081039080840390855afa158015612c70573d6000803e3d6000fd5b5050506020604051035173ffffffffffffffffffffffffffffffffffffffff161415612cd1576040517f08c379a0000000000000000000000000000000000000000000000000000000008152600401612cc890615b9d565b60405180910390fd5b60018582858560405160008152602001604052604051612cf49493929190615b0c565b6020604051602081039080840390855afa158015612d16573d6000803e3d6000fd5b50505060206040510351935050505092915050565b612d34816132c0565b612d3d57600080fd5b612d48338383613799565b5050565b81600d60008673ffffffffffffffffffffffffffffffffffffffff1673ffffffffffffffffffffffffffffffffffffffff16815260200190815260200160002060003373ffffffffffffffffffffffffffffffffffffffff1673ffffffffffffffffffffffffffffffffffffffff168152602001908152602001600020541015612e0b576040517f08c379a0000000000000000000000000000000000000000000000000000000008152600401612e02906154ee565b60405180910390fd5b612e16848484613422565b506000600d60008673ffffffffffffffffffffffffffffffffffffffff1673ffffffffffffffffffffffffffffffffffffffff16815260200190815260200160002060003373ffffffffffffffffffffffffffffffffffffffff1673ffffffffffffffffffffffffffffffffffffffff1681526020019081526020016000208190555050505050565b612eaa878787613422565b508573ffffffffffffffffffffffffffffffffffffffff168773ffffffffffffffffffffffffffffffffffffffff167f6bf62b4b9c7b768275122bf70d429efc398a056d669b1efdf6c3976346246d7d338888888888604051612f1296959493929190615640565b60405180910390a350505050505050565b60006001825114612f4157612f37826132c0565b612f4057600080fd5b5b612f5e853386868660405180602001604052806000815250613cb4565b50949350505050565b600860009054906101000a900473ffffffffffffffffffffffffffffffffffffffff1673ffffffffffffffffffffffffffffffffffffffff163373ffffffffffffffffffffffffffffffffffffffff1614612ff7576040517f08c379a0000000000000000000000000000000000000000000000000000000008152600401612fee906156e3565b60405180910390fd5b600073ffffffffffffffffffffffffffffffffffffffff168173ffffffffffffffffffffffffffffffffffffffff161415613067576040517f08c379a000000000000000000000000000000000000000000000000000000000815260040161305e9061544b565b60405180910390fd5b601560008273ffffffffffffffffffffffffffffffffffffffff1673ffffffffffffffffffffffffffffffffffffffff16815260200190815260200160002060009054906101000a900460ff166130f3576040517f08c379a00000000000000000000000000000000000000000000000000000000081526004016130ea9061544b565b60405180910390fd5b6000601560008373ffffffffffffffffffffffffffffffffffffffff1673ffffffffffffffffffffffffffffffffffffffff16815260200190815260200160002060006101000a81548160ff021916908315150217905550600b601660008373ffffffffffffffffffffffffffffffffffffffff1673ffffffffffffffffffffffffffffffffffffffff168152602001908152602001600020548154811061319e5761319d615bbd565b5b9060005260206000200160006101000a81549073ffffffffffffffffffffffffffffffffffffffff021916905550565b6000601260003373ffffffffffffffffffffffffffffffffffffffff1673ffffffffffffffffffffffffffffffffffffffff16815260200190815260200160002060008373ffffffffffffffffffffffffffffffffffffffff1673ffffffffffffffffffffffffffffffffffffffff16815260200190815260200160002060006101000a81548160ff0219169083151502179055503373ffffffffffffffffffffffffffffffffffffffff168173ffffffffffffffffffffffffffffffffffffffff167f50546e66e5f44d728365dc3908c63bc5cfeeab470722c1677e3073a6ac294aa160405160405180910390a350565b60008060008060006132d186614151565b93509350935093508180156132e35750805b613322576040517f08c379a000000000000000000000000000000000000000000000000000000000815260040161331990615c38565b60405180910390fd5b600061332e8585612bfe565b90508073ffffffffffffffffffffffffffffffffffffffff16600860009054906101000a900473ffffffffffffffffffffffffffffffffffffffff1673ffffffffffffffffffffffffffffffffffffffff1614806133d55750601560008273ffffffffffffffffffffffffffffffffffffffff1673ffffffffffffffffffffffffffffffffffffffff16815260200190815260200160002060009054906101000a900460ff165b613414576040517f08c379a000000000000000000000000000000000000000000000000000000000815260040161340b90615b9d565b60405180910390fd5b600195505050505050919050565b60008073ffffffffffffffffffffffffffffffffffffffff168373ffffffffffffffffffffffffffffffffffffffff161415613493576040517f08c379a000000000000000000000000000000000000000000000000000000000815260040161348a90615a8b565b60405180910390fd5b81600e60008673ffffffffffffffffffffffffffffffffffffffff1673ffffffffffffffffffffffffffffffffffffffff168152602001908152602001600020541015613515576040517f08c379a000000000000000000000000000000000000000000000000000000000815260040161350c90615ca4565b60405180910390fd5b81600e60008673ffffffffffffffffffffffffffffffffffffffff1673ffffffffffffffffffffffffffffffffffffffff1681526020019081526020016000205461356091906159ba565b600e60008673ffffffffffffffffffffffffffffffffffffffff1673ffffffffffffffffffffffffffffffffffffffff1681526020019081526020016000208190555081600e60008573ffffffffffffffffffffffffffffffffffffffff1673ffffffffffffffffffffffffffffffffffffffff168152602001908152602001600020546135ee91906157f8565b600e60008573ffffffffffffffffffffffffffffffffffffffff1673ffffffffffffffffffffffffffffffffffffffff168152602001908152602001600020819055507fddf252ad1be2c89b69c2b068fc378daa952ba7f163c4a11628f55a4df523b3ef8484846040516136649392919061546b565b60405180910390a1600190509392505050565b6000807fd87cd6ef79d4e2b95e15ce8abf732db51ec771f1ca2edccf22a46c729ac564729050806040518060400160405280601681526020017f54414e474c204341504954414c20504152544e455253000000000000000000008152508051906020012086805190602001208689876040516020016136fb96959493929190615cc4565b60405160208183030381529060405280519060200120915050949350505050565b60007fdebebf0c3f435e851b79f957a72d453bb5f1901a18d643317f7cab8877565926826000015180519060200120836020015180519060200120846040015180519060200120856060015160405160200161377c959493929190615d25565b604051602081830303815290604052805190602001209050919050565b81600e60008573ffffffffffffffffffffffffffffffffffffffff1673ffffffffffffffffffffffffffffffffffffffff16815260200190815260200160002054101561381b576040517f08c379a000000000000000000000000000000000000000000000000000000000815260040161381290615ca4565b60405180910390fd5b61382783600084613422565b50816006600082825461383a91906159ba565b925050819055508273ffffffffffffffffffffffffffffffffffffffff163373ffffffffffffffffffffffffffffffffffffffff167fb7d0d6b60740753e9f16692a2f479472a1385aec2420fa43225b02f2ffa1afe784846040516138a0929190615d78565b60405180910390a3505050565b600073ffffffffffffffffffffffffffffffffffffffff163373ffffffffffffffffffffffffffffffffffffffff16141561391d576040517f08c379a0000000000000000000000000000000000000000000000000000000008152600401613914906156e3565b60405180910390fd5b82601060008673ffffffffffffffffffffffffffffffffffffffff1673ffffffffffffffffffffffffffffffffffffffff16815260200190815260200160002060008781526020019081526020016000205410156139b0576040517f08c379a00000000000000000000000000000000000000000000000000000000081526004016139a790615ca4565b60405180910390fd5b82601060008673ffffffffffffffffffffffffffffffffffffffff1673ffffffffffffffffffffffffffffffffffffffff168152602001908152602001600020600087815260200190815260200160002054613a0c91906159ba565b601060008673ffffffffffffffffffffffffffffffffffffffff1673ffffffffffffffffffffffffffffffffffffffff16815260200190815260200160002060008781526020019081526020016000208190555082600e60008673ffffffffffffffffffffffffffffffffffffffff1673ffffffffffffffffffffffffffffffffffffffff16815260200190815260200160002054613aab91906159ba565b600e60008673ffffffffffffffffffffffffffffffffffffffff1673ffffffffffffffffffffffffffffffffffffffff1681526020019081526020016000208190555082601060008073ffffffffffffffffffffffffffffffffffffffff1673ffffffffffffffffffffffffffffffffffffffff168152602001908152602001600020600087815260200190815260200160002054613b4a91906157f8565b601060008073ffffffffffffffffffffffffffffffffffffffff1673ffffffffffffffffffffffffffffffffffffffff16815260200190815260200160002060008781526020019081526020016000208190555082600e60008073ffffffffffffffffffffffffffffffffffffffff1673ffffffffffffffffffffffffffffffffffffffff16815260200190815260200160002054613be991906157f8565b600e60008073ffffffffffffffffffffffffffffffffffffffff1673ffffffffffffffffffffffffffffffffffffffff168152602001908152602001600020819055508260066000828254613c3e91906159ba565b925050819055508373ffffffffffffffffffffffffffffffffffffffff163373ffffffffffffffffffffffffffffffffffffffff16867fce306c3dbc4a497124b5a4f2be8388b41084c1d74663da27ecee1186c00239bf8685604051613ca5929190615d78565b60405180910390a45050505050565b600083601060008873ffffffffffffffffffffffffffffffffffffffff1673ffffffffffffffffffffffffffffffffffffffff1681526020019081526020016000206000898152602001908152602001600020541015613d49576040517f08c379a0000000000000000000000000000000000000000000000000000000008152600401613d4090615ca4565b60405180910390fd5b600073ffffffffffffffffffffffffffffffffffffffff168573ffffffffffffffffffffffffffffffffffffffff161415613db9576040517f08c379a0000000000000000000000000000000000000000000000000000000008152600401613db090615a8b565b60405180910390fd5b83601060008873ffffffffffffffffffffffffffffffffffffffff1673ffffffffffffffffffffffffffffffffffffffff168152602001908152602001600020600089815260200190815260200160002054613e1591906159ba565b601060008873ffffffffffffffffffffffffffffffffffffffff1673ffffffffffffffffffffffffffffffffffffffff16815260200190815260200160002060008981526020019081526020016000208190555083600e60008873ffffffffffffffffffffffffffffffffffffffff1673ffffffffffffffffffffffffffffffffffffffff16815260200190815260200160002054613eb491906159ba565b600e60008873ffffffffffffffffffffffffffffffffffffffff1673ffffffffffffffffffffffffffffffffffffffff1681526020019081526020016000208190555083601060008773ffffffffffffffffffffffffffffffffffffffff1673ffffffffffffffffffffffffffffffffffffffff168152602001908152602001600020600089815260200190815260200160002054613f5391906157f8565b601060008773ffffffffffffffffffffffffffffffffffffffff1673ffffffffffffffffffffffffffffffffffffffff16815260200190815260200160002060008981526020019081526020016000208190555083600e60008773ffffffffffffffffffffffffffffffffffffffff1673ffffffffffffffffffffffffffffffffffffffff16815260200190815260200160002054613ff291906157f8565b600e60008773ffffffffffffffffffffffffffffffffffffffff1673ffffffffffffffffffffffffffffffffffffffff168152602001908152602001600020819055508473ffffffffffffffffffffffffffffffffffffffff163373ffffffffffffffffffffffffffffffffffffffff16887fff4e9a26af4eb73b8bacfaa4abd4fea03d9448e7b912dc5ff4019048875aa2d43388888860405161409994939291906158fb565b60405180910390a47fddf252ad1be2c89b69c2b068fc378daa952ba7f163c4a11628f55a4df523b3ef8686866040516140d49392919061546b565b60405180910390a18690509695505050505050565b60008060006041845114614132576040517f08c379a000000000000000000000000000000000000000000000000000000000815260040161412990615df4565b60405180910390fd5b6020840151925060408401519150606084015160001a90509193909250565b606060008060008480602001905181019061416c9190615eae565b93509350935093509193509193565b828054614187906153cd565b90600052602060002090601f0160209004810192826141a957600085556141f0565b82601f106141c257805160ff19168380011785556141f0565b828001600101855582156141f0579182015b828111156141ef5782518255916020019190600101906141d4565b5b5090506141fd9190614201565b5090565b5b8082111561421a576000816000905550600101614202565b5090565b6000604051905090565b600080fd5b600080fd5b6000819050919050565b61424581614232565b811461425057600080fd5b50565b6000813590506142628161423c565b92915050565b600080fd5b600080fd5b600080fd5b60008083601f84011261428d5761428c614268565b5b8235905067ffffffffffffffff8111156142aa576142a961426d565b5b6020830191508360018202830111156142c6576142c5614272565b5b9250929050565b600080600080606085870312156142e7576142e6614228565b5b60006142f587828801614253565b945050602085013567ffffffffffffffff8111156143165761431561422d565b5b61432287828801614277565b9350935050604061433587828801614253565b91505092959194509250565b600081519050919050565b600082825260208201905092915050565b60005b8381101561437b578082015181840152602081019050614360565b8381111561438a576000848401525b50505050565b6000601f19601f8301169050919050565b60006143ac82614341565b6143b6818561434c565b93506143c681856020860161435d565b6143cf81614390565b840191505092915050565b600060208201905081810360008301526143f481846143a1565b905092915050565b600073ffffffffffffffffffffffffffffffffffffffff82169050919050565b6000614427826143fc565b9050919050565b6144378161441c565b811461444257600080fd5b50565b6000813590506144548161442e565b92915050565b6000819050919050565b61446d8161445a565b811461447857600080fd5b50565b60008135905061448a81614464565b92915050565b600080604083850312156144a7576144a6614228565b5b60006144b585828601614445565b92505060206144c68582860161447b565b9150509250929050565b60008115159050919050565b6144e5816144d0565b82525050565b600060208201905061450060008301846144dc565b92915050565b6000806040838503121561451d5761451c614228565b5b600061452b85828601614253565b925050602061453c85828601614445565b9150509250929050565b600080fd5b7f4e487b7100000000000000000000000000000000000000000000000000000000600052604160045260246000fd5b61458382614390565b810181811067ffffffffffffffff821117156145a2576145a161454b565b5b80604052505050565b60006145b561421e565b90506145c1828261457a565b919050565b600067ffffffffffffffff8211156145e1576145e061454b565b5b6145ea82614390565b9050602081019050919050565b82818337600083830152505050565b6000614619614614846145c6565b6145ab565b90508281526020810184848401111561463557614634614546565b5b6146408482856145f7565b509392505050565b600082601f83011261465d5761465c614268565b5b813561466d848260208601614606565b91505092915050565b600080600080608085870312156146905761468f614228565b5b600061469e87828801614445565b94505060206146af87828801614445565b93505060406146c08782880161447b565b925050606085013567ffffffffffffffff8111156146e1576146e061422d565b5b6146ed87828801614648565b91505092959194509250565b60007fff0000000000000000000000000000000000000000000000000000000000000082169050919050565b61472e816146f9565b82525050565b61473d81614232565b82525050565b60006040820190506147586000830185614725565b6147656020830184614734565b9392505050565b6147758161445a565b82525050565b6000602082019050614790600083018461476c565b92915050565b6000806000606084860312156147af576147ae614228565b5b60006147bd86828701614445565b93505060206147ce8682870161447b565b925050604084013567ffffffffffffffff8111156147ef576147ee61422d565b5b6147fb86828701614648565b9150509250925092565b60008060006060848603121561481e5761481d614228565b5b600061482c86828701614445565b935050602061483d86828701614445565b925050604061484e8682870161447b565b9150509250925092565b600080fd5b600080fd5b600067ffffffffffffffff82111561487d5761487c61454b565b5b61488682614390565b9050602081019050919050565b60006148a66148a184614862565b6145ab565b9050828152602081018484840111156148c2576148c1614546565b5b6148cd8482856145f7565b509392505050565b600082601f8301126148ea576148e9614268565b5b81356148fa848260208601614893565b91505092915050565b60006080828403121561491957614918614858565b5b61492360806145ab565b9050600082013567ffffffffffffffff8111156149435761494261485d565b5b61494f848285016148d5565b600083015250602082013567ffffffffffffffff8111156149735761497261485d565b5b61497f848285016148d5565b602083015250604082013567ffffffffffffffff8111156149a3576149a261485d565b5b6149af848285016148d5565b60408301525060606149c384828501614445565b60608301525092915050565b6000806000606084860312156149e8576149e7614228565b5b600084013567ffffffffffffffff811115614a0657614a0561422d565b5b614a1286828701614903565b935050602084013567ffffffffffffffff811115614a3357614a3261422d565b5b614a3f86828701614903565b9250506040614a508682870161447b565b9150509250925092565b6000602082019050614a6f6000830184614734565b92915050565b60008083601f840112614a8b57614a8a614268565b5b8235905067ffffffffffffffff811115614aa857614aa761426d565b5b602083019150836001820283011115614ac457614ac3614272565b5b9250929050565b60008060008060008060808789031215614ae857614ae7614228565b5b6000614af689828a01614445565b9650506020614b0789828a0161447b565b955050604087013567ffffffffffffffff811115614b2857614b2761422d565b5b614b3489828a01614a75565b9450945050606087013567ffffffffffffffff811115614b5757614b5661422d565b5b614b6389828a01614a75565b92509250509295509295509295565b614b7b8161441c565b82525050565b6000602082019050614b966000830184614b72565b92915050565b600080600060608486031215614bb557614bb4614228565b5b6000614bc386828701614253565b9350506020614bd48682870161447b565b925050604084013567ffffffffffffffff811115614bf557614bf461422d565b5b614c0186828701614648565b9150509250925092565b60008060008060808587031215614c2557614c24614228565b5b6000614c3387828801614253565b9450506020614c4487828801614445565b9350506040614c558782880161447b565b925050606085013567ffffffffffffffff811115614c7657614c7561422d565b5b614c8287828801614648565b91505092959194509250565b600081519050919050565b600082825260208201905092915050565b6000819050602082019050919050565b614cc381614232565b82525050565b6000614cd58383614cba565b60208301905092915050565b6000602082019050919050565b6000614cf982614c8e565b614d038185614c99565b9350614d0e83614caa565b8060005b83811015614d3f578151614d268882614cc9565b9750614d3183614ce1565b925050600181019050614d12565b5085935050505092915050565b60006020820190508181036000830152614d668184614cee565b905092915050565b600080600060608486031215614d8757614d86614228565b5b6000614d9586828701614253565b9350506020614da686828701614445565b9250506040614db786828701614445565b9150509250925092565b614dca816144d0565b8114614dd557600080fd5b50565b600081359050614de781614dc1565b92915050565b600060208284031215614e0357614e02614228565b5b6000614e1184828501614dd8565b91505092915050565b600060208284031215614e3057614e2f614228565b5b6000614e3e84828501614445565b91505092915050565b60008060008060008060c08789031215614e6457614e63614228565b5b6000614e7289828a01614253565b9650506020614e8389828a01614445565b9550506040614e9489828a01614445565b9450506060614ea589828a0161447b565b935050608087013567ffffffffffffffff811115614ec657614ec561422d565b5b614ed289828a01614648565b92505060a087013567ffffffffffffffff811115614ef357614ef261422d565b5b614eff89828a01614648565b9150509295509295509295565b600080600080600060a08688031215614f2857614f27614228565b5b6000614f3688828901614445565b9550506020614f4788828901614445565b9450506040614f5888828901614253565b9350506060614f698882890161447b565b925050608086013567ffffffffffffffff811115614f8a57614f8961422d565b5b614f9688828901614648565b9150509295509295909350565b6000606082019050614fb86000830186614725565b614fc56020830185614734565b614fd26040830184614734565b949350505050565b600060208284031215614ff057614fef614228565b5b6000614ffe84828501614253565b91505092915050565b6000604082019050818103600083015261502181856143a1565b90506150306020830184614734565b9392505050565b600081519050919050565b600082825260208201905092915050565b6000819050602082019050919050565b61506c8161441c565b82525050565b600061507e8383615063565b60208301905092915050565b6000602082019050919050565b60006150a282615037565b6150ac8185615042565b93506150b783615053565b8060005b838110156150e85781516150cf8882615072565b97506150da8361508a565b9250506001810190506150bb565b5085935050505092915050565b6000602082019050818103600083015261510f8184615097565b905092915050565b6000806040838503121561512e5761512d614228565b5b600061513c85828601614445565b925050602061514d85828601614445565b9150509250929050565b6000806000806060858703121561517157615170614228565b5b600061517f87828801614445565b94505060206151908782880161447b565b935050604085013567ffffffffffffffff8111156151b1576151b061422d565b5b6151bd87828801614a75565b925092505092959194509250565b600080604083850312156151e2576151e1614228565b5b600083013567ffffffffffffffff811115615200576151ff61422d565b5b61520c85828601614648565b925050602061521d85828601614253565b9150509250929050565b6000806040838503121561523e5761523d614228565b5b600061524c8582860161447b565b925050602083013567ffffffffffffffff81111561526d5761526c61422d565b5b61527985828601614648565b9150509250929050565b600080600080600080600060a0888a0312156152a2576152a1614228565b5b60006152b08a828b01614445565b97505060206152c18a828b01614445565b96505060406152d28a828b0161447b565b955050606088013567ffffffffffffffff8111156152f3576152f261422d565b5b6152ff8a828b01614a75565b9450945050608088013567ffffffffffffffff8111156153225761532161422d565b5b61532e8a828b01614a75565b925092505092959891949750929550565b600061534b838561434c565b93506153588385846145f7565b61536183614390565b840190509392505050565b6000604082019050818103600083015261538781858761533f565b90506153966020830184614734565b949350505050565b7f4e487b7100000000000000000000000000000000000000000000000000000000600052602260045260246000fd5b600060028204905060018216806153e557607f821691505b602082108114156153f9576153f861539e565b5b50919050565b7f3078353800000000000000000000000000000000000000000000000000000000600082015250565b600061543560048361434c565b9150615440826153ff565b602082019050919050565b6000602082019050818103600083015261546481615428565b9050919050565b60006060820190506154806000830186614b72565b61548d6020830185614b72565b61549a604083018461476c565b949350505050565b7f3078353300000000000000000000000000000000000000000000000000000000600082015250565b60006154d860048361434c565b91506154e3826154a2565b602082019050919050565b60006020820190508181036000830152615507816154cb565b9050919050565b60006080820190506155236000830187614734565b6155306020830186614734565b61553d6040830185614734565b61554a606083018461476c565b95945050505050565b600081905092915050565b7f1901000000000000000000000000000000000000000000000000000000000000600082015250565b6000615594600283615553565b915061559f8261555e565b600282019050919050565b6000819050919050565b6155c56155c082614232565b6155aa565b82525050565b60006155d682615587565b91506155e282856155b4565b6020820191506155f282846155b4565b6020820191508190509392505050565b600082825260208201905092915050565b600061561f8385615602565b935061562c8385846145f7565b61563583614390565b840190509392505050565b60006080820190506156556000830189614b72565b615662602083018861476c565b8181036040830152615675818688615613565b9050818103606083015261568a818486615613565b9050979650505050505050565b7f3078353600000000000000000000000000000000000000000000000000000000600082015250565b60006156cd60048361434c565b91506156d882615697565b602082019050919050565b600060208201905081810360008301526156fc816156c0565b9050919050565b7f3078353500000000000000000000000000000000000000000000000000000000600082015250565b600061573960048361434c565b915061574482615703565b602082019050919050565b600060208201905081810360008301526157688161572c565b9050919050565b7f4e487b7100000000000000000000000000000000000000000000000000000000600052601160045260246000fd5b60006157a98261445a565b91506157b48361445a565b9250817fffffffffffffffffffffffffffffffffffffffffffffffffffffffffffffffff04831182151516156157ed576157ec61576f565b5b828202905092915050565b60006158038261445a565b915061580e8361445a565b9250827fffffffffffffffffffffffffffffffffffffffffffffffffffffffffffffffff038211156158435761584261576f565b5b828201905092915050565b600081519050919050565b60006158648261584e565b61586e8185615602565b935061587e81856020860161435d565b61588781614390565b840191505092915050565b50565b60006158a2600083615602565b91506158ad82615892565b600082019050919050565b60006060820190506158cd600083018561476c565b81810360208301526158df8184615859565b905081810360408301526158f281615895565b90509392505050565b60006080820190506159106000830187614b72565b61591d602083018661476c565b818103604083015261592f8185615859565b905081810360608301526159438184615859565b905095945050505050565b7f4143430000000000000000000000000000000000000000000000000000000000600082015250565b600061598460038361434c565b915061598f8261594e565b602082019050919050565b600060208201905081810360008301526159b381615977565b9050919050565b60006159c58261445a565b91506159d08361445a565b9250828210156159e3576159e261576f565b5b828203905092915050565b6000608082019050615a036000830186614b72565b615a10602083018561476c565b8181036040830152615a2181615895565b90508181036060830152615a358184615859565b9050949350505050565b7f3078353700000000000000000000000000000000000000000000000000000000600082015250565b6000615a7560048361434c565b9150615a8082615a3f565b602082019050919050565b60006020820190508181036000830152615aa481615a68565b9050919050565b6000608082019050615ac06000830187614b72565b615acd602083018661476c565b615ada604083018561476c565b615ae7606083018461476c565b95945050505050565b600060ff82169050919050565b615b0681615af0565b82525050565b6000608082019050615b216000830187614734565b615b2e6020830186615afd565b615b3b6040830185614734565b615b486060830184614734565b95945050505050565b7f3078353900000000000000000000000000000000000000000000000000000000600082015250565b6000615b8760048361434c565b9150615b9282615b51565b602082019050919050565b60006020820190508181036000830152615bb681615b7a565b9050919050565b7f4e487b7100000000000000000000000000000000000000000000000000000000600052603260045260246000fd5b7f3078356200000000000000000000000000000000000000000000000000000000600082015250565b6000615c2260048361434c565b9150615c2d82615bec565b602082019050919050565b60006020820190508181036000830152615c5181615c15565b9050919050565b7f3078353200000000000000000000000000000000000000000000000000000000600082015250565b6000615c8e60048361434c565b9150615c9982615c58565b602082019050919050565b60006020820190508181036000830152615cbd81615c81565b9050919050565b600060c082019050615cd96000830189614734565b615ce66020830188614734565b615cf36040830187614734565b615d00606083018661476c565b615d0d6080830185614b72565b615d1a60a0830184614734565b979650505050505050565b600060a082019050615d3a6000830188614734565b615d476020830187614734565b615d546040830186614734565b615d616060830185614734565b615d6e6080830184614b72565b9695505050505050565b6000604082019050615d8d600083018561476c565b8181036020830152615d9f8184615859565b90509392505050565b7f3078356600000000000000000000000000000000000000000000000000000000600082015250565b6000615dde60048361434c565b9150615de982615da8565b602082019050919050565b60006020820190508181036000830152615e0d81615dd1565b9050919050565b6000615e27615e22846145c6565b6145ab565b905082815260208101848484011115615e4357615e42614546565b5b615e4e84828561435d565b509392505050565b600082601f830112615e6b57615e6a614268565b5b8151615e7b848260208601615e14565b91505092915050565b600081519050615e938161423c565b92915050565b600081519050615ea881614dc1565b92915050565b60008060008060808587031215615ec857615ec7614228565b5b600085015167ffffffffffffffff811115615ee657615ee561422d565b5b615ef287828801615e56565b9450506020615f0387828801615e84565b9350506040615f1487828801615e99565b9250506060615f2587828801615e99565b9150509295919450925056fea2646970667358221220eabd227423720db9f8dbaf482fcb60af4f22f7e45b1849d9e34388a7c1cfb85b64736f6c634300080a0033",
  "immutableReferences": {},
  "source": "// solidity version\r\npragma solidity 0.8.10;\r\n\r\nimport \"./utils/Certificate.sol\";\r\n\r\n\r\ncontract ERC1400 is Certificate{\r\n\r\n\r\n    /************************************************ Variable Declarations and Initaalizations ************************************/\r\n\r\n\r\n    Certificate certificate;\r\n\r\n     // *************************************** Strings ********************************************************* //\r\n\r\n    string public name;   // token name\r\n    string public symbol; // token symbol\r\n\r\n\r\n\r\n    // *************************************** Integers ********************************************************* //\r\n\r\n    uint256 public granularity;   // token granularity\r\n    uint256 public totalSupply; // token total supply\r\n    uint256 public decimals; //token decimals\r\n\r\n\r\n    // *************************************** Addresses ********************************************************* //\r\n\r\n    address private owner;  // set the address of the owner to be private\r\n\r\n\r\n\r\n     // *************************************** Booleans ********************************************************* //\r\n\r\n    bool private _lockUpTokens = false; // token lockup indicator\r\n    bool private _isIssuable = true;    //  indicates when a token can be issued\r\n    bool private _isControllable = true;   // private variable that indicates the controllability of the tokens\r\n    \r\n\r\n    // ************************ Array ******************************//\r\n\r\n    bytes32[] internal _totalPartitions;\r\n    bytes32[] internal _defaultPartitions;\r\n    address[] internal _controllers;\r\n    //bytes32[] internal _allDocuments;    // an array to store all the documents stored onchain\r\n\r\n\r\n     // *************************************** Structs ********************************************************* //\r\n\r\n    struct Doc {\r\n        bytes32 _name;\r\n        bytes32 _documentHash;\r\n        string _uri;\r\n        \r\n    } // struct to handle the documents\r\n\r\n\r\n\r\n     // *************************************** Events ********************************************************* //\r\n\r\n    event WhiteList (address _investor, uint256 _timeAdded);                                                 // event to be emitted whenever an address is whitelisted\r\n    event Issued (address _to, uint256 _amountIssued, uint256 _totalSupply, uint256 _timeIssued);            // event to be emitted whenever new tokens are minted\r\n    event Transfer (address _from, address _to, uint256 _amount);                                            // event to be emitted whenever token is been transferred\r\n    event Approval (address _tokenHolder, address _externalAddress, uint256 _amount);                        // event to be emitted whenever an external address is approved such as escrows\r\n    event Document (bytes32 indexed _name, string _uri, bytes32 _documentHash);                       // event to be emitted whenever a document is put on-chain\r\n    event TransferByPartition (\r\n\r\n        bytes32 indexed _fromPartition,\r\n        address _operator,\r\n        address indexed _from,\r\n        address indexed _to,\r\n        uint256 _value,\r\n        bytes _data,\r\n        bytes _operatorData\r\n\r\n\r\n    );                                                                           // event to be emitted whenever tokens are transfered from an address partition to another addres of same partition\r\n\r\n    event AuthorizedOperator (address indexed _operator, address indexed _tokenHolder);     // event to be emitted whenever an operator is authorized\r\n    event RevokedOperator (address indexed _operator, address indexed _tokenHolder);     // event to be emitted whenever an operator is revoked\r\n    event AuthorizedOperatorByPartition (bytes32 indexed _partition, address indexed _operator, address indexed _tokenHolder);     // event to be emitted whenever an operator is authorized for a partition\r\n    event RevokedOperatorByPartition (bytes32 indexed _partition, address indexed _operator, address indexed _tokenHolder);     // event to be emitted whenever an operator is revoked for a partition\r\n    event IssuedByPartition (bytes32 indexed _partition, address indexed _operator, address indexed _to, uint256 _amount, bytes _data, bytes _operatorData);    //  event to be emitted whenever a new token is issued to an holder's partition\r\n    event RedeemedByPartition (bytes32 indexed _partition, address indexed _operator, address indexed _from, uint256 _amount, bytes _operatorData);     // event to be emitted when tokens are burnt from any partitions\r\n    event Redeemed (address indexed _operator, address indexed _from, uint256 _value, bytes _data);          //  event to be emitted when a token is being redeemed\r\n    event ControllerTransfer (address _controller, address indexed _from, address indexed _to, uint256 _value, bytes _data, bytes _operatorData); // event to be emitted whenever a controller forces a token transfer\r\n    event ControllerRedemption (address _controller, address indexed _tokenHolder, uint256 _value, bytes _data, bytes _operatorData);        // event to be emitted whenever a controller forces token redemption from a token holder's wallet\r\n\r\n     // *************************************** Mappings ********************************************************* //\r\n\r\n    mapping (address => bool) private whitelist;                                     //  whitelist map\r\n    mapping (address => mapping(address => uint256)) private allowance;              // set the address of the allowed external operator\r\n    mapping (address => uint256) internal _balanceOf;                                // map to store the token balances of token holders\r\n    //mapping(bytes32 => uint256) public partitions;                                  // map to store the total supply of each partitions partitions\r\n    mapping (bytes32 => Doc) internal _documents;                                    // map to store the documents\r\n    mapping (address => mapping(bytes32 => uint256)) internal _balanceOfByPartition; // map to store the partitioned token balance of a token holder \r\n    mapping (address => bytes32[]) internal _partitionsOf;                           // map that stores the partitions of a token holder\r\n    mapping (address => mapping(address => bool)) internal _isOperator;              // map to approve or revoke operators for a token holder\r\n    //mapping(bytes32 => uint256) internal _indexOfDocument;                          // map to store thei index position of a document\r\n    mapping (bytes32 => uint256) internal _indexOfPartitions;\r\n\r\n    // holder's address -> operator  address -> partition -> true/false\r\n    mapping (address => mapping(address => mapping (bytes32 => bool))) internal _isOperatorForPartition;                  // map to approve or revoke operators by partition\r\n    mapping (address => bool) private _isController;                                 // map to store the addresses of approved controllers\r\n    mapping (address => uint256) private _indexOfController;                         // map to store the index position of controllers\r\n\r\n\r\n    constructor (string memory _name, string memory _symbol, uint256 _decimals, uint256 _totalSupply, bytes32[] memory defaultPartitions) {\r\n\r\n        name = _name;\r\n        symbol = _symbol;\r\n        decimals = _decimals;\r\n        granularity = 10 ** decimals; // for token decimals \r\n        totalSupply = _totalSupply;\r\n        owner = msg.sender;\r\n        _defaultPartitions = defaultPartitions;\r\n\r\n    }\r\n\r\n    modifier restricted {\r\n        require(msg.sender == owner, \"0x56\");\r\n        _;\r\n    }\r\n\r\n\r\n    // *************************************** Internal functions ********************************************************* //\r\n\r\n    // 1. internal funtion to transfer tokens from an address to another address\r\n    \r\n    function _transfer(address _from, address _to, uint256 _amount) internal returns (bool success) {\r\n\r\n        require(_to != address(0),  \"0x57\");        // invalid receiver\r\n        require(_balanceOf[_from] >= _amount, \"0x52\");      // insufficient amount\r\n\r\n        _balanceOf[_from] = _balanceOf[_from] - _amount;                  // reduce the sender's balance --> use safemath\r\n        _balanceOf[_to] = _balanceOf[_to] + _amount;                      // increase the value of the receiver ---> usesafemath\r\n        emit Transfer (_from, _to, _amount);                            // emit the Tranfer event\r\n        return true;\r\n     }\r\n\r\n\r\n     // 2. internal funtion to transfer tokens by partitions from an address to another address\r\n\r\n    function _transferByPartiton(bytes32 _partition, address _from, address _to, uint256 _value, bytes memory _data, bytes memory _operatorData) internal returns(bytes32) {\r\n       \r\n       /*if (_partition == \"\") {\r\n           _transfer(_from, _to, _value);\r\n       }*/\r\n\r\n       require( _balanceOfByPartition[_from][_partition] >= _value, \"0x52\"); // the partiton balance of the holder must be greater than or equal to the value\r\n       require(_to != address(0),  \"0x57\");   //  can't send to ether address\r\n\r\n       _balanceOfByPartition[_from][_partition] = _balanceOfByPartition[_from][_partition] - _value;\r\n       _balanceOf[_from] = _balanceOf[_from] - _value; // the value should reflect in the global token balance of the sender\r\n       \r\n       _balanceOfByPartition[_to][_partition] = _balanceOfByPartition[_to][_partition] + _value;\r\n       _balanceOf[_to] = _balanceOf[_to] + _value; // the value should reflect in the global token balance of the receiver\r\n\r\n       emit TransferByPartition(_partition, msg.sender, msg.sender, _to, _value, _data, _operatorData);\r\n       emit Transfer(_from, _to, _value);\r\n\r\n       return _partition;\r\n\r\n    }\r\n\r\n    // function to transfer by default Partitions\r\n\r\n    function _transferByDefaultPartitions(address _from, address _to, uint256 _value) internal {\r\n\r\n\r\n        require(_balanceOf[_from] >= _value, \"0x52\");        \r\n        for (uint256 index = 0; index < _defaultPartitions.length; index++) {\r\n            _transferByPartiton(_defaultPartitions[index], _from, _to, _value, \"\", \"\");\r\n        }\r\n\r\n    }\r\n\r\n    // internal redeem by partition function\r\n\r\n\r\n    function _redeemByPartition(bytes32 _partition, address _tokenHolder, uint256 _value, bytes memory _data, bytes memory _operatorData) internal {\r\n\r\n       require(msg.sender != address(0), \"0x56\");\r\n       require(_balanceOfByPartition[_tokenHolder][_partition] >= _value, \"0x52\");  // insufficient balance\r\n       _balanceOfByPartition[_tokenHolder][_partition] = _balanceOfByPartition[_tokenHolder][_partition] - _value;\r\n       _balanceOf[_tokenHolder] = _balanceOf[_tokenHolder] - _value; // the value should reflect in the global token balance of the sender\r\n       \r\n       _balanceOfByPartition[address(0)][_partition] = _balanceOfByPartition[address(0)][_partition] + _value;\r\n       _balanceOf[address(0)] = _balanceOf[address(0)] + _value; // the value should reflect in the global token balance of the receiver\r\n       totalSupply -= _value;\r\n       emit RedeemedByPartition(_partition, msg.sender, _tokenHolder, _value, _operatorData);\r\n\r\n    }\r\n\r\n    // internal redeem function\r\n\r\n    function _redeem(address _tokenHolder, uint256 _value, bytes memory _data) internal {\r\n\r\n       require(_balanceOf[_tokenHolder] >= _value, \"0x52\"); // insufficient balance\r\n       _transfer(_tokenHolder, address(0), _value);\r\n       totalSupply -= _value;\r\n       emit Redeemed(msg.sender, _tokenHolder, _value, _data);\r\n\r\n    }\r\n\r\n\r\n    function _verifySigner(bytes memory _data) internal view returns (bool) {\r\n        (bytes memory _signature, bytes32 _signatureHash, bool _fromIsWhiteListedOrIssuer, bool _toIsWhiteListed) = decodeData(_data);\r\n        require(_fromIsWhiteListedOrIssuer && _toIsWhiteListed, \"0x5b\");    // require that the from and to accounts are whitelisted\r\n        address _signer = verifySignature(_signature, _signatureHash);\r\n        require (owner == _signer || _isController[_signer], \"0x59\");   // invalid signer\r\n        return true;\r\n    }\r\n\r\n\r\n\r\n    // **************************       ERC1400 FEATURES  ******************************************************//\r\n\r\n\r\n    //  Default Partitions\r\n\r\n\r\n    /*function setDefaultPartitions(bytes32[] calldata defaultPartitions) external  {\r\n        _defaultPartitions = defaultPartitions;\r\n    }*/\r\n     \r\n    // *********************    DOCUMENT MANAGEMENT  ---------- ERC 1643\r\n\r\n    //  set document\r\n\r\n    function setDocument (bytes32 _name, string calldata _uri, bytes32 _documentHash) external  {\r\n        \r\n        _documents[_name] = Doc(_name, _documentHash, _uri);     // save the document\r\n        //_allDocuments.push(_name);\r\n        //_indexOfDocument[_name] = _allDocuments.length;\r\n        emit Document(_name, _uri, _documentHash);              // emit event when document is set on chain\r\n\r\n    }\r\n\r\n    // get document\r\n    \r\n    function getDocument (bytes32 _name) external view returns (string memory uri, bytes32 docHash) {\r\n\r\n        Doc memory _document = _documents[_name];\r\n\r\n        return (_document._uri, _document._documentHash);  // return the document uri and document hash\r\n\r\n    }\r\n\r\n\r\n\r\n    // *********************    TOKEN INFORMATION\r\n\r\n\r\n    // function that returns balance\r\n    \r\n    function balanceOf(address _tokenHolder) external view returns (uint256) {\r\n        return _balanceOf[_tokenHolder];\r\n    }\r\n\r\n    function balanceOfByPartition(bytes32 _partition, address _tokenHolder) external view returns (uint256) {\r\n       return _balanceOfByPartition[_tokenHolder][_partition];\r\n   }\r\n\r\n   // function to return the partitions of a token holder\r\n\r\n    /*function partitionsOf(address _tokenHolder) external view returns (bytes32[] memory) {\r\n\r\n        bytes32[] _partitions = new bytes32[](7);\r\n        for (uint256 index = 0; index < _totalPartitions.length; index++) {\r\n            if (_balanceOfByPartition[_tokenHolder][_totalPartitions[index]] > 0) {\r\n                _partitions.push(_totalPartitions[index]);\r\n            }\r\n        }\r\n\r\n        return _partitions;\r\n        \r\n\r\n   } */\r\n\r\n\r\n\r\n    // *********************    TRANSFERS\r\n\r\n    // approve tokens to external operators\r\n    \r\n    function approve(address _externalAddress, uint256 _value) external returns (bool success) {\r\n\r\n        require(_externalAddress != address(0), \"0x58\");                  //    0x58   invalid operator\r\n        allowance[msg.sender][_externalAddress] = _value;              // use safemath function here to avoid under and overflow\r\n        emit Approval(msg.sender, _externalAddress, _value);            // emit the approved event\r\n        return true;\r\n\r\n    }\r\n\r\n\r\n    // function to transfer tokens. the internal transfer function will be called here\r\n    \r\n    function transfer(address _to, uint256 _value) public returns (bool success) {\r\n\r\n        _transfer(msg.sender, _to, _value);\r\n        return true;\r\n\r\n    }\r\n\r\n    // function transferFrom. The function for external addresses such as escrows to move tokens on behalf of the token holder\r\n    \r\n    function transferFrom(address _from, address _to, uint256 _value) external returns (bool success) {\r\n\r\n        // _from is the current token holder\r\n        // _to is the destinantion address\r\n        //  msg.sender is the external address calling this function\r\n        // the token holder should have at least the amount of tokens to be transferred ----> this check has been implemented in the internal _transfer function\r\n\r\n        require(allowance[_from][msg.sender] >= _value, \"0x53\");           // the allowed value approved by the token holder must not be less than the amount. Insufficient allowance\r\n        _transfer(_from, _to, _value);                             // transfer the tokens\r\n\r\n        // reset the allowance value\r\n\r\n        allowance[_from][msg.sender] =  0;   \r\n        return true;           \r\n\r\n    }  \r\n\r\n    // tranfer with data\r\n\r\n    function transferWithData(address _to, uint256 _value, bytes memory _data) external {\r\n        \r\n        require(_verifySigner(_data));\r\n        _transfer(msg.sender, _to, _value);\r\n    }\r\n    \r\n\r\n    function transferFromWithData(address _from, address _to, uint256 _value, bytes memory _data) external {\r\n         require(allowance[_from][msg.sender] >= _value, \"0x53\");           // the allowed value approved by the token holder must not be less than the amount\r\n        _transfer(_from, _to, _value);                              // transfer the tokens\r\n\r\n        //  reset the allowance value\r\n\r\n        allowance[_from][msg.sender] =  0;   \r\n        \r\n    }\r\n\r\n\r\n    // *********************    PARTITION TOKEN TRANSFERS\r\n\r\n\r\n    function transferByPartition(bytes32 _partition, address _to, uint256 _value, bytes memory _data) external returns (bytes32) {\r\n\r\n        if (_data.length != 1) {\r\n\r\n            require(_verifySigner(_data));\r\n\r\n        }\r\n       _transferByPartiton(_partition, msg.sender, _to, _value, _data , \"\");\r\n \r\n   }    \r\n\r\n   // operator transfer by partition\r\n   \r\n   function operatorTransferByPartition(bytes32 _partition, address _from, address _to, uint256 _value, bytes memory _data, bytes memory _operatorData) external returns (bytes32) {\r\n\r\n       require(_verifySigner(_operatorData));\r\n       if(_isControllable == true && _isController[msg.sender]) {\r\n\r\n           _transferByPartiton(_partition, _from, _to, _value, \"\", \"\");\r\n           emit ControllerTransfer(msg.sender, _from, _to, _value, _data, _operatorData);       // forceful transfers\r\n\r\n       } else {\r\n            require(_isOperatorForPartition[_from][msg.sender][_partition] || _isOperator[_from][msg.sender], \"0x56\"); // 0x56 invalid sender\r\n            _transferByPartiton(_partition, _from, _to, _value, \"\", \"\");\r\n       }\r\n      \r\n       \r\n   }\r\n\r\n\r\n\r\n   // *********************    CONTROLLER OPERATION\r\n\r\n   function isControllable() external view returns (bool) {\r\n       return _isControllable;\r\n   }\r\n\r\n   function isController(address _controller) external view returns(bool) {\r\n       return _isController[_controller];\r\n   }\r\n\r\n   function setControllability(bool _status) external restricted {\r\n       _isControllable = _status;\r\n   }\r\n\r\n   function setController(address _controller) external restricted {\r\n\r\n       require(_controller != address(0), \"0x58\");      // invalid transfer agent\r\n       require(!_isController[_controller], \"ACC\");       // address is currently a controller\r\n       _isController[_controller] = true;\r\n       _controllers.push(_controller);\r\n       _indexOfController[_controller] = _controllers.length - 1;\r\n\r\n   }\r\n\r\n   function getControllers() external view returns (address[] memory) {\r\n       return _controllers;\r\n   }\r\n\r\n   function removeController(address _controller) external restricted {\r\n\r\n        require(_controller != address(0), \"0x58\");     // invalid transfer agent\r\n        require(_isController[_controller], \"0x58\");      // not recognized as a controller\r\n        _isController[_controller] = false;\r\n        delete _controllers[_indexOfController[_controller]];     // remove the controller from the array of controllers using their saved index value\r\n       \r\n   }\r\n\r\n   function controllerTransfer(address _from, address _to, uint256 _value, bytes calldata _data, bytes calldata _operatorData) external {\r\n        _transfer(_from, _to, _value);\r\n        emit ControllerTransfer(msg.sender, _from, _to, _value, _data, _operatorData);\r\n   }\r\n\r\n   function controllerRedeem(address _tokenHolder, uint256 _value, bytes calldata _data, bytes calldata _operatorData) external {\r\n        _redeem(_tokenHolder,  _value, _data);\r\n        emit ControllerRedemption(msg.sender, _tokenHolder, _value, _data, _operatorData);\r\n   }\r\n\r\n\r\n   // *********************    OPERATOR MANAGEMENT\r\n\r\n\r\n    function authorizeOperator (address _operator) public {\r\n        _isOperator[msg.sender][_operator] = true;\r\n        emit AuthorizedOperator(_operator, msg.sender);\r\n    }\r\n\r\n    function revokeOperator (address _operator) public {\r\n        _isOperator[msg.sender][_operator] = false;\r\n        emit RevokedOperator(_operator, msg.sender);\r\n    }\r\n\r\n    function authorizeOperatorByPartition (bytes32 _partition, address _operator) public  {\r\n        _isOperatorForPartition[msg.sender][_operator][_partition] = true;\r\n        emit AuthorizedOperatorByPartition(_partition, _operator, msg.sender);\r\n    }\r\n\r\n    function revokeOperatorByPartition (bytes32 _partition, address _operator) public {\r\n        _isOperatorForPartition[msg.sender][_operator][_partition] = false;\r\n        emit RevokedOperatorByPartition(_partition, _operator, msg.sender);\r\n    }\r\n\r\n\r\n\r\n    // *********************    OPERATOR INFORMATION\r\n\r\n\r\n\r\n     function isOperator (address _operator, address _tokenHolder) external view returns (bool) {\r\n        return _isOperator[_tokenHolder][_operator];\r\n    }\r\n\r\n    \r\n    function isOperatorForPartition(bytes32 _partition, address _operator, address _tokenHolder) external view returns (bool) {\r\n        return  _isOperatorForPartition[_tokenHolder][_operator][_partition];\r\n    }\r\n\r\n\r\n\r\n    // *********************    TOKEN ISSUANCE\r\n\r\n    function isIssuable() external view returns (bool) {\r\n        return _isIssuable;\r\n    }\r\n\r\n\r\n    // function to mint and issue new tokens. This function is restricted to other addresses except the owner of the contract\r\n    \r\n    function issue(address _tokenHolder, uint256 _value, bytes calldata _data) external restricted {\r\n        \r\n        require(_isIssuable, \"0x55\");     // can't issue tokens for now\r\n        require(_tokenHolder != address(0), \"0x57\");        // invalid receiver\r\n        uint256 amount =  _value * granularity;                         // the destinaton address should not be an empty address\r\n        _balanceOf[_tokenHolder] += amount;                              \r\n        totalSupply += amount;                                          // add the new minted token to the total supply ---> use safemath library to avoid under and overflow\r\n        emit Issued(_tokenHolder, amount, totalSupply, block.timestamp);        // emit the issued event --> it emits the destination address, amount minted, updated total supply and the time issued\r\n        \r\n\r\n    }\r\n\r\n\r\n     // function to issue new tokens by partition\r\n\r\n   function issueByPartition(bytes32 _partition, address _tokenHolder, uint256 _value, bytes memory _data) public restricted {\r\n\r\n        require(_isIssuable, \"0x55\"); // can't issue tokens for now\r\n        uint256 amount =  _value * granularity; \r\n        _balanceOfByPartition[_tokenHolder][_partition] += amount;   // increment the partition's token balance of this token holder\r\n        _balanceOf[_tokenHolder] += amount; // increment the total balance of this token holder \r\n        totalSupply += amount; // increase the total supply\r\n        emit IssuedByPartition(_partition, msg.sender, _tokenHolder, amount, _data, \"\");\r\n    \r\n\r\n   }\r\n\r\n\r\n   // *********************    TOKEN REDEMPTION\r\n\r\n\r\n   function redeem(uint256 _value, bytes memory _data) external {\r\n\r\n       require(_verifySigner(_data));\r\n       _redeem(msg.sender, _value, _data);\r\n\r\n   }\r\n\r\n   function redeemFrom(address _tokenHolder, uint256 _value, bytes memory _data) external {\r\n\r\n        require(_verifySigner(_data));\r\n        require(allowance[_tokenHolder][msg.sender] >= _value, \"0x53\");  // insufficient allowance\r\n        _redeem(_tokenHolder, _value, _data);\r\n\r\n   }\r\n\r\n\r\n   // function to redeem by partition\r\n\r\n   function redeemByPartition(bytes32 _partition, uint256 _value, bytes memory _data) external {\r\n\r\n        require(_verifySigner(_data));  //  verify signer\r\n       _redeemByPartition(_partition, msg.sender, _value, _data, \"\");\r\n\r\n   }\r\n\r\n   \r\n\r\n   function operatorRedeemByPartition(bytes32 _partition, address _tokenHolder, uint256 _value, bytes memory _operatorData) external {\r\n\r\n       require(_verifySigner(_operatorData));           //  verify signer\r\n       if(_isControllable == true && _isController[msg.sender]) {\r\n            _redeemByPartition(_partition, _tokenHolder, _value, \"\", _operatorData);\r\n            emit ControllerRedemption(msg.sender, _tokenHolder, _value, \"\", _operatorData);\r\n       } else {\r\n            require(_isOperator[_tokenHolder][msg.sender] || _isOperatorForPartition[_tokenHolder][msg.sender][_partition], \"0x58\");     // invalid operator\r\n            _redeemByPartition(_partition, _tokenHolder, _value, \"\", _operatorData);\r\n       }\r\n\r\n   }\r\n\r\n\r\n   // *********************    TRANSFER VALIDITY\r\n\r\n    // used bytes1 instead of byte. bytes1 is now an alias for byte    \r\n\r\n    function canTransfer(address _to, uint256 _value, bytes memory _data) external view returns (bytes1 code, bytes32 reason){\r\n\r\n        if( _lockUpTokens == true) {\r\n\r\n            return (hex\"55\", \"funds locked (lockup period)\");\r\n        }\r\n\r\n        if(_to == address(0)) {\r\n            return (hex\"57\", \"invalid receiver\");\r\n        } \r\n\r\n        if(_balanceOf[msg.sender] < _value) {\r\n            return (hex\"52\", \"insufficient balance\");\r\n        }\r\n\r\n        if( _verifySigner(_data) != true) {\r\n            return (hex\"59\", \"invalid signer\");\r\n        }\r\n\r\n        return (hex\"51\", \"transfer success\");\r\n\r\n    }\r\n\r\n    function canTransferFrom(address _from, address _to, uint256 _value, bytes memory _data) external view returns (bytes1 code, bytes32 reason) {\r\n\r\n        if(_balanceOf[_from] < _value) {\r\n            return (hex\"52\", \"insufficient balance\");\r\n        }\r\n\r\n        if(allowance[_from][msg.sender] < _value) {\r\n            return (hex\"53\", \"insufficient allowance\");\r\n        }\r\n\r\n        if(_to == address(0)) {\r\n            return (hex\"57\", \"invalid receiver\");\r\n        } \r\n\r\n        if(_isOperator[_from][msg.sender]) {\r\n            return (hex\"58\", \"invalid operator\");\r\n        } \r\n\r\n        if( _verifySigner(_data) != true) {\r\n            return (hex\"59\", \"invalid signer\");\r\n        }\r\n\r\n        return (hex\"51\", \"transfer success\");\r\n\r\n    }\r\n\r\n    // can transfer by partition\r\n\r\n   function canTransferByPartition(address _from, address _to, bytes32 _partition, uint256 _value, bytes memory _data) external view returns(bytes1, bytes32, bytes32) {\r\n\r\n       if (_to == address(0)) {\r\n           return (hex\"55\", \"invalid receiver\", _partition);\r\n       }\r\n\r\n       if (_value > _balanceOfByPartition[_from][_partition]) {\r\n           return (hex\"55\", \"insufficient balance\", _partition);\r\n       }\r\n\r\n       if( _verifySigner(_data) != true) {\r\n            return (hex\"59\", \"invalid signer\", _partition);\r\n        }\r\n\r\n        return (hex\"51\", \"transfer success\", _partition);\r\n\r\n\r\n   }\r\n\r\n\r\n   /*********************************************************************************/\r\n\r\n   //function to return partitioned token balance\r\n\r\n    function totalPartitions () external view returns (bytes32[] memory) {\r\n       return _totalPartitions;\r\n    }\r\n\r\n\r\n}",
  "sourcePath": "C:\\Users\\komolehin\\Documents\\Israel Linux\\blockchain\\TANGL\\security token\\contracts\\ERC1400.sol",
  "compiler": {
    "name": "solc",
    "version": "0.8.10+commit.fc410830.Emscripten.clang"
  },
  "schemaVersion": "3.4.6",
  "updatedAt": "2022-03-24T19:06:56.589Z",
  "networkType": "ethereum",
  "devdoc": {
    "kind": "dev",
    "methods": {
      "hashTransfer((string,string,string,address),(string,string,string,address),uint256)": {
        "details": "the hashHolder function hashes the _from and _to separately as they are different Holders entirely",
        "params": {
          "_from": "The struct of the account to be debited",
          "_to": "The struct of the account to be credited"
        },
        "returns": {
          "_0": "the prefixed hash"
        }
      },
      "verifySignature(bytes,bytes32)": {
        "params": {
          "_ethHash": "The prefixed signature generated by the contract",
          "_signature": "The data generated from the signed Typed data "
        },
        "returns": {
          "_0": "the address of the signer"
        }
      }
    },
    "version": 1
  },
  "userdoc": {
    "kind": "user",
    "methods": {
      "hashTransfer((string,string,string,address),(string,string,string,address),uint256)": {
        "notice": "this function generates the signed signature prefixed with \\x19\\x01. The result will be used to verify the signer"
      },
      "verifySignature(bytes,bytes32)": {
        "notice": "verify the signer of a signature using the prefixed signed hash"
      }
    },
    "version": 1
  }
}