{
  "contractName": "ERC1400",
  "abi": [
    {
      "inputs": [
        {
          "internalType": "string",
          "name": "_name",
          "type": "string"
        },
        {
          "internalType": "string",
          "name": "_symbol",
          "type": "string"
        },
        {
          "internalType": "uint256",
          "name": "_decimals",
          "type": "uint256"
        },
        {
          "internalType": "uint256",
          "name": "_totalSupply",
          "type": "uint256"
        }
      ],
      "stateMutability": "nonpayable",
      "type": "constructor"
    },
    {
      "anonymous": false,
      "inputs": [
        {
          "indexed": false,
          "internalType": "address",
          "name": "_tokenHolder",
          "type": "address"
        },
        {
          "indexed": false,
          "internalType": "address",
          "name": "_externalAddress",
          "type": "address"
        },
        {
          "indexed": false,
          "internalType": "uint256",
          "name": "_amount",
          "type": "uint256"
        }
      ],
      "name": "Approval",
      "type": "event"
    },
    {
      "anonymous": false,
      "inputs": [
        {
          "indexed": false,
          "internalType": "bytes32",
          "name": "_name",
          "type": "bytes32"
        },
        {
          "indexed": false,
          "internalType": "bytes32",
          "name": "_documentHash",
          "type": "bytes32"
        },
        {
          "indexed": false,
          "internalType": "string",
          "name": "_uri",
          "type": "string"
        }
      ],
      "name": "Document",
      "type": "event"
    },
    {
      "anonymous": false,
      "inputs": [
        {
          "indexed": false,
          "internalType": "address",
          "name": "_to",
          "type": "address"
        },
        {
          "indexed": false,
          "internalType": "uint256",
          "name": "_amountIssued",
          "type": "uint256"
        },
        {
          "indexed": false,
          "internalType": "uint256",
          "name": "_totalSupply",
          "type": "uint256"
        },
        {
          "indexed": false,
          "internalType": "uint256",
          "name": "_timeIssued",
          "type": "uint256"
        }
      ],
      "name": "Issued",
      "type": "event"
    },
    {
      "anonymous": false,
      "inputs": [
        {
          "indexed": false,
          "internalType": "address",
          "name": "_from",
          "type": "address"
        },
        {
          "indexed": false,
          "internalType": "address",
          "name": "_to",
          "type": "address"
        },
        {
          "indexed": false,
          "internalType": "uint256",
          "name": "_amount",
          "type": "uint256"
        }
      ],
      "name": "Transfer",
      "type": "event"
    },
    {
      "anonymous": false,
      "inputs": [
        {
          "indexed": false,
          "internalType": "address",
          "name": "_investor",
          "type": "address"
        },
        {
          "indexed": false,
          "internalType": "uint256",
          "name": "_timeAdded",
          "type": "uint256"
        }
      ],
      "name": "WhiteList",
      "type": "event"
    },
    {
      "inputs": [
        {
          "internalType": "address",
          "name": "",
          "type": "address"
        }
      ],
      "name": "balanceOf",
      "outputs": [
        {
          "internalType": "uint256",
          "name": "",
          "type": "uint256"
        }
      ],
      "stateMutability": "view",
      "type": "function",
      "constant": true
    },
    {
      "inputs": [],
      "name": "decimals",
      "outputs": [
        {
          "internalType": "uint256",
          "name": "",
          "type": "uint256"
        }
      ],
      "stateMutability": "view",
      "type": "function",
      "constant": true
    },
    {
      "inputs": [
        {
          "internalType": "bytes32",
          "name": "",
          "type": "bytes32"
        }
      ],
      "name": "documents",
      "outputs": [
        {
          "internalType": "bytes32",
          "name": "_name",
          "type": "bytes32"
        },
        {
          "internalType": "bytes32",
          "name": "_documentHash",
          "type": "bytes32"
        },
        {
          "internalType": "string",
          "name": "_uri",
          "type": "string"
        }
      ],
      "stateMutability": "view",
      "type": "function",
      "constant": true
    },
    {
      "inputs": [],
      "name": "granularity",
      "outputs": [
        {
          "internalType": "uint256",
          "name": "",
          "type": "uint256"
        }
      ],
      "stateMutability": "view",
      "type": "function",
      "constant": true
    },
    {
      "inputs": [],
      "name": "name",
      "outputs": [
        {
          "internalType": "string",
          "name": "",
          "type": "string"
        }
      ],
      "stateMutability": "view",
      "type": "function",
      "constant": true
    },
    {
      "inputs": [
        {
          "internalType": "bytes32",
          "name": "",
          "type": "bytes32"
        }
      ],
      "name": "partitions",
      "outputs": [
        {
          "internalType": "uint256",
          "name": "",
          "type": "uint256"
        }
      ],
      "stateMutability": "view",
      "type": "function",
      "constant": true
    },
    {
      "inputs": [],
      "name": "symbol",
      "outputs": [
        {
          "internalType": "string",
          "name": "",
          "type": "string"
        }
      ],
      "stateMutability": "view",
      "type": "function",
      "constant": true
    },
    {
      "inputs": [],
      "name": "totalSupply",
      "outputs": [
        {
          "internalType": "uint256",
          "name": "",
          "type": "uint256"
        }
      ],
      "stateMutability": "view",
      "type": "function",
      "constant": true
    },
    {
      "inputs": [
        {
          "internalType": "address",
          "name": "_to",
          "type": "address"
        },
        {
          "internalType": "uint256",
          "name": "_amount",
          "type": "uint256"
        }
      ],
      "name": "issueTokens",
      "outputs": [],
      "stateMutability": "nonpayable",
      "type": "function"
    },
    {
      "inputs": [
        {
          "internalType": "address",
          "name": "_externalAddress",
          "type": "address"
        },
        {
          "internalType": "uint256",
          "name": "_value",
          "type": "uint256"
        }
      ],
      "name": "approve",
      "outputs": [
        {
          "internalType": "bool",
          "name": "success",
          "type": "bool"
        }
      ],
      "stateMutability": "nonpayable",
      "type": "function"
    },
    {
      "inputs": [
        {
          "internalType": "address",
          "name": "_to",
          "type": "address"
        },
        {
          "internalType": "uint256",
          "name": "_value",
          "type": "uint256"
        }
      ],
      "name": "canTransfer",
      "outputs": [
        {
          "internalType": "bytes1",
          "name": "status",
          "type": "bytes1"
        },
        {
          "internalType": "bytes32",
          "name": "statusDescription",
          "type": "bytes32"
        }
      ],
      "stateMutability": "view",
      "type": "function",
      "constant": true
    },
    {
      "inputs": [
        {
          "internalType": "address",
          "name": "_investor",
          "type": "address"
        }
      ],
      "name": "addToWhiteList",
      "outputs": [],
      "stateMutability": "nonpayable",
      "type": "function"
    },
    {
      "inputs": [
        {
          "internalType": "address",
          "name": "_to",
          "type": "address"
        },
        {
          "internalType": "uint256",
          "name": "_amount",
          "type": "uint256"
        }
      ],
      "name": "transfer",
      "outputs": [
        {
          "internalType": "bool",
          "name": "success",
          "type": "bool"
        }
      ],
      "stateMutability": "nonpayable",
      "type": "function"
    },
    {
      "inputs": [
        {
          "internalType": "address",
          "name": "_from",
          "type": "address"
        },
        {
          "internalType": "address",
          "name": "_to",
          "type": "address"
        },
        {
          "internalType": "uint256",
          "name": "_amount",
          "type": "uint256"
        }
      ],
      "name": "transferFrom",
      "outputs": [
        {
          "internalType": "bool",
          "name": "success",
          "type": "bool"
        }
      ],
      "stateMutability": "nonpayable",
      "type": "function"
    },
    {
      "inputs": [
        {
          "internalType": "bytes32",
          "name": "_name",
          "type": "bytes32"
        },
        {
          "internalType": "bytes32",
          "name": "_documentHash",
          "type": "bytes32"
        },
        {
          "internalType": "string",
          "name": "_uri",
          "type": "string"
        }
      ],
      "name": "setDocument",
      "outputs": [],
      "stateMutability": "nonpayable",
      "type": "function"
    },
    {
      "inputs": [
        {
          "internalType": "bytes32",
          "name": "_name",
          "type": "bytes32"
        }
      ],
      "name": "getDocument",
      "outputs": [
        {
          "internalType": "string",
          "name": "uri",
          "type": "string"
        },
        {
          "internalType": "bytes32",
          "name": "name",
          "type": "bytes32"
        }
      ],
      "stateMutability": "view",
      "type": "function",
      "constant": true
    },
    {
      "inputs": [
        {
          "internalType": "bytes32",
          "name": "_partition",
          "type": "bytes32"
        },
        {
          "internalType": "address",
          "name": "_tokenHolder",
          "type": "address"
        }
      ],
      "name": "balanceOfByPartition",
      "outputs": [
        {
          "internalType": "uint256",
          "name": "",
          "type": "uint256"
        }
      ],
      "stateMutability": "view",
      "type": "function",
      "constant": true
    }
  ],
  "bytecode": "0x60806040526000600560146101000a81548160ff0219169083151502179055503480156200002c57600080fd5b50604051620020af380380620020af83398181016040528101906200005291906200037c565b83600090805190602001906200006a929190620000f4565b50826001908051906020019062000083929190620000f4565b5081600481905550600454600a6200009c9190620005af565b6002819055508060038190555033600560006101000a81548173ffffffffffffffffffffffffffffffffffffffff021916908373ffffffffffffffffffffffffffffffffffffffff1602179055505050505062000665565b82805462000102906200062f565b90600052602060002090601f01602090048101928262000126576000855562000172565b82601f106200014157805160ff191683800117855562000172565b8280016001018555821562000172579182015b828111156200017157825182559160200191906001019062000154565b5b50905062000181919062000185565b5090565b5b80821115620001a057600081600090555060010162000186565b5090565b6000604051905090565b600080fd5b600080fd5b600080fd5b600080fd5b6000601f19601f8301169050919050565b7f4e487b7100000000000000000000000000000000000000000000000000000000600052604160045260246000fd5b6200020d82620001c2565b810181811067ffffffffffffffff821117156200022f576200022e620001d3565b5b80604052505050565b600062000244620001a4565b905062000252828262000202565b919050565b600067ffffffffffffffff821115620002755762000274620001d3565b5b6200028082620001c2565b9050602081019050919050565b60005b83811015620002ad57808201518184015260208101905062000290565b83811115620002bd576000848401525b50505050565b6000620002da620002d48462000257565b62000238565b905082815260208101848484011115620002f957620002f8620001bd565b5b620003068482856200028d565b509392505050565b600082601f830112620003265762000325620001b8565b5b815162000338848260208601620002c3565b91505092915050565b6000819050919050565b620003568162000341565b81146200036257600080fd5b50565b60008151905062000376816200034b565b92915050565b60008060008060808587031215620003995762000398620001ae565b5b600085015167ffffffffffffffff811115620003ba57620003b9620001b3565b5b620003c8878288016200030e565b945050602085015167ffffffffffffffff811115620003ec57620003eb620001b3565b5b620003fa878288016200030e565b93505060406200040d8782880162000365565b9250506060620004208782880162000365565b91505092959194509250565b7f4e487b7100000000000000000000000000000000000000000000000000000000600052601160045260246000fd5b60008160011c9050919050565b6000808291508390505b6001851115620004ba578086048111156200049257620004916200042c565b5b6001851615620004a25780820291505b8081029050620004b2856200045b565b945062000472565b94509492505050565b600082620004d55760019050620005a8565b81620004e55760009050620005a8565b8160018114620004fe576002811462000509576200053f565b6001915050620005a8565b60ff8411156200051e576200051d6200042c565b5b8360020a9150848211156200053857620005376200042c565b5b50620005a8565b5060208310610133831016604e8410600b8410161715620005795782820a9050838111156200057357620005726200042c565b5b620005a8565b62000588848484600162000468565b92509050818404811115620005a257620005a16200042c565b5b81810290505b9392505050565b6000620005bc8262000341565b9150620005c98362000341565b9250620005f87fffffffffffffffffffffffffffffffffffffffffffffffffffffffffffffffff8484620004c3565b905092915050565b7f4e487b7100000000000000000000000000000000000000000000000000000000600052602260045260246000fd5b600060028204905060018216806200064857607f821691505b602082108114156200065f576200065e62000600565b5b50919050565b611a3a80620006756000396000f3fe608060405234801561001057600080fd5b506004361061010b5760003560e01c806347ee0394116100a257806395d89b411161007157806395d89b41146102ce578063a9059cbb146102ec578063b10d6b411461031c578063d445781a1461034d578063d45e09c11461037d5761010b565b806347ee039414610248578063556f0dc71461026457806370a0823114610282578063940ce824146102b25761010b565b80632b2805db116100de5780632b2805db146101ac57806330e82803146101de578063313ce5671461020e578063475a9fa91461022c5761010b565b806306fdde0314610110578063095ea7b31461012e57806318160ddd1461015e57806323b872dd1461017c575b600080fd5b6101186103ae565b60405161012591906110e1565b60405180910390f35b610148600480360381019061014391906111a1565b61043c565b60405161015591906111fc565b60405180910390f35b610166610573565b6040516101739190611226565b60405180910390f35b61019660048036038101906101919190611241565b610579565b6040516101a391906111fc565b60405180910390f35b6101c660048036038101906101c191906112ca565b61069d565b6040516101d593929190611306565b60405180910390f35b6101f860048036038101906101f39190611344565b61074f565b6040516102059190611226565b60405180910390f35b6102166107aa565b6040516102239190611226565b60405180910390f35b610246600480360381019061024191906111a1565b6107b0565b005b610262600480360381019061025d9190611384565b61093f565b005b61026c610a60565b6040516102799190611226565b60405180910390f35b61029c60048036038101906102979190611384565b610a66565b6040516102a99190611226565b60405180910390f35b6102cc60048036038101906102c79190611416565b610a7e565b005b6102d6610b67565b6040516102e391906110e1565b60405180910390f35b610306600480360381019061030191906111a1565b610bf5565b60405161031391906111fc565b60405180910390f35b610336600480360381019061033191906112ca565b610c0d565b60405161034492919061148a565b60405180910390f35b610367600480360381019061036291906112ca565b610cc6565b6040516103749190611226565b60405180910390f35b610397600480360381019061039291906111a1565b610cde565b6040516103a59291906114f5565b60405180910390f35b600080546103bb9061154d565b80601f01602080910402602001604051908101604052809291908181526020018280546103e79061154d565b80156104345780601f1061040957610100808354040283529160200191610434565b820191906000526020600020905b81548152906001019060200180831161041757829003601f168201915b505050505081565b60008073ffffffffffffffffffffffffffffffffffffffff168373ffffffffffffffffffffffffffffffffffffffff1614156104ad576040517f08c379a00000000000000000000000000000000000000000000000000000000081526004016104a4906115cb565b60405180910390fd5b81600760003373ffffffffffffffffffffffffffffffffffffffff1673ffffffffffffffffffffffffffffffffffffffff16815260200190815260200160002060008573ffffffffffffffffffffffffffffffffffffffff1673ffffffffffffffffffffffffffffffffffffffff168152602001908152602001600020819055507f8c5be1e5ebec7d5bd14f71427d1e84f3dd0314c0f7b2291e5b200ac8c7c3b925338484604051610561939291906115fa565b60405180910390a16001905092915050565b60035481565b600081600760008673ffffffffffffffffffffffffffffffffffffffff1673ffffffffffffffffffffffffffffffffffffffff16815260200190815260200160002060003373ffffffffffffffffffffffffffffffffffffffff1673ffffffffffffffffffffffffffffffffffffffff16815260200190815260200160002054101561060457600080fd5b61060f848484610d50565b506000600760008673ffffffffffffffffffffffffffffffffffffffff1673ffffffffffffffffffffffffffffffffffffffff16815260200190815260200160002060003373ffffffffffffffffffffffffffffffffffffffff1673ffffffffffffffffffffffffffffffffffffffff16815260200190815260200160002081905550600190509392505050565b600a6020528060005260406000206000915090508060000154908060010154908060020180546106cc9061154d565b80601f01602080910402602001604051908101604052809291908181526020018280546106f89061154d565b80156107455780601f1061071a57610100808354040283529160200191610745565b820191906000526020600020905b81548152906001019060200180831161072857829003601f168201915b5050505050905083565b6000600b60008373ffffffffffffffffffffffffffffffffffffffff1673ffffffffffffffffffffffffffffffffffffffff168152602001908152602001600020600084815260200190815260200160002054905092915050565b60045481565b600560009054906101000a900473ffffffffffffffffffffffffffffffffffffffff1673ffffffffffffffffffffffffffffffffffffffff163373ffffffffffffffffffffffffffffffffffffffff1614610840576040517f08c379a00000000000000000000000000000000000000000000000000000000081526004016108379061167d565b60405180910390fd5b600073ffffffffffffffffffffffffffffffffffffffff168273ffffffffffffffffffffffffffffffffffffffff16141561087a57600080fd5b60006002548261088a91906116cc565b905080600860008573ffffffffffffffffffffffffffffffffffffffff1673ffffffffffffffffffffffffffffffffffffffff16815260200190815260200160002060008282546108db9190611726565b9250508190555080600360008282546108f49190611726565b925050819055507f5a1f7f24a8d262d4fd95d7324e83dcdd93b4b9911cc5f45cac5a0382242953a4838260035442604051610932949392919061177c565b60405180910390a1505050565b600660008273ffffffffffffffffffffffffffffffffffffffff1673ffffffffffffffffffffffffffffffffffffffff16815260200190815260200160002060009054906101000a900460ff16156109cc576040517f08c379a00000000000000000000000000000000000000000000000000000000081526004016109c390611833565b60405180910390fd5b6001600660008373ffffffffffffffffffffffffffffffffffffffff1673ffffffffffffffffffffffffffffffffffffffff16815260200190815260200160002060006101000a81548160ff0219169083151502179055507fcb3de9106aa8cc3efea54defa4b3ec342e8ae23607fd0255b1dcee4813f9f4bc8142604051610a55929190611853565b60405180910390a150565b60025481565b60086020528060005260406000206000915090505481565b604051806060016040528085815260200184815260200183838080601f016020809104026020016040519081016040528093929190818152602001838380828437600081840152601f19601f82011690508083019250505050505050815250600a600086815260200190815260200160002060008201518160000155602082015181600101556040820151816002019080519060200190610b20929190610fa5565b509050507fbaa12adb2b0b0e6368005ce69d1a6e1c04e8d2497bea86be6c1378e504574e6384848484604051610b5994939291906118b8565b60405180910390a150505050565b60018054610b749061154d565b80601f0160208091040260200160405190810160405280929190818152602001828054610ba09061154d565b8015610bed5780601f10610bc257610100808354040283529160200191610bed565b820191906000526020600020905b815481529060010190602001808311610bd057829003601f168201915b505050505081565b6000610c02338484610d50565b506001905092915050565b6060600080600a60008581526020019081526020016000209050806002018160000154818054610c3c9061154d565b80601f0160208091040260200160405190810160405280929190818152602001828054610c689061154d565b8015610cb55780601f10610c8a57610100808354040283529160200191610cb5565b820191906000526020600020905b815481529060010190602001808311610c9857829003601f168201915b505050505091509250925050915091565b60096020528060005260406000206000915090505481565b60008060011515600560149054906101000a900460ff1615151415610d48577f55000000000000000000000000000000000000000000000000000000000000007f66756e6473206c6f636b656420286c6f636b757020706572696f64290000000091509150610d49565b5b9250929050565b60008073ffffffffffffffffffffffffffffffffffffffff168373ffffffffffffffffffffffffffffffffffffffff161415610dc1576040517f08c379a0000000000000000000000000000000000000000000000000000000008152600401610db890611944565b60405180910390fd5b81600860008673ffffffffffffffffffffffffffffffffffffffff1673ffffffffffffffffffffffffffffffffffffffff168152602001908152602001600020541015610e43576040517f08c379a0000000000000000000000000000000000000000000000000000000008152600401610e3a906119b0565b60405180910390fd5b81600860008673ffffffffffffffffffffffffffffffffffffffff1673ffffffffffffffffffffffffffffffffffffffff16815260200190815260200160002054610e8e91906119d0565b600860008673ffffffffffffffffffffffffffffffffffffffff1673ffffffffffffffffffffffffffffffffffffffff1681526020019081526020016000208190555081600860008573ffffffffffffffffffffffffffffffffffffffff1673ffffffffffffffffffffffffffffffffffffffff16815260200190815260200160002054610f1c9190611726565b600860008573ffffffffffffffffffffffffffffffffffffffff1673ffffffffffffffffffffffffffffffffffffffff168152602001908152602001600020819055507fddf252ad1be2c89b69c2b068fc378daa952ba7f163c4a11628f55a4df523b3ef848484604051610f92939291906115fa565b60405180910390a1600190509392505050565b828054610fb19061154d565b90600052602060002090601f016020900481019282610fd3576000855561101a565b82601f10610fec57805160ff191683800117855561101a565b8280016001018555821561101a579182015b82811115611019578251825591602001919060010190610ffe565b5b509050611027919061102b565b5090565b5b8082111561104457600081600090555060010161102c565b5090565b600081519050919050565b600082825260208201905092915050565b60005b83811015611082578082015181840152602081019050611067565b83811115611091576000848401525b50505050565b6000601f19601f8301169050919050565b60006110b382611048565b6110bd8185611053565b93506110cd818560208601611064565b6110d681611097565b840191505092915050565b600060208201905081810360008301526110fb81846110a8565b905092915050565b600080fd5b600080fd5b600073ffffffffffffffffffffffffffffffffffffffff82169050919050565b60006111388261110d565b9050919050565b6111488161112d565b811461115357600080fd5b50565b6000813590506111658161113f565b92915050565b6000819050919050565b61117e8161116b565b811461118957600080fd5b50565b60008135905061119b81611175565b92915050565b600080604083850312156111b8576111b7611103565b5b60006111c685828601611156565b92505060206111d78582860161118c565b9150509250929050565b60008115159050919050565b6111f6816111e1565b82525050565b600060208201905061121160008301846111ed565b92915050565b6112208161116b565b82525050565b600060208201905061123b6000830184611217565b92915050565b60008060006060848603121561125a57611259611103565b5b600061126886828701611156565b935050602061127986828701611156565b925050604061128a8682870161118c565b9150509250925092565b6000819050919050565b6112a781611294565b81146112b257600080fd5b50565b6000813590506112c48161129e565b92915050565b6000602082840312156112e0576112df611103565b5b60006112ee848285016112b5565b91505092915050565b61130081611294565b82525050565b600060608201905061131b60008301866112f7565b61132860208301856112f7565b818103604083015261133a81846110a8565b9050949350505050565b6000806040838503121561135b5761135a611103565b5b6000611369858286016112b5565b925050602061137a85828601611156565b9150509250929050565b60006020828403121561139a57611399611103565b5b60006113a884828501611156565b91505092915050565b600080fd5b600080fd5b600080fd5b60008083601f8401126113d6576113d56113b1565b5b8235905067ffffffffffffffff8111156113f3576113f26113b6565b5b60208301915083600182028301111561140f5761140e6113bb565b5b9250929050565b600080600080606085870312156114305761142f611103565b5b600061143e878288016112b5565b945050602061144f878288016112b5565b935050604085013567ffffffffffffffff8111156114705761146f611108565b5b61147c878288016113c0565b925092505092959194509250565b600060408201905081810360008301526114a481856110a8565b90506114b360208301846112f7565b9392505050565b60007fff0000000000000000000000000000000000000000000000000000000000000082169050919050565b6114ef816114ba565b82525050565b600060408201905061150a60008301856114e6565b61151760208301846112f7565b9392505050565b7f4e487b7100000000000000000000000000000000000000000000000000000000600052602260045260246000fd5b6000600282049050600182168061156557607f821691505b602082108114156115795761157861151e565b5b50919050565b7f3536000000000000000000000000000000000000000000000000000000000000600082015250565b60006115b5600283611053565b91506115c08261157f565b602082019050919050565b600060208201905081810360008301526115e4816115a8565b9050919050565b6115f48161112d565b82525050565b600060608201905061160f60008301866115eb565b61161c60208301856115eb565b6116296040830184611217565b949350505050565b7f3078353600000000000000000000000000000000000000000000000000000000600082015250565b6000611667600483611053565b915061167282611631565b602082019050919050565b600060208201905081810360008301526116968161165a565b9050919050565b7f4e487b7100000000000000000000000000000000000000000000000000000000600052601160045260246000fd5b60006116d78261116b565b91506116e28361116b565b9250817fffffffffffffffffffffffffffffffffffffffffffffffffffffffffffffffff048311821515161561171b5761171a61169d565b5b828202905092915050565b60006117318261116b565b915061173c8361116b565b9250827fffffffffffffffffffffffffffffffffffffffffffffffffffffffffffffffff038211156117715761177061169d565b5b828201905092915050565b600060808201905061179160008301876115eb565b61179e6020830186611217565b6117ab6040830185611217565b6117b86060830184611217565b95945050505050565b7f63616e27742077686974656c69737420616e2061646472657373206d6f72652060008201527f7468616e206f6e63650000000000000000000000000000000000000000000000602082015250565b600061181d602983611053565b9150611828826117c1565b604082019050919050565b6000602082019050818103600083015261184c81611810565b9050919050565b600060408201905061186860008301856115eb565b6118756020830184611217565b9392505050565b82818337600083830152505050565b60006118978385611053565b93506118a483858461187c565b6118ad83611097565b840190509392505050565b60006060820190506118cd60008301876112f7565b6118da60208301866112f7565b81810360408301526118ed81848661188b565b905095945050505050565b7f63616e2774207472616e7366657220746f207a65726f20616464726573730000600082015250565b600061192e601e83611053565b9150611939826118f8565b602082019050919050565b6000602082019050818103600083015261195d81611921565b9050919050565b7f696e73756666696369656e7420616d6f756e7400000000000000000000000000600082015250565b600061199a601383611053565b91506119a582611964565b602082019050919050565b600060208201905081810360008301526119c98161198d565b9050919050565b60006119db8261116b565b91506119e68361116b565b9250828210156119f9576119f861169d565b5b82820390509291505056fea26469706673582212200a68389fefd10f40ffc4c21c204e234c75d4643edab6e4ff9624b08a29246e3764736f6c634300080a0033",
  "immutableReferences": {},
  "source": "// solidity version\r\n\r\npragma solidity 0.8.10;\r\n\r\n\r\ncontract ERC1400 {\r\n\r\n\r\n    /************************************************ Variable Declarations and Initaalizations ************************************/\r\n\r\n\r\n\r\n     // *************************************** Strings ********************************************************* //\r\n\r\n    string public name;   // token name\r\n    string public symbol; // token symbol\r\n\r\n\r\n\r\n    // *************************************** Integers ********************************************************* //\r\n\r\n    uint256 public granularity;   // token granularity\r\n    uint256 public totalSupply; // token total supply\r\n    uint256 public decimals; //token decimals\r\n\r\n\r\n    // *************************************** Addresses ********************************************************* //\r\n\r\n    address private owner;  // set the address of the owner to be private\r\n\r\n\r\n\r\n     // *************************************** Booleans ********************************************************* //\r\n\r\n    bool private lockUpTokens = false; // token lockup indicator\r\n    bool private isIssuable;    //  manage when a token can be issued\r\n    \r\n\r\n\r\n     // *************************************** Structs ********************************************************* //\r\n\r\n    struct Doc {\r\n        bytes32 _name;\r\n        bytes32 _documentHash;\r\n        string _uri;\r\n        \r\n    } // struct to handle the documents\r\n\r\n\r\n\r\n     // *************************************** Events ********************************************************* //\r\n\r\n    event WhiteList (address _investor, uint256 _timeAdded);                                                 // event to be emitted whenever an address is whitelisted\r\n    event Issued (address _to, uint256 _amountIssued, uint256 _totalSupply, uint256 _timeIssued);            // event to be emitted whenever new tokens are minted\r\n    event Transfer (address _from, address _to, uint256 _amount);                                            // event to be emitted whenever token is been transferred\r\n    event Approval (address _tokenHolder, address _externalAddress, uint256 _amount);                        // event to be emitted whenever an external address is approved such as escrows\r\n    event Document (bytes32 _name, bytes32 _documentHash, string _uri);                                        // event to be emitted whenever a document is put on-chain\r\n\r\n\r\n\r\n     // *************************************** Mappings ********************************************************* //\r\n\r\n    mapping(address => bool) private whitelist;                             //  whitelist map\r\n    mapping(address => mapping(address => uint256)) private allowance;      // set the address of the allowed external operator\r\n    mapping(address => uint256) public balanceOf;                           // map to store the token balances of token holders\r\n    mapping(bytes32 => uint256) public partitions;                          // map to store the partitions\r\n    mapping(bytes32 => Doc) public documents;                               // map to store the documents\r\n    mapping(address => mapping(bytes32 => uint256)) internal _balanceOfByPartition;        // map to store the partitioned token balance of a token holder \r\n\r\n\r\n\r\n    constructor (string memory _name, string memory _symbol, uint256 _decimals, uint256 _totalSupply) {\r\n\r\n        name = _name;\r\n        symbol = _symbol;\r\n        decimals = _decimals;\r\n        granularity = 10 ** decimals; // for token decimals \r\n        totalSupply = _totalSupply;\r\n        owner = msg.sender;\r\n\r\n    }\r\n\r\n    modifier restricted {\r\n        require(msg.sender == owner, \"0x56\");\r\n        _;\r\n    }\r\n\r\n    // *************************************** Internal functions ********************************************************* //\r\n\r\n    // 1. internal funtion to transfer tokens from an address to another address\r\n     function _transfer(address _from, address _to, uint256 _amount) internal returns (bool success) {\r\n\r\n        require(_to != address(0),  \"can't transfer to zero address\");\r\n        require(balanceOf[_from] >= _amount, \"insufficient amount\");\r\n\r\n        balanceOf[_from] = balanceOf[_from] - _amount;                  // reduce the sender's balance --> use safemath\r\n        balanceOf[_to] = balanceOf[_to] + _amount;                      // increase the value of the receiver ---> usesafemath\r\n        emit Transfer (_from, _to, _amount);                            // emit the Tranfer event\r\n        return true;\r\n     }\r\n\r\n    // function to mint and issue new tokens. This function is restricted to other addresses except the owner of the contract\r\n    function  issueTokens(address _to, uint256 _amount) external restricted {\r\n        \r\n        \r\n        require(_to != address(0));\r\n        uint256 amount =  _amount * granularity;                         // the destinaton address should not be an empty address\r\n        balanceOf[_to] += amount;                                       // use safemath library to avoid under and overflow\r\n        totalSupply += amount;                                          // add the new minted token to the total supply ---> use safemath library to avoid under and overflow\r\n        emit Issued(_to, amount, totalSupply, block.timestamp);        // emit the issued event --> it emits the destination address, amount minted, updated total supply and the time issued\r\n        \r\n\r\n    }\r\n\r\n\r\n    // approve tokens to external operators\r\n    function approve(address _externalAddress, uint256 _value) external returns (bool success) {\r\n\r\n        require(_externalAddress != address(0), \"56\");                  //0x56   invalid external address\r\n        allowance[msg.sender][_externalAddress] = _value;              // use safemath function here to avoid under and overflow\r\n        emit Approval(msg.sender, _externalAddress, _value);            // emit the approved event\r\n        return true;\r\n\r\n    }\r\n\r\n\r\n\r\n    // used bytes1 instead of byte as bytes1 is now an alias for byte    \r\n    function canTransfer(address _to, uint256 _value) public view returns (bytes1 status, bytes32 statusDescription){\r\n\r\n        if( lockUpTokens == true) {\r\n\r\n            return (hex\"55\", \"funds locked (lockup period)\");\r\n        } \r\n\r\n    }\r\n\r\n\r\n\r\n    // function to add an address to whitelist\r\n    function addToWhiteList(address _investor) external {\r\n        \r\n        require(!whitelist[_investor], \"can't whitelist an address more than once\");\r\n        whitelist[_investor] = true;\r\n        emit WhiteList(_investor, block.timestamp);\r\n\r\n    }\r\n\r\n    // function to transfer tokens. the internal transfer function will be called here\r\n    function transfer(address _to, uint256 _amount) public returns (bool success) {\r\n\r\n        _transfer(msg.sender, _to, _amount);\r\n        return true;\r\n\r\n    }\r\n\r\n    // function transferFrom. The function for external addresses such as escrows to move tokens on behalf of the token holder\r\n    \r\n    function transferFrom(address _from, address _to, uint256 _amount) external returns (bool success) {\r\n\r\n        // _from is the current token holder\r\n        // _to is the destinantion address\r\n        //  msg.sender is the external address calling this function\r\n        // the token holder should have at least the amount of tokens to be transferred ----> this check has been implemented in the internal _transfer function\r\n        require(allowance[_from][msg.sender] >= _amount);           // the allowed value approved by the token holder must not be less than the amount\r\n        _transfer(_from, _to, _amount);                             // transfer the tokens\r\n\r\n        // reset the allowance value\r\n\r\n        allowance[_from][msg.sender] =  0;   \r\n        return true;           \r\n\r\n    }  \r\n\r\n\r\n\r\n    /***************  Document *****************/\r\n\r\n    // set document\r\n\r\n    function setDocument (bytes32 _name , bytes32 _documentHash, string calldata _uri) external  {\r\n        \r\n        documents[_name] = Doc(_name, _documentHash, _uri);     // save the document\r\n        emit Document(_name, _documentHash, _uri);              // emit event when document is set on chain\r\n\r\n    }\r\n\r\n    // get document\r\n    \r\n    function getDocument (bytes32 _name) external view returns (string memory uri, bytes32 name) {\r\n\r\n        Doc storage _document = documents[_name];\r\n\r\n        return (_document._uri, _document._name);  // return the document uri and name\r\n\r\n    }\r\n\r\n   \r\n   /************************************* Partitions ****************************/\r\n\r\n   // function to return partitioned token balance\r\n\r\n   function balanceOfByPartition(bytes32 _partition, address _tokenHolder) external view returns (uint256) {\r\n       return _balanceOfByPartition[_tokenHolder][_partition];\r\n   }    \r\n\r\n\r\n}",
  "sourcePath": "C:\\Users\\Uju Nobei\\Documents\\Israel Linux\\blockchain\\TANGL\\security token\\contracts\\ERC1400.sol",
  "compiler": {
    "name": "solc",
    "version": "0.8.10+commit.fc410830.Emscripten.clang"
  },
  "schemaVersion": "3.4.3",
  "updatedAt": "2022-01-28T12:46:21.418Z",
  "networkType": "ethereum",
  "devdoc": {
    "kind": "dev",
    "methods": {},
    "version": 1
  },
  "userdoc": {
    "kind": "user",
    "methods": {},
    "version": 1
  }
}