{
  "contractName": "ERC1400",
  "abi": [
    {
      "inputs": [
        {
          "internalType": "string",
          "name": "_name",
          "type": "string"
        },
        {
          "internalType": "string",
          "name": "_symbol",
          "type": "string"
        },
        {
          "internalType": "uint256",
          "name": "_decimals",
          "type": "uint256"
        },
        {
          "internalType": "uint256",
          "name": "_totalSupply",
          "type": "uint256"
        }
      ],
      "stateMutability": "nonpayable",
      "type": "constructor"
    },
    {
      "anonymous": false,
      "inputs": [
        {
          "indexed": false,
          "internalType": "address",
          "name": "_tokenHolder",
          "type": "address"
        },
        {
          "indexed": false,
          "internalType": "address",
          "name": "_externalAddress",
          "type": "address"
        },
        {
          "indexed": false,
          "internalType": "uint256",
          "name": "_amount",
          "type": "uint256"
        }
      ],
      "name": "Approval",
      "type": "event"
    },
    {
      "anonymous": false,
      "inputs": [
        {
          "indexed": true,
          "internalType": "address",
          "name": "_operator",
          "type": "address"
        },
        {
          "indexed": true,
          "internalType": "address",
          "name": "_tokenHolder",
          "type": "address"
        }
      ],
      "name": "AuthorizedOperator",
      "type": "event"
    },
    {
      "anonymous": false,
      "inputs": [
        {
          "indexed": true,
          "internalType": "bytes32",
          "name": "_partition",
          "type": "bytes32"
        },
        {
          "indexed": true,
          "internalType": "address",
          "name": "_operator",
          "type": "address"
        },
        {
          "indexed": true,
          "internalType": "address",
          "name": "_tokenHolder",
          "type": "address"
        }
      ],
      "name": "AuthorizedOperatorByPartition",
      "type": "event"
    },
    {
      "anonymous": false,
      "inputs": [
        {
          "indexed": false,
          "internalType": "bytes32",
          "name": "_name",
          "type": "bytes32"
        },
        {
          "indexed": false,
          "internalType": "bytes32",
          "name": "_documentHash",
          "type": "bytes32"
        },
        {
          "indexed": false,
          "internalType": "string",
          "name": "_uri",
          "type": "string"
        }
      ],
      "name": "Document",
      "type": "event"
    },
    {
      "anonymous": false,
      "inputs": [
        {
          "indexed": false,
          "internalType": "address",
          "name": "_to",
          "type": "address"
        },
        {
          "indexed": false,
          "internalType": "uint256",
          "name": "_amountIssued",
          "type": "uint256"
        },
        {
          "indexed": false,
          "internalType": "uint256",
          "name": "_totalSupply",
          "type": "uint256"
        },
        {
          "indexed": false,
          "internalType": "uint256",
          "name": "_timeIssued",
          "type": "uint256"
        }
      ],
      "name": "Issued",
      "type": "event"
    },
    {
      "anonymous": false,
      "inputs": [
        {
          "indexed": true,
          "internalType": "address",
          "name": "_operator",
          "type": "address"
        },
        {
          "indexed": true,
          "internalType": "address",
          "name": "_tokenHolder",
          "type": "address"
        }
      ],
      "name": "RevokedOperator",
      "type": "event"
    },
    {
      "anonymous": false,
      "inputs": [
        {
          "indexed": true,
          "internalType": "bytes32",
          "name": "_partition",
          "type": "bytes32"
        },
        {
          "indexed": true,
          "internalType": "address",
          "name": "_operator",
          "type": "address"
        },
        {
          "indexed": true,
          "internalType": "address",
          "name": "_tokenHolder",
          "type": "address"
        }
      ],
      "name": "RevokedOperatorByPartition",
      "type": "event"
    },
    {
      "anonymous": false,
      "inputs": [
        {
          "indexed": false,
          "internalType": "address",
          "name": "_from",
          "type": "address"
        },
        {
          "indexed": false,
          "internalType": "address",
          "name": "_to",
          "type": "address"
        },
        {
          "indexed": false,
          "internalType": "uint256",
          "name": "_amount",
          "type": "uint256"
        }
      ],
      "name": "Transfer",
      "type": "event"
    },
    {
      "anonymous": false,
      "inputs": [
        {
          "indexed": true,
          "internalType": "bytes32",
          "name": "_fromPartition",
          "type": "bytes32"
        },
        {
          "indexed": false,
          "internalType": "address",
          "name": "_operator",
          "type": "address"
        },
        {
          "indexed": true,
          "internalType": "address",
          "name": "_from",
          "type": "address"
        },
        {
          "indexed": true,
          "internalType": "address",
          "name": "_to",
          "type": "address"
        },
        {
          "indexed": false,
          "internalType": "uint256",
          "name": "_value",
          "type": "uint256"
        },
        {
          "indexed": false,
          "internalType": "bytes",
          "name": "_data",
          "type": "bytes"
        },
        {
          "indexed": false,
          "internalType": "bytes",
          "name": "_operatorData",
          "type": "bytes"
        }
      ],
      "name": "TransferByPartition",
      "type": "event"
    },
    {
      "anonymous": false,
      "inputs": [
        {
          "indexed": false,
          "internalType": "address",
          "name": "_investor",
          "type": "address"
        },
        {
          "indexed": false,
          "internalType": "uint256",
          "name": "_timeAdded",
          "type": "uint256"
        }
      ],
      "name": "WhiteList",
      "type": "event"
    },
    {
      "inputs": [],
      "name": "decimals",
      "outputs": [
        {
          "internalType": "uint256",
          "name": "",
          "type": "uint256"
        }
      ],
      "stateMutability": "view",
      "type": "function",
      "constant": true
    },
    {
      "inputs": [
        {
          "internalType": "bytes32",
          "name": "",
          "type": "bytes32"
        }
      ],
      "name": "documents",
      "outputs": [
        {
          "internalType": "bytes32",
          "name": "_name",
          "type": "bytes32"
        },
        {
          "internalType": "bytes32",
          "name": "_documentHash",
          "type": "bytes32"
        },
        {
          "internalType": "string",
          "name": "_uri",
          "type": "string"
        }
      ],
      "stateMutability": "view",
      "type": "function",
      "constant": true
    },
    {
      "inputs": [],
      "name": "granularity",
      "outputs": [
        {
          "internalType": "uint256",
          "name": "",
          "type": "uint256"
        }
      ],
      "stateMutability": "view",
      "type": "function",
      "constant": true
    },
    {
      "inputs": [],
      "name": "name",
      "outputs": [
        {
          "internalType": "string",
          "name": "",
          "type": "string"
        }
      ],
      "stateMutability": "view",
      "type": "function",
      "constant": true
    },
    {
      "inputs": [
        {
          "internalType": "bytes32",
          "name": "",
          "type": "bytes32"
        }
      ],
      "name": "partitions",
      "outputs": [
        {
          "internalType": "uint256",
          "name": "",
          "type": "uint256"
        }
      ],
      "stateMutability": "view",
      "type": "function",
      "constant": true
    },
    {
      "inputs": [],
      "name": "symbol",
      "outputs": [
        {
          "internalType": "string",
          "name": "",
          "type": "string"
        }
      ],
      "stateMutability": "view",
      "type": "function",
      "constant": true
    },
    {
      "inputs": [],
      "name": "totalSupply",
      "outputs": [
        {
          "internalType": "uint256",
          "name": "",
          "type": "uint256"
        }
      ],
      "stateMutability": "view",
      "type": "function",
      "constant": true
    },
    {
      "inputs": [
        {
          "internalType": "address",
          "name": "_to",
          "type": "address"
        },
        {
          "internalType": "uint256",
          "name": "_amount",
          "type": "uint256"
        }
      ],
      "name": "issueTokens",
      "outputs": [],
      "stateMutability": "nonpayable",
      "type": "function"
    },
    {
      "inputs": [
        {
          "internalType": "address",
          "name": "_externalAddress",
          "type": "address"
        },
        {
          "internalType": "uint256",
          "name": "_value",
          "type": "uint256"
        }
      ],
      "name": "approve",
      "outputs": [
        {
          "internalType": "bool",
          "name": "success",
          "type": "bool"
        }
      ],
      "stateMutability": "nonpayable",
      "type": "function"
    },
    {
      "inputs": [
        {
          "internalType": "address",
          "name": "_tokenHolder",
          "type": "address"
        }
      ],
      "name": "balanceOf",
      "outputs": [
        {
          "internalType": "uint256",
          "name": "",
          "type": "uint256"
        }
      ],
      "stateMutability": "view",
      "type": "function",
      "constant": true
    },
    {
      "inputs": [
        {
          "internalType": "address",
          "name": "_to",
          "type": "address"
        },
        {
          "internalType": "uint256",
          "name": "_value",
          "type": "uint256"
        }
      ],
      "name": "canTransfer",
      "outputs": [
        {
          "internalType": "bytes1",
          "name": "status",
          "type": "bytes1"
        },
        {
          "internalType": "bytes32",
          "name": "statusDescription",
          "type": "bytes32"
        }
      ],
      "stateMutability": "view",
      "type": "function",
      "constant": true
    },
    {
      "inputs": [
        {
          "internalType": "address",
          "name": "_investor",
          "type": "address"
        }
      ],
      "name": "addToWhiteList",
      "outputs": [],
      "stateMutability": "nonpayable",
      "type": "function"
    },
    {
      "inputs": [
        {
          "internalType": "address",
          "name": "_to",
          "type": "address"
        },
        {
          "internalType": "uint256",
          "name": "_amount",
          "type": "uint256"
        }
      ],
      "name": "transfer",
      "outputs": [
        {
          "internalType": "bool",
          "name": "success",
          "type": "bool"
        }
      ],
      "stateMutability": "nonpayable",
      "type": "function"
    },
    {
      "inputs": [
        {
          "internalType": "address",
          "name": "_from",
          "type": "address"
        },
        {
          "internalType": "address",
          "name": "_to",
          "type": "address"
        },
        {
          "internalType": "uint256",
          "name": "_amount",
          "type": "uint256"
        }
      ],
      "name": "transferFrom",
      "outputs": [
        {
          "internalType": "bool",
          "name": "success",
          "type": "bool"
        }
      ],
      "stateMutability": "nonpayable",
      "type": "function"
    },
    {
      "inputs": [
        {
          "internalType": "bytes32",
          "name": "_name",
          "type": "bytes32"
        },
        {
          "internalType": "bytes32",
          "name": "_documentHash",
          "type": "bytes32"
        },
        {
          "internalType": "string",
          "name": "_uri",
          "type": "string"
        }
      ],
      "name": "setDocument",
      "outputs": [],
      "stateMutability": "nonpayable",
      "type": "function"
    },
    {
      "inputs": [
        {
          "internalType": "bytes32",
          "name": "_name",
          "type": "bytes32"
        }
      ],
      "name": "getDocument",
      "outputs": [
        {
          "internalType": "string",
          "name": "uri",
          "type": "string"
        },
        {
          "internalType": "bytes32",
          "name": "name",
          "type": "bytes32"
        }
      ],
      "stateMutability": "view",
      "type": "function",
      "constant": true
    },
    {
      "inputs": [
        {
          "internalType": "address",
          "name": "_from",
          "type": "address"
        },
        {
          "internalType": "address",
          "name": "_operator",
          "type": "address"
        }
      ],
      "name": "isOperator",
      "outputs": [
        {
          "internalType": "bool",
          "name": "",
          "type": "bool"
        }
      ],
      "stateMutability": "nonpayable",
      "type": "function"
    },
    {
      "inputs": [
        {
          "internalType": "address",
          "name": "_operator",
          "type": "address"
        }
      ],
      "name": "authorizeOperator",
      "outputs": [],
      "stateMutability": "nonpayable",
      "type": "function"
    },
    {
      "inputs": [
        {
          "internalType": "address",
          "name": "_operator",
          "type": "address"
        }
      ],
      "name": "revokeOperator",
      "outputs": [],
      "stateMutability": "nonpayable",
      "type": "function"
    },
    {
      "inputs": [
        {
          "internalType": "address",
          "name": "_from",
          "type": "address"
        },
        {
          "internalType": "address",
          "name": "_operator",
          "type": "address"
        },
        {
          "internalType": "bytes32",
          "name": "_partition",
          "type": "bytes32"
        }
      ],
      "name": "isOperatorForPartition",
      "outputs": [
        {
          "internalType": "bool",
          "name": "",
          "type": "bool"
        }
      ],
      "stateMutability": "nonpayable",
      "type": "function"
    },
    {
      "inputs": [
        {
          "internalType": "address",
          "name": "_operator",
          "type": "address"
        },
        {
          "internalType": "bytes32",
          "name": "_partition",
          "type": "bytes32"
        }
      ],
      "name": "authorizeOperatorByPartition",
      "outputs": [],
      "stateMutability": "nonpayable",
      "type": "function"
    },
    {
      "inputs": [
        {
          "internalType": "address",
          "name": "_operator",
          "type": "address"
        },
        {
          "internalType": "bytes32",
          "name": "_partition",
          "type": "bytes32"
        }
      ],
      "name": "revokeOperatorByPartition",
      "outputs": [],
      "stateMutability": "nonpayable",
      "type": "function"
    },
    {
      "inputs": [
        {
          "internalType": "bytes32",
          "name": "_partition",
          "type": "bytes32"
        },
        {
          "internalType": "address",
          "name": "_tokenHolder",
          "type": "address"
        }
      ],
      "name": "balanceOfByPartition",
      "outputs": [
        {
          "internalType": "uint256",
          "name": "",
          "type": "uint256"
        }
      ],
      "stateMutability": "view",
      "type": "function",
      "constant": true
    },
    {
      "inputs": [
        {
          "internalType": "address",
          "name": "_tokenHolder",
          "type": "address"
        }
      ],
      "name": "partitionsOf",
      "outputs": [
        {
          "internalType": "bytes32[]",
          "name": "",
          "type": "bytes32[]"
        }
      ],
      "stateMutability": "view",
      "type": "function",
      "constant": true
    },
    {
      "inputs": [
        {
          "internalType": "bytes32",
          "name": "_partition",
          "type": "bytes32"
        },
        {
          "internalType": "address",
          "name": "_to",
          "type": "address"
        },
        {
          "internalType": "uint256",
          "name": "_value",
          "type": "uint256"
        },
        {
          "internalType": "bytes",
          "name": "_data",
          "type": "bytes"
        }
      ],
      "name": "transferByPartition",
      "outputs": [
        {
          "internalType": "bytes32",
          "name": "",
          "type": "bytes32"
        }
      ],
      "stateMutability": "nonpayable",
      "type": "function"
    },
    {
      "inputs": [
        {
          "internalType": "bytes32",
          "name": "_partition",
          "type": "bytes32"
        },
        {
          "internalType": "address",
          "name": "_from",
          "type": "address"
        },
        {
          "internalType": "address",
          "name": "_to",
          "type": "address"
        },
        {
          "internalType": "uint256",
          "name": "_value",
          "type": "uint256"
        },
        {
          "internalType": "bytes",
          "name": "_data",
          "type": "bytes"
        },
        {
          "internalType": "bytes",
          "name": "_operatorData",
          "type": "bytes"
        }
      ],
      "name": "operatorTransferByPartition",
      "outputs": [
        {
          "internalType": "bytes32",
          "name": "",
          "type": "bytes32"
        }
      ],
      "stateMutability": "nonpayable",
      "type": "function"
    }
  ],
  "bytecode": "0x60806040526000600560146101000a81548160ff0219169083151502179055503480156200002c57600080fd5b50604051620030da380380620030da83398181016040528101906200005291906200037c565b83600090805190602001906200006a929190620000f4565b50826001908051906020019062000083929190620000f4565b5081600481905550600454600a6200009c9190620005af565b6002819055508060038190555033600560006101000a81548173ffffffffffffffffffffffffffffffffffffffff021916908373ffffffffffffffffffffffffffffffffffffffff1602179055505050505062000665565b82805462000102906200062f565b90600052602060002090601f01602090048101928262000126576000855562000172565b82601f106200014157805160ff191683800117855562000172565b8280016001018555821562000172579182015b828111156200017157825182559160200191906001019062000154565b5b50905062000181919062000185565b5090565b5b80821115620001a057600081600090555060010162000186565b5090565b6000604051905090565b600080fd5b600080fd5b600080fd5b600080fd5b6000601f19601f8301169050919050565b7f4e487b7100000000000000000000000000000000000000000000000000000000600052604160045260246000fd5b6200020d82620001c2565b810181811067ffffffffffffffff821117156200022f576200022e620001d3565b5b80604052505050565b600062000244620001a4565b905062000252828262000202565b919050565b600067ffffffffffffffff821115620002755762000274620001d3565b5b6200028082620001c2565b9050602081019050919050565b60005b83811015620002ad57808201518184015260208101905062000290565b83811115620002bd576000848401525b50505050565b6000620002da620002d48462000257565b62000238565b905082815260208101848484011115620002f957620002f8620001bd565b5b620003068482856200028d565b509392505050565b600082601f830112620003265762000325620001b8565b5b815162000338848260208601620002c3565b91505092915050565b6000819050919050565b620003568162000341565b81146200036257600080fd5b50565b60008151905062000376816200034b565b92915050565b60008060008060808587031215620003995762000398620001ae565b5b600085015167ffffffffffffffff811115620003ba57620003b9620001b3565b5b620003c8878288016200030e565b945050602085015167ffffffffffffffff811115620003ec57620003eb620001b3565b5b620003fa878288016200030e565b93505060406200040d8782880162000365565b9250506060620004208782880162000365565b91505092959194509250565b7f4e487b7100000000000000000000000000000000000000000000000000000000600052601160045260246000fd5b60008160011c9050919050565b6000808291508390505b6001851115620004ba578086048111156200049257620004916200042c565b5b6001851615620004a25780820291505b8081029050620004b2856200045b565b945062000472565b94509492505050565b600082620004d55760019050620005a8565b81620004e55760009050620005a8565b8160018114620004fe576002811462000509576200053f565b6001915050620005a8565b60ff8411156200051e576200051d6200042c565b5b8360020a9150848211156200053857620005376200042c565b5b50620005a8565b5060208310610133831016604e8410600b8410161715620005795782820a9050838111156200057357620005726200042c565b5b620005a8565b62000588848484600162000468565b92509050818404811115620005a257620005a16200042c565b5b81810290505b9392505050565b6000620005bc8262000341565b9150620005c98362000341565b9250620005f87fffffffffffffffffffffffffffffffffffffffffffffffffffffffffffffffff8484620004c3565b905092915050565b7f4e487b7100000000000000000000000000000000000000000000000000000000600052602260045260246000fd5b600060028204905060018216806200064857607f821691505b602082108114156200065f576200065e62000600565b5b50919050565b612a6580620006756000396000f3fe608060405234801561001057600080fd5b506004361061018e5760003560e01c8063740ab8f4116100de578063a9059cbb11610097578063d445781a11610071578063d445781a146104e4578063d45e09c114610514578063f3d490db14610545578063fad8b32a146105755761018e565b8063a9059cbb14610453578063b10d6b4114610483578063b6363cf2146104b45761018e565b8063740ab8f4146103815780638c0dee9c146103b1578063940ce824146103e1578063959b8c3f146103fd57806395d89b41146104195780639bede74d146104375761018e565b806330e828031161014b57806347ee03941161012557806347ee0394146102e7578063556f0dc71461030357806370736e791461032157806370a08231146103515761018e565b806330e828031461027d578063313ce567146102ad578063475a9fa9146102cb5761018e565b806306fdde0314610193578063095ea7b3146101b157806318160ddd146101e15780631b1e365f146101ff57806323b872dd1461021b5780632b2805db1461024b575b600080fd5b61019b610591565b6040516101a89190611d0b565b60405180910390f35b6101cb60048036038101906101c69190611dcb565b61061f565b6040516101d89190611e26565b60405180910390f35b6101e9610756565b6040516101f69190611e50565b60405180910390f35b61021960048036038101906102149190611ea1565b61075c565b005b61023560048036038101906102309190611ee1565b610861565b6040516102429190611e26565b60405180910390f35b61026560048036038101906102609190611f34565b610985565b60405161027493929190611f70565b60405180910390f35b61029760048036038101906102929190611fae565b610a37565b6040516102a49190611e50565b60405180910390f35b6102b5610a92565b6040516102c29190611e50565b60405180910390f35b6102e560048036038101906102e09190611dcb565b610a98565b005b61030160048036038101906102fc9190611fee565b610c27565b005b61030b610d48565b6040516103189190611e50565b60405180910390f35b61033b6004803603810190610336919061201b565b610d4e565b6040516103489190611e26565b60405180910390f35b61036b60048036038101906103669190611fee565b610df4565b6040516103789190611e50565b60405180910390f35b61039b60048036038101906103969190611fee565b610e3d565b6040516103a8919061212c565b60405180910390f35b6103cb60048036038101906103c691906121b3565b610ed4565b6040516103d89190612282565b60405180910390f35b6103fb60048036038101906103f691906122f3565b610f59565b005b61041760048036038101906104129190611fee565b611042565b005b610421611134565b60405161042e9190611d0b565b60405180910390f35b610451600480360381019061044c9190611ea1565b6111c2565b005b61046d60048036038101906104689190611dcb565b6112c7565b60405161047a9190611e26565b60405180910390f35b61049d60048036038101906104989190611f34565b6112df565b6040516104ab929190612367565b60405180910390f35b6104ce60048036038101906104c99190612397565b611398565b6040516104db9190611e26565b60405180910390f35b6104fe60048036038101906104f99190611f34565b61142c565b60405161050b9190611e50565b60405180910390f35b61052e60048036038101906105299190611dcb565b611444565b60405161053c929190612412565b60405180910390f35b61055f600480360381019061055a919061243b565b6114b6565b60405161056c9190612282565b60405180910390f35b61058f600480360381019061058a9190611fee565b611523565b005b6000805461059e906124f2565b80601f01602080910402602001604051908101604052809291908181526020018280546105ca906124f2565b80156106175780601f106105ec57610100808354040283529160200191610617565b820191906000526020600020905b8154815290600101906020018083116105fa57829003601f168201915b505050505081565b60008073ffffffffffffffffffffffffffffffffffffffff168373ffffffffffffffffffffffffffffffffffffffff161415610690576040517f08c379a000000000000000000000000000000000000000000000000000000000815260040161068790612570565b60405180910390fd5b81600760003373ffffffffffffffffffffffffffffffffffffffff1673ffffffffffffffffffffffffffffffffffffffff16815260200190815260200160002060008573ffffffffffffffffffffffffffffffffffffffff1673ffffffffffffffffffffffffffffffffffffffff168152602001908152602001600020819055507f8c5be1e5ebec7d5bd14f71427d1e84f3dd0314c0f7b2291e5b200ac8c7c3b9253384846040516107449392919061259f565b60405180910390a16001905092915050565b60035481565b6001600e60003373ffffffffffffffffffffffffffffffffffffffff1673ffffffffffffffffffffffffffffffffffffffff16815260200190815260200160002060008473ffffffffffffffffffffffffffffffffffffffff1673ffffffffffffffffffffffffffffffffffffffff168152602001908152602001600020600083815260200190815260200160002060006101000a81548160ff0219169083151502179055503373ffffffffffffffffffffffffffffffffffffffff168273ffffffffffffffffffffffffffffffffffffffff16827f3646a897c70797ecc134b0adc32f471b07bf1d6f451133b0384badab531e3fd660405160405180910390a45050565b600081600760008673ffffffffffffffffffffffffffffffffffffffff1673ffffffffffffffffffffffffffffffffffffffff16815260200190815260200160002060003373ffffffffffffffffffffffffffffffffffffffff1673ffffffffffffffffffffffffffffffffffffffff1681526020019081526020016000205410156108ec57600080fd5b6108f7848484611615565b506000600760008673ffffffffffffffffffffffffffffffffffffffff1673ffffffffffffffffffffffffffffffffffffffff16815260200190815260200160002060003373ffffffffffffffffffffffffffffffffffffffff1673ffffffffffffffffffffffffffffffffffffffff16815260200190815260200160002081905550600190509392505050565b600a6020528060005260406000206000915090508060000154908060010154908060020180546109b4906124f2565b80601f01602080910402602001604051908101604052809291908181526020018280546109e0906124f2565b8015610a2d5780601f10610a0257610100808354040283529160200191610a2d565b820191906000526020600020905b815481529060010190602001808311610a1057829003601f168201915b5050505050905083565b6000600b60008373ffffffffffffffffffffffffffffffffffffffff1673ffffffffffffffffffffffffffffffffffffffff168152602001908152602001600020600084815260200190815260200160002054905092915050565b60045481565b600560009054906101000a900473ffffffffffffffffffffffffffffffffffffffff1673ffffffffffffffffffffffffffffffffffffffff163373ffffffffffffffffffffffffffffffffffffffff1614610b28576040517f08c379a0000000000000000000000000000000000000000000000000000000008152600401610b1f90612622565b60405180910390fd5b600073ffffffffffffffffffffffffffffffffffffffff168273ffffffffffffffffffffffffffffffffffffffff161415610b6257600080fd5b600060025482610b729190612671565b905080600860008573ffffffffffffffffffffffffffffffffffffffff1673ffffffffffffffffffffffffffffffffffffffff1681526020019081526020016000206000828254610bc391906126cb565b925050819055508060036000828254610bdc91906126cb565b925050819055507f5a1f7f24a8d262d4fd95d7324e83dcdd93b4b9911cc5f45cac5a0382242953a4838260035442604051610c1a9493929190612721565b60405180910390a1505050565b600660008273ffffffffffffffffffffffffffffffffffffffff1673ffffffffffffffffffffffffffffffffffffffff16815260200190815260200160002060009054906101000a900460ff1615610cb4576040517f08c379a0000000000000000000000000000000000000000000000000000000008152600401610cab906127d8565b60405180910390fd5b6001600660008373ffffffffffffffffffffffffffffffffffffffff1673ffffffffffffffffffffffffffffffffffffffff16815260200190815260200160002060006101000a81548160ff0219169083151502179055507fcb3de9106aa8cc3efea54defa4b3ec342e8ae23607fd0255b1dcee4813f9f4bc8142604051610d3d9291906127f8565b60405180910390a150565b60025481565b6000600e60008573ffffffffffffffffffffffffffffffffffffffff1673ffffffffffffffffffffffffffffffffffffffff16815260200190815260200160002060008473ffffffffffffffffffffffffffffffffffffffff1673ffffffffffffffffffffffffffffffffffffffff168152602001908152602001600020600083815260200190815260200160002060009054906101000a900460ff1690509392505050565b6000600860008373ffffffffffffffffffffffffffffffffffffffff1673ffffffffffffffffffffffffffffffffffffffff168152602001908152602001600020549050919050565b6060600c60008373ffffffffffffffffffffffffffffffffffffffff1673ffffffffffffffffffffffffffffffffffffffff168152602001908152602001600020805480602002602001604051908101604052809291908181526020018280548015610ec857602002820191906000526020600020905b815481526020019060010190808311610eb4575b50505050509050919050565b6000610ee188338b610d4e565b610f20576040517f08c379a0000000000000000000000000000000000000000000000000000000008152600401610f1790612570565b60405180910390fd5b610f4c89898989604051806020016040528060008152506040518060200160405280600081525061186a565b5098975050505050505050565b604051806060016040528085815260200184815260200183838080601f016020809104026020016040519081016040528093929190818152602001838380828437600081840152601f19601f82011690508083019250505050505050815250600a600086815260200190815260200160002060008201518160000155602082015181600101556040820151816002019080519060200190610ffb929190611bcf565b509050507fbaa12adb2b0b0e6368005ce69d1a6e1c04e8d2497bea86be6c1378e504574e6384848484604051611034949392919061285d565b60405180910390a150505050565b6001600d60003373ffffffffffffffffffffffffffffffffffffffff1673ffffffffffffffffffffffffffffffffffffffff16815260200190815260200160002060008373ffffffffffffffffffffffffffffffffffffffff1673ffffffffffffffffffffffffffffffffffffffff16815260200190815260200160002060006101000a81548160ff0219169083151502179055503373ffffffffffffffffffffffffffffffffffffffff168173ffffffffffffffffffffffffffffffffffffffff167ff4caeb2d6ca8932a215a353d0703c326ec2d81fc68170f320eb2ab49e9df61f960405160405180910390a350565b60018054611141906124f2565b80601f016020809104026020016040519081016040528092919081815260200182805461116d906124f2565b80156111ba5780601f1061118f576101008083540402835291602001916111ba565b820191906000526020600020905b81548152906001019060200180831161119d57829003601f168201915b505050505081565b6000600e60003373ffffffffffffffffffffffffffffffffffffffff1673ffffffffffffffffffffffffffffffffffffffff16815260200190815260200160002060008473ffffffffffffffffffffffffffffffffffffffff1673ffffffffffffffffffffffffffffffffffffffff168152602001908152602001600020600083815260200190815260200160002060006101000a81548160ff0219169083151502179055503373ffffffffffffffffffffffffffffffffffffffff168273ffffffffffffffffffffffffffffffffffffffff16827f3b287c4f1bab4df949b33bceacef984f544dc5d5479930d00e4ee8c9d8dd96f260405160405180910390a45050565b60006112d4338484611615565b506001905092915050565b6060600080600a6000858152602001908152602001600020905080600201816000015481805461130e906124f2565b80601f016020809104026020016040519081016040528092919081815260200182805461133a906124f2565b80156113875780601f1061135c57610100808354040283529160200191611387565b820191906000526020600020905b81548152906001019060200180831161136a57829003601f168201915b505050505091509250925050915091565b6000600d60008473ffffffffffffffffffffffffffffffffffffffff1673ffffffffffffffffffffffffffffffffffffffff16815260200190815260200160002060008373ffffffffffffffffffffffffffffffffffffffff1673ffffffffffffffffffffffffffffffffffffffff16815260200190815260200160002060009054906101000a900460ff16905092915050565b60096020528060005260406000206000915090505481565b60008060011515600560149054906101000a900460ff16151514156114ae577f55000000000000000000000000000000000000000000000000000000000000007f66756e6473206c6f636b656420286c6f636b757020706572696f642900000000915091506114af565b5b9250929050565b60006115198633878787878080601f016020809104026020016040519081016040528093929190818152602001838380828437600081840152601f19601f820116905080830192505050505050506040518060200160405280600081525061186a565b5095945050505050565b6000600d60003373ffffffffffffffffffffffffffffffffffffffff1673ffffffffffffffffffffffffffffffffffffffff16815260200190815260200160002060008373ffffffffffffffffffffffffffffffffffffffff1673ffffffffffffffffffffffffffffffffffffffff16815260200190815260200160002060006101000a81548160ff0219169083151502179055503373ffffffffffffffffffffffffffffffffffffffff168173ffffffffffffffffffffffffffffffffffffffff167f50546e66e5f44d728365dc3908c63bc5cfeeab470722c1677e3073a6ac294aa160405160405180910390a350565b60008073ffffffffffffffffffffffffffffffffffffffff168373ffffffffffffffffffffffffffffffffffffffff161415611686576040517f08c379a000000000000000000000000000000000000000000000000000000000815260040161167d906128e9565b60405180910390fd5b81600860008673ffffffffffffffffffffffffffffffffffffffff1673ffffffffffffffffffffffffffffffffffffffff168152602001908152602001600020541015611708576040517f08c379a00000000000000000000000000000000000000000000000000000000081526004016116ff90612955565b60405180910390fd5b81600860008673ffffffffffffffffffffffffffffffffffffffff1673ffffffffffffffffffffffffffffffffffffffff168152602001908152602001600020546117539190612975565b600860008673ffffffffffffffffffffffffffffffffffffffff1673ffffffffffffffffffffffffffffffffffffffff1681526020019081526020016000208190555081600860008573ffffffffffffffffffffffffffffffffffffffff1673ffffffffffffffffffffffffffffffffffffffff168152602001908152602001600020546117e191906126cb565b600860008573ffffffffffffffffffffffffffffffffffffffff1673ffffffffffffffffffffffffffffffffffffffff168152602001908152602001600020819055507fddf252ad1be2c89b69c2b068fc378daa952ba7f163c4a11628f55a4df523b3ef8484846040516118579392919061259f565b60405180910390a1600190509392505050565b6000808714156118815761187f338686611615565b505b83600b60003373ffffffffffffffffffffffffffffffffffffffff1673ffffffffffffffffffffffffffffffffffffffff16815260200190815260200160002060008981526020019081526020016000205410156118de57600080fd5b83600b60003373ffffffffffffffffffffffffffffffffffffffff1673ffffffffffffffffffffffffffffffffffffffff16815260200190815260200160002060008981526020019081526020016000205461193a9190612975565b600b60003373ffffffffffffffffffffffffffffffffffffffff1673ffffffffffffffffffffffffffffffffffffffff16815260200190815260200160002060008981526020019081526020016000208190555083600860003373ffffffffffffffffffffffffffffffffffffffff1673ffffffffffffffffffffffffffffffffffffffff168152602001908152602001600020546119d99190612975565b600860003373ffffffffffffffffffffffffffffffffffffffff1673ffffffffffffffffffffffffffffffffffffffff1681526020019081526020016000208190555083600b60008773ffffffffffffffffffffffffffffffffffffffff1673ffffffffffffffffffffffffffffffffffffffff168152602001908152602001600020600089815260200190815260200160002054611a7891906126cb565b600b60008773ffffffffffffffffffffffffffffffffffffffff1673ffffffffffffffffffffffffffffffffffffffff16815260200190815260200160002060008981526020019081526020016000208190555083600860008773ffffffffffffffffffffffffffffffffffffffff1673ffffffffffffffffffffffffffffffffffffffff16815260200190815260200160002054611b1791906126cb565b600860008773ffffffffffffffffffffffffffffffffffffffff1673ffffffffffffffffffffffffffffffffffffffff168152602001908152602001600020819055508473ffffffffffffffffffffffffffffffffffffffff163373ffffffffffffffffffffffffffffffffffffffff16887fff4e9a26af4eb73b8bacfaa4abd4fea03d9448e7b912dc5ff4019048875aa2d43388604051611bba9291906129e0565b60405180910390a48690509695505050505050565b828054611bdb906124f2565b90600052602060002090601f016020900481019282611bfd5760008555611c44565b82601f10611c1657805160ff1916838001178555611c44565b82800160010185558215611c44579182015b82811115611c43578251825591602001919060010190611c28565b5b509050611c519190611c55565b5090565b5b80821115611c6e576000816000905550600101611c56565b5090565b600081519050919050565b600082825260208201905092915050565b60005b83811015611cac578082015181840152602081019050611c91565b83811115611cbb576000848401525b50505050565b6000601f19601f8301169050919050565b6000611cdd82611c72565b611ce78185611c7d565b9350611cf7818560208601611c8e565b611d0081611cc1565b840191505092915050565b60006020820190508181036000830152611d258184611cd2565b905092915050565b600080fd5b600080fd5b600073ffffffffffffffffffffffffffffffffffffffff82169050919050565b6000611d6282611d37565b9050919050565b611d7281611d57565b8114611d7d57600080fd5b50565b600081359050611d8f81611d69565b92915050565b6000819050919050565b611da881611d95565b8114611db357600080fd5b50565b600081359050611dc581611d9f565b92915050565b60008060408385031215611de257611de1611d2d565b5b6000611df085828601611d80565b9250506020611e0185828601611db6565b9150509250929050565b60008115159050919050565b611e2081611e0b565b82525050565b6000602082019050611e3b6000830184611e17565b92915050565b611e4a81611d95565b82525050565b6000602082019050611e656000830184611e41565b92915050565b6000819050919050565b611e7e81611e6b565b8114611e8957600080fd5b50565b600081359050611e9b81611e75565b92915050565b60008060408385031215611eb857611eb7611d2d565b5b6000611ec685828601611d80565b9250506020611ed785828601611e8c565b9150509250929050565b600080600060608486031215611efa57611ef9611d2d565b5b6000611f0886828701611d80565b9350506020611f1986828701611d80565b9250506040611f2a86828701611db6565b9150509250925092565b600060208284031215611f4a57611f49611d2d565b5b6000611f5884828501611e8c565b91505092915050565b611f6a81611e6b565b82525050565b6000606082019050611f856000830186611f61565b611f926020830185611f61565b8181036040830152611fa48184611cd2565b9050949350505050565b60008060408385031215611fc557611fc4611d2d565b5b6000611fd385828601611e8c565b9250506020611fe485828601611d80565b9150509250929050565b60006020828403121561200457612003611d2d565b5b600061201284828501611d80565b91505092915050565b60008060006060848603121561203457612033611d2d565b5b600061204286828701611d80565b935050602061205386828701611d80565b925050604061206486828701611e8c565b9150509250925092565b600081519050919050565b600082825260208201905092915050565b6000819050602082019050919050565b6120a381611e6b565b82525050565b60006120b5838361209a565b60208301905092915050565b6000602082019050919050565b60006120d98261206e565b6120e38185612079565b93506120ee8361208a565b8060005b8381101561211f57815161210688826120a9565b9750612111836120c1565b9250506001810190506120f2565b5085935050505092915050565b6000602082019050818103600083015261214681846120ce565b905092915050565b600080fd5b600080fd5b600080fd5b60008083601f8401126121735761217261214e565b5b8235905067ffffffffffffffff8111156121905761218f612153565b5b6020830191508360018202830111156121ac576121ab612158565b5b9250929050565b60008060008060008060008060c0898b0312156121d3576121d2611d2d565b5b60006121e18b828c01611e8c565b98505060206121f28b828c01611d80565b97505060406122038b828c01611d80565b96505060606122148b828c01611db6565b955050608089013567ffffffffffffffff81111561223557612234611d32565b5b6122418b828c0161215d565b945094505060a089013567ffffffffffffffff81111561226457612263611d32565b5b6122708b828c0161215d565b92509250509295985092959890939650565b60006020820190506122976000830184611f61565b92915050565b60008083601f8401126122b3576122b261214e565b5b8235905067ffffffffffffffff8111156122d0576122cf612153565b5b6020830191508360018202830111156122ec576122eb612158565b5b9250929050565b6000806000806060858703121561230d5761230c611d2d565b5b600061231b87828801611e8c565b945050602061232c87828801611e8c565b935050604085013567ffffffffffffffff81111561234d5761234c611d32565b5b6123598782880161229d565b925092505092959194509250565b600060408201905081810360008301526123818185611cd2565b90506123906020830184611f61565b9392505050565b600080604083850312156123ae576123ad611d2d565b5b60006123bc85828601611d80565b92505060206123cd85828601611d80565b9150509250929050565b60007fff0000000000000000000000000000000000000000000000000000000000000082169050919050565b61240c816123d7565b82525050565b60006040820190506124276000830185612403565b6124346020830184611f61565b9392505050565b60008060008060006080868803121561245757612456611d2d565b5b600061246588828901611e8c565b955050602061247688828901611d80565b945050604061248788828901611db6565b935050606086013567ffffffffffffffff8111156124a8576124a7611d32565b5b6124b48882890161215d565b92509250509295509295909350565b7f4e487b7100000000000000000000000000000000000000000000000000000000600052602260045260246000fd5b6000600282049050600182168061250a57607f821691505b6020821081141561251e5761251d6124c3565b5b50919050565b7f3536000000000000000000000000000000000000000000000000000000000000600082015250565b600061255a600283611c7d565b915061256582612524565b602082019050919050565b600060208201905081810360008301526125898161254d565b9050919050565b61259981611d57565b82525050565b60006060820190506125b46000830186612590565b6125c16020830185612590565b6125ce6040830184611e41565b949350505050565b7f3078353600000000000000000000000000000000000000000000000000000000600082015250565b600061260c600483611c7d565b9150612617826125d6565b602082019050919050565b6000602082019050818103600083015261263b816125ff565b9050919050565b7f4e487b7100000000000000000000000000000000000000000000000000000000600052601160045260246000fd5b600061267c82611d95565b915061268783611d95565b9250817fffffffffffffffffffffffffffffffffffffffffffffffffffffffffffffffff04831182151516156126c0576126bf612642565b5b828202905092915050565b60006126d682611d95565b91506126e183611d95565b9250827fffffffffffffffffffffffffffffffffffffffffffffffffffffffffffffffff0382111561271657612715612642565b5b828201905092915050565b60006080820190506127366000830187612590565b6127436020830186611e41565b6127506040830185611e41565b61275d6060830184611e41565b95945050505050565b7f63616e27742077686974656c69737420616e2061646472657373206d6f72652060008201527f7468616e206f6e63650000000000000000000000000000000000000000000000602082015250565b60006127c2602983611c7d565b91506127cd82612766565b604082019050919050565b600060208201905081810360008301526127f1816127b5565b9050919050565b600060408201905061280d6000830185612590565b61281a6020830184611e41565b9392505050565b82818337600083830152505050565b600061283c8385611c7d565b9350612849838584612821565b61285283611cc1565b840190509392505050565b60006060820190506128726000830187611f61565b61287f6020830186611f61565b8181036040830152612892818486612830565b905095945050505050565b7f63616e2774207472616e7366657220746f207a65726f20616464726573730000600082015250565b60006128d3601e83611c7d565b91506128de8261289d565b602082019050919050565b60006020820190508181036000830152612902816128c6565b9050919050565b7f696e73756666696369656e7420616d6f756e7400000000000000000000000000600082015250565b600061293f601383611c7d565b915061294a82612909565b602082019050919050565b6000602082019050818103600083015261296e81612932565b9050919050565b600061298082611d95565b915061298b83611d95565b92508282101561299e5761299d612642565b5b828203905092915050565b600082825260208201905092915050565b50565b60006129ca6000836129a9565b91506129d5826129ba565b600082019050919050565b60006080820190506129f56000830185612590565b612a026020830184611e41565b8181036040830152612a13816129bd565b90508181036060830152612a26816129bd565b9050939250505056fea2646970667358221220e32b7e5535ca0d0274c8b8a8440ea0de6a5e9e5f0e08206eb42768e32526533b64736f6c634300080a0033",
  "immutableReferences": {},
  "source": "// solidity version\r\n\r\npragma solidity 0.8.10;\r\n\r\n\r\ncontract ERC1400 {\r\n\r\n\r\n    /************************************************ Variable Declarations and Initaalizations ************************************/\r\n\r\n\r\n\r\n     // *************************************** Strings ********************************************************* //\r\n\r\n    string public name;   // token name\r\n    string public symbol; // token symbol\r\n\r\n\r\n\r\n    // *************************************** Integers ********************************************************* //\r\n\r\n    uint256 public granularity;   // token granularity\r\n    uint256 public totalSupply; // token total supply\r\n    uint256 public decimals; //token decimals\r\n\r\n\r\n    // *************************************** Addresses ********************************************************* //\r\n\r\n    address private owner;  // set the address of the owner to be private\r\n\r\n\r\n\r\n     // *************************************** Booleans ********************************************************* //\r\n\r\n    bool private lockUpTokens = false; // token lockup indicator\r\n    bool private isIssuable;    //  manage when a token can be issued\r\n    \r\n\r\n\r\n     // *************************************** Structs ********************************************************* //\r\n\r\n    struct Doc {\r\n        bytes32 _name;\r\n        bytes32 _documentHash;\r\n        string _uri;\r\n        \r\n    } // struct to handle the documents\r\n\r\n\r\n\r\n     // *************************************** Events ********************************************************* //\r\n\r\n    event WhiteList (address _investor, uint256 _timeAdded);                                                 // event to be emitted whenever an address is whitelisted\r\n    event Issued (address _to, uint256 _amountIssued, uint256 _totalSupply, uint256 _timeIssued);            // event to be emitted whenever new tokens are minted\r\n    event Transfer (address _from, address _to, uint256 _amount);                                            // event to be emitted whenever token is been transferred\r\n    event Approval (address _tokenHolder, address _externalAddress, uint256 _amount);                        // event to be emitted whenever an external address is approved such as escrows\r\n    event Document (bytes32 _name, bytes32 _documentHash, string _uri);                                      // event to be emitted whenever a document is put on-chain\r\n    event TransferByPartition (\r\n\r\n        bytes32 indexed _fromPartition,\r\n        address _operator,\r\n        address indexed _from,\r\n        address indexed _to,\r\n        uint256 _value,\r\n        bytes _data,\r\n        bytes _operatorData\r\n\r\n\r\n    );                                                                           // event to be emitted whenever tokens are transfered from an address partition to another addres of same partition\r\n\r\n    event AuthorizedOperator (address indexed _operator, address indexed _tokenHolder);     // event to be emitted whenever an operator is authorized\r\n    event RevokedOperator (address indexed _operator, address indexed _tokenHolder);     // event to be emitted whenever an operator is revoked\r\n    event AuthorizedOperatorByPartition (bytes32 indexed _partition, address indexed _operator, address indexed _tokenHolder);     // event to be emitted whenever an operator is authorized for a partition\r\n    event RevokedOperatorByPartition (bytes32 indexed _partition, address indexed _operator, address indexed _tokenHolder);     // event to be emitted whenever an operator is revoked for a partition\r\n\r\n\r\n     // *************************************** Mappings ********************************************************* //\r\n\r\n    mapping(address => bool) private whitelist;                             //  whitelist map\r\n    mapping(address => mapping(address => uint256)) private allowance;      // set the address of the allowed external operator\r\n    mapping(address => uint256) internal _balanceOf;                           // map to store the token balances of token holders\r\n    mapping(bytes32 => uint256) public partitions;                          // map to store the partitions\r\n    mapping(bytes32 => Doc) public documents;                               // map to store the documents\r\n    mapping(address => mapping(bytes32 => uint256)) internal _balanceOfByPartition;        // map to store the partitioned token balance of a token holder \r\n    mapping(address => bytes32[]) internal _partitionsOf;                         // map that stores the partitions of a token holder\r\n    mapping(address => mapping(address => bool)) internal _isOperator;       // map to approve or revoke operators for a token holder\r\n    \r\n    // holder's address -> operator  address -> partition -> true/false\r\n    mapping(address => mapping(address => mapping (bytes32 => bool))) internal _isOperatorForPartition;                  // map to approve or revoke operators by partition\r\n\r\n    constructor (string memory _name, string memory _symbol, uint256 _decimals, uint256 _totalSupply) {\r\n\r\n        name = _name;\r\n        symbol = _symbol;\r\n        decimals = _decimals;\r\n        granularity = 10 ** decimals; // for token decimals \r\n        totalSupply = _totalSupply;\r\n        owner = msg.sender;\r\n\r\n    }\r\n\r\n    modifier restricted {\r\n        require(msg.sender == owner, \"0x56\");\r\n        _;\r\n    }\r\n\r\n    // *************************************** Internal functions ********************************************************* //\r\n\r\n    // 1. internal funtion to transfer tokens from an address to another address\r\n     function _transfer(address _from, address _to, uint256 _amount) internal returns (bool success) {\r\n\r\n        require(_to != address(0),  \"can't transfer to zero address\");\r\n        require(_balanceOf[_from] >= _amount, \"insufficient amount\");\r\n\r\n        _balanceOf[_from] = _balanceOf[_from] - _amount;                  // reduce the sender's balance --> use safemath\r\n        _balanceOf[_to] = _balanceOf[_to] + _amount;                      // increase the value of the receiver ---> usesafemath\r\n        emit Transfer (_from, _to, _amount);                            // emit the Tranfer event\r\n        return true;\r\n     }\r\n\r\n    // function to mint and issue new tokens. This function is restricted to other addresses except the owner of the contract\r\n    function  issueTokens(address _to, uint256 _amount) external restricted {\r\n        \r\n        \r\n        require(_to != address(0));\r\n        uint256 amount =  _amount * granularity;                         // the destinaton address should not be an empty address\r\n        _balanceOf[_to] += amount;                                       // use safemath library to avoid under and overflow\r\n        totalSupply += amount;                                          // add the new minted token to the total supply ---> use safemath library to avoid under and overflow\r\n        emit Issued(_to, amount, totalSupply, block.timestamp);        // emit the issued event --> it emits the destination address, amount minted, updated total supply and the time issued\r\n        \r\n\r\n    }\r\n\r\n\r\n    // approve tokens to external operators\r\n    function approve(address _externalAddress, uint256 _value) external returns (bool success) {\r\n\r\n        require(_externalAddress != address(0), \"56\");                  //0x56   invalid external address\r\n        allowance[msg.sender][_externalAddress] = _value;              // use safemath function here to avoid under and overflow\r\n        emit Approval(msg.sender, _externalAddress, _value);            // emit the approved event\r\n        return true;\r\n\r\n    }\r\n\r\n\r\n    // function that returns balance\r\n    function balanceOf(address _tokenHolder) external view returns (uint256) {\r\n        return _balanceOf[_tokenHolder];\r\n    }\r\n\r\n\r\n\r\n    // used bytes1 instead of byte as bytes1 is now an alias for byte    \r\n    function canTransfer(address _to, uint256 _value) public view returns (bytes1 status, bytes32 statusDescription){\r\n\r\n        if( lockUpTokens == true) {\r\n\r\n            return (hex\"55\", \"funds locked (lockup period)\");\r\n        } \r\n\r\n    }\r\n\r\n\r\n\r\n    // function to add an address to whitelist\r\n    function addToWhiteList(address _investor) external {\r\n        \r\n        require(!whitelist[_investor], \"can't whitelist an address more than once\");\r\n        whitelist[_investor] = true;\r\n        emit WhiteList(_investor, block.timestamp);\r\n\r\n    }\r\n\r\n    // function to transfer tokens. the internal transfer function will be called here\r\n    function transfer(address _to, uint256 _amount) public returns (bool success) {\r\n\r\n        _transfer(msg.sender, _to, _amount);\r\n        return true;\r\n\r\n    }\r\n\r\n    // function transferFrom. The function for external addresses such as escrows to move tokens on behalf of the token holder\r\n    \r\n    function transferFrom(address _from, address _to, uint256 _amount) external returns (bool success) {\r\n\r\n        // _from is the current token holder\r\n        // _to is the destinantion address\r\n        //  msg.sender is the external address calling this function\r\n        // the token holder should have at least the amount of tokens to be transferred ----> this check has been implemented in the internal _transfer function\r\n        require(allowance[_from][msg.sender] >= _amount);           // the allowed value approved by the token holder must not be less than the amount\r\n        _transfer(_from, _to, _amount);                             // transfer the tokens\r\n\r\n        // reset the allowance value\r\n\r\n        allowance[_from][msg.sender] =  0;   \r\n        return true;           \r\n\r\n    }  \r\n\r\n\r\n\r\n    /***************  Document *****************/\r\n\r\n    // set document\r\n\r\n    function setDocument (bytes32 _name , bytes32 _documentHash, string calldata _uri) external  {\r\n        \r\n        documents[_name] = Doc(_name, _documentHash, _uri);     // save the document\r\n        emit Document(_name, _documentHash, _uri);              // emit event when document is set on chain\r\n\r\n    }\r\n\r\n    // get document\r\n    \r\n    function getDocument (bytes32 _name) external view returns (string memory uri, bytes32 name) {\r\n\r\n        Doc storage _document = documents[_name];\r\n\r\n        return (_document._uri, _document._name);  // return the document uri and name\r\n\r\n    }\r\n\r\n    /******************************* operators ***************************/\r\n\r\n    function isOperator (address _from, address _operator) public returns (bool) {\r\n        return _isOperator[_from][_operator];\r\n    }\r\n\r\n    function authorizeOperator (address _operator) public {\r\n        _isOperator[msg.sender][_operator] = true;\r\n        emit AuthorizedOperator(_operator, msg.sender);\r\n    }\r\n\r\n    function revokeOperator (address _operator) public {\r\n        _isOperator[msg.sender][_operator] = false;\r\n        emit RevokedOperator(_operator, msg.sender);\r\n    }\r\n\r\n    function isOperatorForPartition(address _from, address _operator, bytes32 _partition) public returns (bool) {\r\n        return  _isOperatorForPartition[_from][_operator][_partition];\r\n    }\r\n    \r\n    function authorizeOperatorByPartition (address _operator, bytes32 _partition) public  {\r\n        _isOperatorForPartition[msg.sender][_operator][_partition] = true;\r\n        emit AuthorizedOperatorByPartition(_partition, _operator, msg.sender);\r\n    }\r\n\r\n    function revokeOperatorByPartition (address _operator, bytes32 _partition) public {\r\n        _isOperatorForPartition[msg.sender][_operator][_partition] = false;\r\n        emit RevokedOperatorByPartition(_partition, _operator, msg.sender);\r\n    }\r\n   \r\n   /************************************* Partitions ****************************/\r\n\r\n\r\n   /************************ Internal functions for partition ************************/\r\n\r\n    function _transferByPartiton(bytes32 _partition, address _from, address _to, uint256 _value, bytes memory _data, bytes memory _operatorData) internal returns(bytes32) {\r\n       \r\n       if (_partition == \"\") {\r\n           _transfer(msg.sender, _to, _value);\r\n       }\r\n\r\n       require( _balanceOfByPartition[msg.sender][_partition] >= _value); // the partiton balance of the holder must be greater than or equal to the value\r\n\r\n       _balanceOfByPartition[msg.sender][_partition] = _balanceOfByPartition[msg.sender][_partition] - _value;\r\n       _balanceOf[msg.sender] = _balanceOf[msg.sender] - _value; // the value should reflect in the global token balance of the sender\r\n       \r\n       _balanceOfByPartition[_to][_partition] = _balanceOfByPartition[_to][_partition] + _value;\r\n       _balanceOf[_to] = _balanceOf[_to] + _value; // the value should reflect in the global token balance of the receiver\r\n\r\n       emit TransferByPartition(_partition, msg.sender, msg.sender, _to, _value, \"\", \"\");\r\n\r\n       return _partition;\r\n\r\n    }\r\n\r\n\r\n   /*********************************************************************************/\r\n\r\n   // function to return partitioned token balance\r\n\r\n   function balanceOfByPartition(bytes32 _partition, address _tokenHolder) external view returns (uint256) {\r\n       return _balanceOfByPartition[_tokenHolder][_partition];\r\n   }\r\n\r\n   // function to return the partitions of a token holder\r\n\r\n   function partitionsOf(address _tokenHolder) external view returns (bytes32[] memory) {\r\n\r\n       return _partitionsOf[_tokenHolder];\r\n\r\n   }    \r\n\r\n   // transfer by partition\r\n   function transferByPartition(bytes32 _partition, address _to, uint256 _value, bytes calldata _data) external returns (bytes32) {\r\n\r\n       _transferByPartiton(_partition, msg.sender, _to, _value, _data, \"\");\r\n \r\n   }    \r\n\r\n   // operator transfer by partition\r\n   function operatorTransferByPartition(bytes32 _partition, address _from, address _to, uint256 _value, bytes calldata _data, bytes calldata _operatorData) external returns (bytes32) {\r\n\r\n       require(isOperatorForPartition(_from, msg.sender, _partition), \"56\"); // 0x56 invalid sender\r\n       _transferByPartiton(_partition, _from, _to, _value, \"\", \"\");\r\n   }\r\n\r\n\r\n}",
  "sourcePath": "C:\\Users\\Uju Nobei\\Documents\\Israel Linux\\blockchain\\TANGL\\security token\\contracts\\ERC1400.sol",
  "compiler": {
    "name": "solc",
    "version": "0.8.10+commit.fc410830.Emscripten.clang"
  },
  "schemaVersion": "3.4.3",
  "updatedAt": "2022-01-31T18:53:20.613Z",
  "networkType": "ethereum",
  "devdoc": {
    "kind": "dev",
    "methods": {},
    "version": 1
  },
  "userdoc": {
    "kind": "user",
    "methods": {},
    "version": 1
  }
}