{
  "contractName": "HTLC20",
  "abi": [
    {
      "inputs": [
        {
          "internalType": "address",
          "name": "_usdtAddress",
          "type": "address"
        }
      ],
      "stateMutability": "nonpayable",
      "type": "constructor"
    },
    {
      "anonymous": false,
      "inputs": [
        {
          "indexed": true,
          "internalType": "address",
          "name": "_investor",
          "type": "address"
        },
        {
          "indexed": false,
          "internalType": "bytes32",
          "name": "_swapID",
          "type": "bytes32"
        },
        {
          "indexed": false,
          "internalType": "uint256",
          "name": "_amount",
          "type": "uint256"
        },
        {
          "indexed": false,
          "internalType": "bytes32",
          "name": "_secretKey",
          "type": "bytes32"
        },
        {
          "indexed": false,
          "internalType": "bytes32",
          "name": "_secretHash",
          "type": "bytes32"
        }
      ],
      "name": "ClosedOrder",
      "type": "event"
    },
    {
      "anonymous": false,
      "inputs": [
        {
          "indexed": true,
          "internalType": "address",
          "name": "_investor",
          "type": "address"
        },
        {
          "indexed": false,
          "internalType": "uint256",
          "name": "_price",
          "type": "uint256"
        }
      ],
      "name": "Funded",
      "type": "event"
    },
    {
      "anonymous": false,
      "inputs": [
        {
          "indexed": true,
          "internalType": "address",
          "name": "_investor",
          "type": "address"
        },
        {
          "indexed": false,
          "internalType": "bytes32",
          "name": "_swapID",
          "type": "bytes32"
        },
        {
          "indexed": false,
          "internalType": "uint256",
          "name": "_amount",
          "type": "uint256"
        },
        {
          "indexed": false,
          "internalType": "uint256",
          "name": "_expiration",
          "type": "uint256"
        },
        {
          "indexed": false,
          "internalType": "bytes32",
          "name": "_secretHash",
          "type": "bytes32"
        }
      ],
      "name": "OpenedOrder",
      "type": "event"
    },
    {
      "anonymous": false,
      "inputs": [
        {
          "indexed": true,
          "internalType": "address",
          "name": "_to",
          "type": "address"
        },
        {
          "indexed": false,
          "internalType": "bytes32",
          "name": "_swapID",
          "type": "bytes32"
        },
        {
          "indexed": false,
          "internalType": "uint256",
          "name": "_amount",
          "type": "uint256"
        },
        {
          "indexed": false,
          "internalType": "uint256",
          "name": "_expiration",
          "type": "uint256"
        }
      ],
      "name": "RefundOrder",
      "type": "event"
    },
    {
      "inputs": [
        {
          "internalType": "bytes32",
          "name": "_swapID",
          "type": "bytes32"
        },
        {
          "internalType": "address",
          "name": "_investor",
          "type": "address"
        },
        {
          "internalType": "uint256",
          "name": "_price",
          "type": "uint256"
        },
        {
          "internalType": "uint256",
          "name": "_expiration",
          "type": "uint256"
        },
        {
          "internalType": "bytes32",
          "name": "_secretHash",
          "type": "bytes32"
        },
        {
          "internalType": "bytes32",
          "name": "_secretKey",
          "type": "bytes32"
        }
      ],
      "name": "openOrder",
      "outputs": [],
      "stateMutability": "nonpayable",
      "type": "function"
    },
    {
      "inputs": [
        {
          "internalType": "bytes32",
          "name": "_swapID",
          "type": "bytes32"
        }
      ],
      "name": "fundOrder",
      "outputs": [],
      "stateMutability": "nonpayable",
      "type": "function"
    },
    {
      "inputs": [
        {
          "internalType": "bytes32",
          "name": "_swapID",
          "type": "bytes32"
        },
        {
          "internalType": "bytes32",
          "name": "_secretKey",
          "type": "bytes32"
        }
      ],
      "name": "issuerWithdrawal",
      "outputs": [],
      "stateMutability": "nonpayable",
      "type": "function"
    },
    {
      "inputs": [
        {
          "internalType": "bytes32",
          "name": "_swapID",
          "type": "bytes32"
        }
      ],
      "name": "refund",
      "outputs": [],
      "stateMutability": "nonpayable",
      "type": "function"
    },
    {
      "inputs": [
        {
          "internalType": "bytes32",
          "name": "_swapID",
          "type": "bytes32"
        }
      ],
      "name": "checkOrder",
      "outputs": [
        {
          "internalType": "address",
          "name": "_recipient",
          "type": "address"
        },
        {
          "internalType": "address",
          "name": "_investor",
          "type": "address"
        },
        {
          "internalType": "uint256",
          "name": "_amount",
          "type": "uint256"
        },
        {
          "internalType": "uint256",
          "name": "_expiration",
          "type": "uint256"
        },
        {
          "internalType": "bool",
          "name": "_funded",
          "type": "bool"
        },
        {
          "internalType": "bytes32",
          "name": "_orderID",
          "type": "bytes32"
        },
        {
          "internalType": "enum HTLC20.SwapState",
          "name": "_orderState",
          "type": "uint8"
        },
        {
          "internalType": "bytes32",
          "name": "_secretKey",
          "type": "bytes32"
        }
      ],
      "stateMutability": "view",
      "type": "function",
      "constant": true
    }
  ],
  "bytecode": "0x60806040523480156200001157600080fd5b50604051620020383803806200203883398181016040528101906200003791906200012a565b80600360006101000a81548173ffffffffffffffffffffffffffffffffffffffff021916908373ffffffffffffffffffffffffffffffffffffffff16021790555033600260006101000a81548173ffffffffffffffffffffffffffffffffffffffff021916908373ffffffffffffffffffffffffffffffffffffffff160217905550506200015c565b600080fd5b600073ffffffffffffffffffffffffffffffffffffffff82169050919050565b6000620000f282620000c5565b9050919050565b6200010481620000e5565b81146200011057600080fd5b50565b6000815190506200012481620000f9565b92915050565b600060208284031215620001435762000142620000c0565b5b6000620001538482850162000113565b91505092915050565b611ecc806200016c6000396000f3fe608060405234801561001057600080fd5b50600436106100575760003560e01c80635e8b4a011461005c5780637249fbb614610078578063b8275e7e14610094578063c1f48b28146100b0578063faf1be29146100cc575b600080fd5b61007660048036038101906100719190611429565b610103565b005b610092600480360381019061008d91906114b6565b6104c2565b005b6100ae60048036038101906100a991906114e3565b61086b565b005b6100ca60048036038101906100c591906114b6565b610d68565b005b6100e660048036038101906100e191906114b6565b611149565b6040516100fa9897969594939291906115e2565b60405180910390f35b600260009054906101000a900473ffffffffffffffffffffffffffffffffffffffff1673ffffffffffffffffffffffffffffffffffffffff163373ffffffffffffffffffffffffffffffffffffffff1614610193576040517f08c379a000000000000000000000000000000000000000000000000000000000815260040161018a906116bd565b60405180910390fd5b600060038111156101a7576101a661156b565b5b6001600088815260200190815260200160002060009054906101000a900460ff1660038111156101da576101d961156b565b5b1461021a576040517f08c379a000000000000000000000000000000000000000000000000000000000815260040161021190611729565b60405180910390fd5b60028160405160200161022d9190611749565b60405160208183030381529060405260405161024991906117de565b602060405180830381855afa158015610266573d6000803e3d6000fd5b5050506040513d601f19601f82011682018060405250810190610289919061180a565b82146102ca576040517f08c379a00000000000000000000000000000000000000000000000000000000081526004016102c1906118a9565b60405180910390fd5b6040518061010001604052803373ffffffffffffffffffffffffffffffffffffffff1681526020018673ffffffffffffffffffffffffffffffffffffffff1681526020018581526020018481526020018381526020016000801b81526020018781526020016000151581525060008088815260200190815260200160002060008201518160000160006101000a81548173ffffffffffffffffffffffffffffffffffffffff021916908373ffffffffffffffffffffffffffffffffffffffff16021790555060208201518160010160006101000a81548173ffffffffffffffffffffffffffffffffffffffff021916908373ffffffffffffffffffffffffffffffffffffffff16021790555060408201518160020155606082015181600301556080820151816004015560a0820151816005015560c0820151816006015560e08201518160070160006101000a81548160ff021916908315150217905550905050600180600088815260200190815260200160002060006101000a81548160ff021916908360038111156104615761046061156b565b5b02179055508473ffffffffffffffffffffffffffffffffffffffff167f7c5fbcd3aaa457ebada4d378a1d9e095edd182acf624e4182d45f49a0ba8c527878686866040516104b294939291906118c9565b60405180910390a2505050505050565b600160038111156104d6576104d561156b565b5b6001600083815260200190815260200160002060009054906101000a900460ff1660038111156105095761050861156b565b5b14610549576040517f08c379a00000000000000000000000000000000000000000000000000000000081526004016105409061195a565b60405180910390fd5b6000808281526020019081526020016000206003015442116105a0576040517f08c379a0000000000000000000000000000000000000000000000000000000008152600401610597906119c6565b60405180910390fd5b6001151560008083815260200190815260200160002060070160009054906101000a900460ff16151514610609576040517f08c379a000000000000000000000000000000000000000000000000000000000815260040161060090611a32565b60405180910390fd5b6000806000838152602001908152602001600020604051806101000160405290816000820160009054906101000a900473ffffffffffffffffffffffffffffffffffffffff1673ffffffffffffffffffffffffffffffffffffffff1673ffffffffffffffffffffffffffffffffffffffff1681526020016001820160009054906101000a900473ffffffffffffffffffffffffffffffffffffffff1673ffffffffffffffffffffffffffffffffffffffff1673ffffffffffffffffffffffffffffffffffffffff16815260200160028201548152602001600382015481526020016004820154815260200160058201548152602001600682015481526020016007820160009054906101000a900460ff1615151515815250509050600360009054906101000a900473ffffffffffffffffffffffffffffffffffffffff1673ffffffffffffffffffffffffffffffffffffffff1663a9059cbb826020015183604001516040518363ffffffff1660e01b8152600401610789929190611a52565b6020604051808303816000875af11580156107a8573d6000803e3d6000fd5b505050506040513d601f19601f820116820180604052508101906107cc9190611aa7565b5060036001600084815260200190815260200160002060006101000a81548160ff021916908360038111156108045761080361156b565b5b0217905550806020015173ffffffffffffffffffffffffffffffffffffffff167fcf9d747accb1fa2ffb8c9571ebadc7bb46a2aa7265170334f030b187a9e8c7d1838360400151846060015160405161085f93929190611ad4565b60405180910390a25050565b600260009054906101000a900473ffffffffffffffffffffffffffffffffffffffff1673ffffffffffffffffffffffffffffffffffffffff163373ffffffffffffffffffffffffffffffffffffffff16146108fb576040517f08c379a00000000000000000000000000000000000000000000000000000000081526004016108f2906116bd565b60405180910390fd5b6001600381111561090f5761090e61156b565b5b6001600084815260200190815260200160002060009054906101000a900460ff1660038111156109425761094161156b565b5b14610982576040517f08c379a000000000000000000000000000000000000000000000000000000000815260040161097990611b57565b60405180910390fd5b6001151560008084815260200190815260200160002060070160009054906101000a900460ff161515146109eb576040517f08c379a00000000000000000000000000000000000000000000000000000000081526004016109e290611bc3565b60405180910390fd5b6000806000848152602001908152602001600020604051806101000160405290816000820160009054906101000a900473ffffffffffffffffffffffffffffffffffffffff1673ffffffffffffffffffffffffffffffffffffffff1673ffffffffffffffffffffffffffffffffffffffff1681526020016001820160009054906101000a900473ffffffffffffffffffffffffffffffffffffffff1673ffffffffffffffffffffffffffffffffffffffff1673ffffffffffffffffffffffffffffffffffffffff16815260200160028201548152602001600382015481526020016004820154815260200160058201548152602001600682015481526020016007820160009054906101000a900460ff161515151581525050905080606001514210610b4c576040517f08c379a0000000000000000000000000000000000000000000000000000000008152600401610b4390611c2f565b60405180910390fd5b8060800151600283604051602001610b649190611749565b604051602081830303815290604052604051610b8091906117de565b602060405180830381855afa158015610b9d573d6000803e3d6000fd5b5050506040513d601f19601f82011682018060405250810190610bc0919061180a565b14610c00576040517f08c379a0000000000000000000000000000000000000000000000000000000008152600401610bf790611c9b565b60405180910390fd5b600360009054906101000a900473ffffffffffffffffffffffffffffffffffffffff1673ffffffffffffffffffffffffffffffffffffffff1663a9059cbb826000015183604001516040518363ffffffff1660e01b8152600401610c65929190611a52565b6020604051808303816000875af1158015610c84573d6000803e3d6000fd5b505050506040513d601f19601f82011682018060405250810190610ca89190611aa7565b50816000808581526020019081526020016000206005018190555060026001600085815260200190815260200160002060006101000a81548160ff02191690836003811115610cfa57610cf961156b565b5b0217905550806020015173ffffffffffffffffffffffffffffffffffffffff167f5b1bdd6c0f60437d74721fd7455c935d1935476df6d33ffe6a8434257ba6a23c8483604001518460a001518560800151604051610d5b9493929190611cbb565b60405180910390a2505050565b60016003811115610d7c57610d7b61156b565b5b6001600083815260200190815260200160002060009054906101000a900460ff166003811115610daf57610dae61156b565b5b14610def576040517f08c379a0000000000000000000000000000000000000000000000000000000008152600401610de690611d4c565b60405180910390fd5b6000151560008083815260200190815260200160002060070160009054906101000a900460ff16151514610e58576040517f08c379a0000000000000000000000000000000000000000000000000000000008152600401610e4f90611db8565b60405180910390fd5b3373ffffffffffffffffffffffffffffffffffffffff1660008083815260200190815260200160002060010160009054906101000a900473ffffffffffffffffffffffffffffffffffffffff1673ffffffffffffffffffffffffffffffffffffffff1614610efb576040517f08c379a0000000000000000000000000000000000000000000000000000000008152600401610ef2906116bd565b60405180910390fd5b6000806000838152602001908152602001600020604051806101000160405290816000820160009054906101000a900473ffffffffffffffffffffffffffffffffffffffff1673ffffffffffffffffffffffffffffffffffffffff1673ffffffffffffffffffffffffffffffffffffffff1681526020016001820160009054906101000a900473ffffffffffffffffffffffffffffffffffffffff1673ffffffffffffffffffffffffffffffffffffffff1673ffffffffffffffffffffffffffffffffffffffff16815260200160028201548152602001600382015481526020016004820154815260200160058201548152602001600682015481526020016007820160009054906101000a900460ff1615151515815250509050600360009054906101000a900473ffffffffffffffffffffffffffffffffffffffff1673ffffffffffffffffffffffffffffffffffffffff166323b872dd82602001513084604001516040518463ffffffff1660e01b815260040161107d93929190611dd8565b6020604051808303816000875af115801561109c573d6000803e3d6000fd5b505050506040513d601f19601f820116820180604052508101906110c09190611aa7565b50600160008084815260200190815260200160002060070160006101000a81548160ff021916908315150217905550806020015173ffffffffffffffffffffffffffffffffffffffff167f5af8184bef8e4b45eb9f6ed7734d04da38ced226495548f46e0c8ff8d7d9a524826040015160405161113d9190611e0f565b60405180910390a25050565b600080600080600080600080600060038111156111695761116861156b565b5b600160008b815260200190815260200160002060009054906101000a900460ff16600381111561119c5761119b61156b565b5b14156111dd576040517f08c379a00000000000000000000000000000000000000000000000000000000081526004016111d490611e76565b60405180910390fd5b60008060008b8152602001908152602001600020604051806101000160405290816000820160009054906101000a900473ffffffffffffffffffffffffffffffffffffffff1673ffffffffffffffffffffffffffffffffffffffff1673ffffffffffffffffffffffffffffffffffffffff1681526020016001820160009054906101000a900473ffffffffffffffffffffffffffffffffffffffff1673ffffffffffffffffffffffffffffffffffffffff1673ffffffffffffffffffffffffffffffffffffffff16815260200160028201548152602001600382015481526020016004820154815260200160058201548152602001600682015481526020016007820160009054906101000a900460ff16151515158152505090506000600160008c815260200190815260200160002060009054906101000a900460ff16905081600001518260200151836040015184606001518560e001518f868860a00151995099509950995099509950995099505050919395975091939597565b600080fd5b6000819050919050565b6113728161135f565b811461137d57600080fd5b50565b60008135905061138f81611369565b92915050565b600073ffffffffffffffffffffffffffffffffffffffff82169050919050565b60006113c082611395565b9050919050565b6113d0816113b5565b81146113db57600080fd5b50565b6000813590506113ed816113c7565b92915050565b6000819050919050565b611406816113f3565b811461141157600080fd5b50565b600081359050611423816113fd565b92915050565b60008060008060008060c087890312156114465761144561135a565b5b600061145489828a01611380565b965050602061146589828a016113de565b955050604061147689828a01611414565b945050606061148789828a01611414565b935050608061149889828a01611380565b92505060a06114a989828a01611380565b9150509295509295509295565b6000602082840312156114cc576114cb61135a565b5b60006114da84828501611380565b91505092915050565b600080604083850312156114fa576114f961135a565b5b600061150885828601611380565b925050602061151985828601611380565b9150509250929050565b61152c816113b5565b82525050565b61153b816113f3565b82525050565b60008115159050919050565b61155681611541565b82525050565b6115658161135f565b82525050565b7f4e487b7100000000000000000000000000000000000000000000000000000000600052602160045260246000fd5b600481106115ab576115aa61156b565b5b50565b60008190506115bc8261159a565b919050565b60006115cc826115ae565b9050919050565b6115dc816115c1565b82525050565b6000610100820190506115f8600083018b611523565b611605602083018a611523565b6116126040830189611532565b61161f6060830188611532565b61162c608083018761154d565b61163960a083018661155c565b61164660c08301856115d3565b61165360e083018461155c565b9998505050505050505050565b600082825260208201905092915050565b7f696e76616c69642063616c6c6572000000000000000000000000000000000000600082015250565b60006116a7600e83611660565b91506116b282611671565b602082019050919050565b600060208201905081810360008301526116d68161169a565b9050919050565b7f74686973206f7264657220696420657869737420616c72656164790000000000600082015250565b6000611713601b83611660565b915061171e826116dd565b602082019050919050565b6000602082019050818103600083015261174281611706565b9050919050565b600060208201905061175e600083018461155c565b92915050565b600081519050919050565b600081905092915050565b60005b8381101561179857808201518184015260208101905061177d565b838111156117a7576000848401525b50505050565b60006117b882611764565b6117c2818561176f565b93506117d281856020860161177a565b80840191505092915050565b60006117ea82846117ad565b915081905092915050565b60008151905061180481611369565b92915050565b6000602082840312156118205761181f61135a565b5b600061182e848285016117f5565b91505092915050565b7f7468652073656372657420646f65736e2774206d61746368207468652068617360008201527f6800000000000000000000000000000000000000000000000000000000000000602082015250565b6000611893602183611660565b915061189e82611837565b604082019050919050565b600060208201905081810360008301526118c281611886565b9050919050565b60006080820190506118de600083018761155c565b6118eb6020830186611532565b6118f86040830185611532565b611905606083018461155c565b95945050505050565b7f6f72646572206973206e6f74206f70656e656400000000000000000000000000600082015250565b6000611944601383611660565b915061194f8261190e565b602082019050919050565b6000602082019050818103600083015261197381611937565b9050919050565b7f6f7264657220686173206e6f7420657870697265640000000000000000000000600082015250565b60006119b0601583611660565b91506119bb8261197a565b602082019050919050565b600060208201905081810360008301526119df816119a3565b9050919050565b7f74686973206f7264657220776173206e6f742066756e64656400000000000000600082015250565b6000611a1c601983611660565b9150611a27826119e6565b602082019050919050565b60006020820190508181036000830152611a4b81611a0f565b9050919050565b6000604082019050611a676000830185611523565b611a746020830184611532565b9392505050565b611a8481611541565b8114611a8f57600080fd5b50565b600081519050611aa181611a7b565b92915050565b600060208284031215611abd57611abc61135a565b5b6000611acb84828501611a92565b91505092915050565b6000606082019050611ae9600083018661155c565b611af66020830185611532565b611b036040830184611532565b949350505050565b7f74686973206f72646572206973206e6f74206f70656e65640000000000000000600082015250565b6000611b41601883611660565b9150611b4c82611b0b565b602082019050919050565b60006020820190508181036000830152611b7081611b34565b9050919050565b7f74686973206f7264657220686173206e6f74206265656e2066756e6465640000600082015250565b6000611bad601e83611660565b9150611bb882611b77565b602082019050919050565b60006020820190508181036000830152611bdc81611ba0565b9050919050565b7f6f72646572206861732065787069726564000000000000000000000000000000600082015250565b6000611c19601183611660565b9150611c2482611be3565b602082019050919050565b60006020820190508181036000830152611c4881611c0c565b9050919050565b7f696e76616c696420736563726574000000000000000000000000000000000000600082015250565b6000611c85600e83611660565b9150611c9082611c4f565b602082019050919050565b60006020820190508181036000830152611cb481611c78565b9050919050565b6000608082019050611cd0600083018761155c565b611cdd6020830186611532565b611cea604083018561155c565b611cf7606083018461155c565b95945050505050565b7f74686973206f726465722069736e2774206f70656e6564000000000000000000600082015250565b6000611d36601783611660565b9150611d4182611d00565b602082019050919050565b60006020820190508181036000830152611d6581611d29565b9050919050565b7f74686973206f7264657220686173206265656e2066756e646564000000000000600082015250565b6000611da2601a83611660565b9150611dad82611d6c565b602082019050919050565b60006020820190508181036000830152611dd181611d95565b9050919050565b6000606082019050611ded6000830186611523565b611dfa6020830185611523565b611e076040830184611532565b949350505050565b6000602082019050611e246000830184611532565b92915050565b7f696e76616c6964206f7264657200000000000000000000000000000000000000600082015250565b6000611e60600d83611660565b9150611e6b82611e2a565b602082019050919050565b60006020820190508181036000830152611e8f81611e53565b905091905056fea2646970667358221220bc5a1ce355243059bdb3060ebd09053074beb948aa4022d240d298153a854fc264736f6c634300080a0033",
  "immutableReferences": {},
  "source": "/// @title  HTLC to release USDT from investor to issuer\r\n/// @dev    Contract for DVP. Investor funds this contract with his usdt and gets the security token in exchange.\r\n\r\npragma solidity 0.8.10;\r\n\r\nimport \"../utils/IERC20.sol\";\r\n\r\n\r\ncontract HTLC20 {\r\n\r\n\r\n    mapping(bytes32 => OrderSwap) private _orderSwap;      //  map the order struct to the order ID\r\n    mapping(bytes32 => SwapState) private _swapState;      //  to keep track of the swap state of an id\r\n    address _owner;\r\n\r\n    IERC20 ERC20_TOKEN;\r\n\r\n    struct OrderSwap {\r\n\r\n        \r\n        address _recipient;\r\n        address _investor;\r\n        uint256 _price;\r\n        uint256 _expiration;\r\n        bytes32 _secretHash;\r\n        bytes32 _secretKey;\r\n        bytes32 _swapID;\r\n        bool _funded;\r\n        \r\n    }\r\n\r\n\r\n    enum SwapState {\r\n\r\n        INVALID,\r\n        OPEN,\r\n        CLOSED,\r\n        EXPIRED\r\n\r\n    }\r\n\r\n    constructor(address _usdtAddress) {\r\n\r\n        ERC20_TOKEN = IERC20(_usdtAddress);\r\n        _owner = msg.sender;\r\n\r\n    }\r\n\r\n    /// @dev    Issuer initializes the order with the same orderID in the htlc1400 contract\r\n    /// @dev    The issuer uses the ID to withdraw USDT from this contract, while the investor uses the ID to withdraw from the htlc1400 contract\r\n    /// @param  _swapID is the ID of the swap order. This ID must be valid on the htlc1400 contract for swap to occur\r\n    /// @param _investor is the address that will fund this contract with the given _swapID\r\n    /// @param  _price is the price of the security token to be purchased. This contract is funded by investor for this particular order\r\n    /// @param _expiration is the time expected for this order to expire before a refund can enabled\r\n    /// @param _secretHash is the hash of the secret set on this contract and htlc1400 for this particular swap ID\r\n\r\n    function openOrder(bytes32 _swapID, address _investor, uint256 _price, uint256 _expiration, bytes32 _secretHash, bytes32 _secretKey) external {\r\n\r\n        require(msg.sender == _owner, \"invalid caller\");\r\n        require(_swapState[_swapID] == SwapState.INVALID, \"this order id exist already\");\r\n        require( _secretHash == sha256(abi.encode(_secretKey)), \"the secret doesn't match the hash\");\r\n        _orderSwap[_swapID] = OrderSwap(msg.sender, _investor, _price, _expiration, _secretHash, bytes32(0), _swapID, false);\r\n        _swapState[_swapID] = SwapState.OPEN;\r\n        emit OpenedOrder(_investor, _swapID, _price, _expiration, _secretHash);\r\n\r\n    }\r\n\r\n\r\n    /// @param _swapID is the id of the order to be funded\r\n    /// @notice `_orderSwap[_swapID]._funded == false`, i.e the order must not be funded yet\r\n    /// @notice `_swapState[_swapID] == SwapState.OPEN` ,  i.e the order state must be opened\r\n    /// @dev this contract must be approved by the caller before calling this function\r\n\r\n    function fundOrder(bytes32 _swapID) external {\r\n\r\n        require(_swapState[_swapID] == SwapState.OPEN, \"this order isn't opened\");\r\n        require(_orderSwap[_swapID]._funded == false, \"this order has been funded\");\r\n        require(_orderSwap[_swapID]._investor == msg.sender, \"invalid caller\");\r\n        OrderSwap memory _order = _orderSwap[_swapID];\r\n        ERC20_TOKEN.transferFrom(_order._investor, address(this), _order._price);\r\n        _orderSwap[_swapID]._funded = true;\r\n        emit Funded(_order._investor, _order._price);\r\n\r\n    }\r\n\r\n\r\n    /// @param _swapID is the id of the order to withdrawn the usdt from\r\n    /// @param _secretKey is the secret the issuer must provide and reveal to the investor. The investor will in turn use this secret to withdraw the security token from the htlc1400 contract\r\n    /// @notice the caller is the owner of the contract\r\n    /// @notice the order must be OPEN\r\n    /// @notice the order must not be an expired order\r\n    /// @notice the hash of the secretKey must equal the hash in the order\r\n\r\n    function issuerWithdrawal(bytes32 _swapID, bytes32 _secretKey) external {\r\n\r\n        require(msg.sender == _owner, \"invalid caller\");\r\n        require(_swapState[_swapID] == SwapState.OPEN, \"this order is not opened\");\r\n        require(_orderSwap[_swapID]._funded == true, \"this order has not been funded\");\r\n        OrderSwap memory _order = _orderSwap[_swapID];\r\n        require(block.timestamp < _order._expiration, \"order has expired\");\r\n        require(sha256(abi.encode(_secretKey)) == _order._secretHash, \"invalid secret\"); \r\n        ERC20_TOKEN.transfer(_order._recipient, _order._price);\r\n        _orderSwap[_swapID]._secretKey = _secretKey;\r\n        _swapState[_swapID] = SwapState.CLOSED;\r\n        emit ClosedOrder(_order._investor, _swapID, _order._price, _order._secretKey, _order._secretHash);\r\n\r\n    }\r\n\r\n\r\n    function refund(bytes32 _swapID) external {\r\n\r\n        require(_swapState[_swapID] == SwapState.OPEN, \"order is not opened\");\r\n        require(block.timestamp > _orderSwap[_swapID]._expiration, \"order has not expired\");\r\n        require(_orderSwap[_swapID]._funded == true, \"this order was not funded\");\r\n        OrderSwap memory _order = _orderSwap[_swapID];\r\n        ERC20_TOKEN.transfer(_order._investor, _order._price);\r\n        _swapState[_swapID] = SwapState.EXPIRED;\r\n        emit RefundOrder(_order._investor, _swapID, _order._price, _order._expiration);\r\n\r\n    }\r\n\r\n\r\n    /// @param _swapID is the id of the order to be fetched\r\n    /// @notice `_swapID` must not be INVALID. it can be OPEN, CLOSED or EXPIRED. \r\n\r\n    function checkOrder(bytes32 _swapID) external view returns (address _recipient, address _investor, uint256 _amount, uint256 _expiration, bool _funded, bytes32 _orderID, SwapState _orderState, bytes32 _secretKey) {\r\n\r\n        require(_swapState[_swapID] != SwapState.INVALID, \"invalid order\");\r\n        OrderSwap memory _order = _orderSwap[_swapID];\r\n        SwapState _state = _swapState[_swapID];\r\n        return (_order._recipient, _order._investor, _order._price, _order._expiration, _order._funded, _swapID, _state, _order._secretKey);\r\n\r\n    }\r\n\r\n\r\n\r\n\r\n    /// continue with the refund function after expiration\r\n    /// continue with the check order function\r\n\r\n    event OpenedOrder(address indexed _investor, bytes32 _swapID, uint256 _amount, uint256 _expiration, bytes32 _secretHash);\r\n    event ClosedOrder(address indexed _investor, bytes32 _swapID, uint256 _amount, bytes32 _secretKey, bytes32 _secretHash);\r\n    event RefundOrder(address indexed _to, bytes32 _swapID, uint256 _amount, uint256 _expiration);\r\n    event Funded(address indexed _investor, uint256 _price);\r\n\r\n}",
  "sourcePath": "C:\\Users\\komolehin\\Documents\\Israel Linux\\blockchain\\TANGL\\security token\\contracts\\htlc\\HTLC20.sol",
  "compiler": {
    "name": "solc",
    "version": "0.8.10+commit.fc410830.Emscripten.clang"
  },
  "schemaVersion": "3.4.6",
  "updatedAt": "2022-03-24T19:07:03.449Z",
  "networkType": "ethereum",
  "devdoc": {
    "kind": "dev",
    "methods": {
      "checkOrder(bytes32)": {
        "params": {
          "_swapID": "is the id of the order to be fetched"
        }
      },
      "fundOrder(bytes32)": {
        "details": "this contract must be approved by the caller before calling this function",
        "params": {
          "_swapID": "is the id of the order to be funded"
        }
      },
      "issuerWithdrawal(bytes32,bytes32)": {
        "params": {
          "_secretKey": "is the secret the issuer must provide and reveal to the investor. The investor will in turn use this secret to withdraw the security token from the htlc1400 contract",
          "_swapID": "is the id of the order to withdrawn the usdt from"
        }
      },
      "openOrder(bytes32,address,uint256,uint256,bytes32,bytes32)": {
        "details": "Issuer initializes the order with the same orderID in the htlc1400 contractThe issuer uses the ID to withdraw USDT from this contract, while the investor uses the ID to withdraw from the htlc1400 contract",
        "params": {
          "_expiration": "is the time expected for this order to expire before a refund can enabled",
          "_investor": "is the address that will fund this contract with the given _swapID",
          "_price": "is the price of the security token to be purchased. This contract is funded by investor for this particular order",
          "_secretHash": "is the hash of the secret set on this contract and htlc1400 for this particular swap ID",
          "_swapID": "is the ID of the swap order. This ID must be valid on the htlc1400 contract for swap to occur"
        }
      }
    },
    "version": 1
  },
  "userdoc": {
    "events": {
      "OpenedOrder(address,bytes32,uint256,uint256,bytes32)": {
        "notice": "continue with the refund function after expiration continue with the check order function"
      }
    },
    "kind": "user",
    "methods": {
      "checkOrder(bytes32)": {
        "notice": "`_swapID` must not be INVALID. it can be OPEN, CLOSED or EXPIRED. "
      },
      "fundOrder(bytes32)": {
        "notice": "`_orderSwap[_swapID]._funded == false`, i.e the order must not be funded yet`_swapState[_swapID] == SwapState.OPEN` ,  i.e the order state must be opened"
      },
      "issuerWithdrawal(bytes32,bytes32)": {
        "notice": "the caller is the owner of the contractthe order must be OPENthe order must not be an expired orderthe hash of the secretKey must equal the hash in the order"
      }
    },
    "version": 1
  }
}