{
  "contractName": "HTLC1400",
  "abi": [
    {
      "inputs": [
        {
          "internalType": "address",
          "name": "_securityToken",
          "type": "address"
        }
      ],
      "stateMutability": "nonpayable",
      "type": "constructor"
    },
    {
      "anonymous": false,
      "inputs": [
        {
          "indexed": true,
          "internalType": "address",
          "name": "_recipient",
          "type": "address"
        },
        {
          "indexed": false,
          "internalType": "bytes32",
          "name": "_swapID",
          "type": "bytes32"
        },
        {
          "indexed": false,
          "internalType": "uint256",
          "name": "_amount",
          "type": "uint256"
        },
        {
          "indexed": false,
          "internalType": "bytes32",
          "name": "_secretKey",
          "type": "bytes32"
        },
        {
          "indexed": false,
          "internalType": "bytes32",
          "name": "_secretHash",
          "type": "bytes32"
        },
        {
          "indexed": false,
          "internalType": "bytes32",
          "name": "_partition",
          "type": "bytes32"
        }
      ],
      "name": "ClosedOrder",
      "type": "event"
    },
    {
      "anonymous": false,
      "inputs": [
        {
          "indexed": true,
          "internalType": "address",
          "name": "_recipient",
          "type": "address"
        },
        {
          "indexed": false,
          "internalType": "bytes32",
          "name": "_swapID",
          "type": "bytes32"
        },
        {
          "indexed": false,
          "internalType": "uint256",
          "name": "_amount",
          "type": "uint256"
        },
        {
          "indexed": false,
          "internalType": "uint256",
          "name": "_expiration",
          "type": "uint256"
        },
        {
          "indexed": false,
          "internalType": "bytes32",
          "name": "_secretHash",
          "type": "bytes32"
        },
        {
          "indexed": false,
          "internalType": "bytes32",
          "name": "_partition",
          "type": "bytes32"
        }
      ],
      "name": "OpenedOrder",
      "type": "event"
    },
    {
      "anonymous": false,
      "inputs": [
        {
          "indexed": true,
          "internalType": "address",
          "name": "_to",
          "type": "address"
        },
        {
          "indexed": false,
          "internalType": "bytes32",
          "name": "_swapID",
          "type": "bytes32"
        },
        {
          "indexed": false,
          "internalType": "uint256",
          "name": "_amount",
          "type": "uint256"
        },
        {
          "indexed": false,
          "internalType": "uint256",
          "name": "_expiration",
          "type": "uint256"
        },
        {
          "indexed": false,
          "internalType": "bytes32",
          "name": "_partition",
          "type": "bytes32"
        }
      ],
      "name": "RefundOrder",
      "type": "event"
    },
    {
      "inputs": [],
      "name": "ERC1400_TOKEN",
      "outputs": [
        {
          "internalType": "contract IERC1400",
          "name": "",
          "type": "address"
        }
      ],
      "stateMutability": "view",
      "type": "function",
      "constant": true
    },
    {
      "inputs": [
        {
          "internalType": "bytes32",
          "name": "_swapID",
          "type": "bytes32"
        },
        {
          "internalType": "bytes32",
          "name": "_secretKey",
          "type": "bytes32"
        },
        {
          "internalType": "bytes32",
          "name": "_secretHash",
          "type": "bytes32"
        },
        {
          "internalType": "bytes32",
          "name": "_partition",
          "type": "bytes32"
        },
        {
          "internalType": "address",
          "name": "_recipient",
          "type": "address"
        },
        {
          "internalType": "uint256",
          "name": "_tokenValue",
          "type": "uint256"
        },
        {
          "internalType": "uint256",
          "name": "_expiration",
          "type": "uint256"
        },
        {
          "internalType": "bytes",
          "name": "_data",
          "type": "bytes"
        }
      ],
      "name": "openOrder",
      "outputs": [],
      "stateMutability": "nonpayable",
      "type": "function"
    },
    {
      "inputs": [
        {
          "internalType": "bytes32",
          "name": "_swapID",
          "type": "bytes32"
        },
        {
          "internalType": "bytes32",
          "name": "_secretKey",
          "type": "bytes32"
        }
      ],
      "name": "recipientWithdrawal",
      "outputs": [],
      "stateMutability": "nonpayable",
      "type": "function"
    },
    {
      "inputs": [
        {
          "internalType": "bytes32",
          "name": "_swapID",
          "type": "bytes32"
        }
      ],
      "name": "refund",
      "outputs": [],
      "stateMutability": "nonpayable",
      "type": "function"
    },
    {
      "inputs": [
        {
          "internalType": "bytes32",
          "name": "_swapID",
          "type": "bytes32"
        }
      ],
      "name": "checkOrder",
      "outputs": [
        {
          "internalType": "address",
          "name": "_recipient",
          "type": "address"
        },
        {
          "internalType": "address",
          "name": "_issuer",
          "type": "address"
        },
        {
          "internalType": "uint256",
          "name": "_amount",
          "type": "uint256"
        },
        {
          "internalType": "uint256",
          "name": "_expiration",
          "type": "uint256"
        },
        {
          "internalType": "bytes32",
          "name": "_partition",
          "type": "bytes32"
        },
        {
          "internalType": "bytes32",
          "name": "_orderID",
          "type": "bytes32"
        },
        {
          "internalType": "enum HTLC1400.SwapState",
          "name": "_orderState",
          "type": "uint8"
        },
        {
          "internalType": "bytes32",
          "name": "_secretKey",
          "type": "bytes32"
        }
      ],
      "stateMutability": "view",
      "type": "function",
      "constant": true
    }
  ],
  "bytecode": "0x60806040523480156200001157600080fd5b5060405162001e0b38038062001e0b833981810160405281019062000037919062000129565b806000806101000a81548173ffffffffffffffffffffffffffffffffffffffff021916908373ffffffffffffffffffffffffffffffffffffffff16021790555033600360006101000a81548173ffffffffffffffffffffffffffffffffffffffff021916908373ffffffffffffffffffffffffffffffffffffffff160217905550506200015b565b600080fd5b600073ffffffffffffffffffffffffffffffffffffffff82169050919050565b6000620000f182620000c4565b9050919050565b6200010381620000e4565b81146200010f57600080fd5b50565b6000815190506200012381620000f8565b92915050565b600060208284031215620001425762000141620000bf565b5b6000620001528482850162000112565b91505092915050565b611ca0806200016b6000396000f3fe608060405234801561001057600080fd5b50600436106100575760003560e01c80633d31af001461005c5780637249fbb61461007a578063da10dd6114610096578063ea0945f9146100b2578063faf1be29146100ce575b600080fd5b610064610105565b604051610071919061104f565b60405180910390f35b610094600480360381019061008f91906110b4565b610129565b005b6100b060048036038101906100ab919061129b565b6104bc565b005b6100cc60048036038101906100c7919061136d565b61090d565b005b6100e860048036038101906100e391906110b4565b610dcf565b6040516100fc989796959493929190611451565b60405180910390f35b60008054906101000a900473ffffffffffffffffffffffffffffffffffffffff1681565b600060016000838152602001908152602001600020604051806101000160405290816000820160009054906101000a900473ffffffffffffffffffffffffffffffffffffffff1673ffffffffffffffffffffffffffffffffffffffff1673ffffffffffffffffffffffffffffffffffffffff1681526020016001820160009054906101000a900473ffffffffffffffffffffffffffffffffffffffff1673ffffffffffffffffffffffffffffffffffffffff1673ffffffffffffffffffffffffffffffffffffffff168152602001600282015481526020016003820154815260200160048201548152602001600582015481526020016006820154815260200160078201548152505090503373ffffffffffffffffffffffffffffffffffffffff16816020015173ffffffffffffffffffffffffffffffffffffffff16146102a6576040517f08c379a000000000000000000000000000000000000000000000000000000000815260040161029d9061152c565b60405180910390fd5b600160038111156102ba576102b96113da565b5b6002600084815260200190815260200160002060009054906101000a900460ff1660038111156102ed576102ec6113da565b5b1461032d576040517f08c379a000000000000000000000000000000000000000000000000000000000815260040161032490611598565b60405180910390fd5b80606001514211610373576040517f08c379a000000000000000000000000000000000000000000000000000000000815260040161036a90611604565b60405180910390fd5b60008054906101000a900473ffffffffffffffffffffffffffffffffffffffff1673ffffffffffffffffffffffffffffffffffffffff1663f3d490db8260c001513384604001516040518463ffffffff1660e01b81526004016103d893929190611661565b6020604051808303816000875af11580156103f7573d6000803e3d6000fd5b505050506040513d601f19601f8201168201806040525081019061041b91906116c0565b5060036002600084815260200190815260200160002060006101000a81548160ff02191690836003811115610453576104526113da565b5b02179055503373ffffffffffffffffffffffffffffffffffffffff167ffd787fc8b281ca72d33652f0a00e0d1abec83e0208c797c614d479debd37df6b83836040015184606001518560c001516040516104b094939291906116ed565b60405180910390a25050565b600360009054906101000a900473ffffffffffffffffffffffffffffffffffffffff1673ffffffffffffffffffffffffffffffffffffffff163373ffffffffffffffffffffffffffffffffffffffff161461054c576040517f08c379a00000000000000000000000000000000000000000000000000000000081526004016105439061152c565b60405180910390fd5b600060038111156105605761055f6113da565b5b600260008a815260200190815260200160002060009054906101000a900460ff166003811115610593576105926113da565b5b146105d3576040517f08c379a00000000000000000000000000000000000000000000000000000000081526004016105ca9061177e565b60405180910390fd5b6002876040516020016105e6919061179e565b6040516020818303038152906040526040516106029190611833565b602060405180830381855afa15801561061f573d6000803e3d6000fd5b5050506040513d601f19601f8201168201806040525081019061064291906116c0565b8614610683576040517f08c379a000000000000000000000000000000000000000000000000000000000815260040161067a906118bc565b60405180910390fd5b6040518061010001604052808573ffffffffffffffffffffffffffffffffffffffff1681526020013373ffffffffffffffffffffffffffffffffffffffff1681526020018481526020018381526020018781526020016000801b815260200186815260200189815250600160008a815260200190815260200160002060008201518160000160006101000a81548173ffffffffffffffffffffffffffffffffffffffff021916908373ffffffffffffffffffffffffffffffffffffffff16021790555060208201518160010160006101000a81548173ffffffffffffffffffffffffffffffffffffffff021916908373ffffffffffffffffffffffffffffffffffffffff16021790555060408201518160020155606082015181600301556080820151816004015560a0820151816005015560c0820151816006015560e0820151816007015590505060008054906101000a900473ffffffffffffffffffffffffffffffffffffffff1673ffffffffffffffffffffffffffffffffffffffff16638c0dee9c86333087866040518663ffffffff1660e01b815260040161082d95949392919061193b565b6020604051808303816000875af115801561084c573d6000803e3d6000fd5b505050506040513d601f19601f8201168201806040525081019061087091906116c0565b506001600260008a815260200190815260200160002060006101000a81548160ff021916908360038111156108a8576108a76113da565b5b02179055508373ffffffffffffffffffffffffffffffffffffffff167f7829ca8c30228292a4bb05c35cbd1ddd0e6c4f1fc443eb3a8195ebd2cc779a368985858a8a6040516108fb9594939291906119a8565b60405180910390a25050505050505050565b60016003811115610921576109206113da565b5b6002600084815260200190815260200160002060009054906101000a900460ff166003811115610954576109536113da565b5b14610994576040517f08c379a000000000000000000000000000000000000000000000000000000000815260040161098b90611a47565b60405180910390fd5b600160008381526020019081526020016000206003015442106109ec576040517f08c379a00000000000000000000000000000000000000000000000000000000081526004016109e390611ab3565b60405180910390fd5b6001600083815260200190815260200160002060000160009054906101000a900473ffffffffffffffffffffffffffffffffffffffff1673ffffffffffffffffffffffffffffffffffffffff163373ffffffffffffffffffffffffffffffffffffffff1614610a90576040517f08c379a0000000000000000000000000000000000000000000000000000000008152600401610a8790611b1f565b60405180910390fd5b6001600083815260200190815260200160002060040154600282604051602001610aba919061179e565b604051602081830303815290604052604051610ad69190611833565b602060405180830381855afa158015610af3573d6000803e3d6000fd5b5050506040513d601f19601f82011682018060405250810190610b1691906116c0565b14610b56576040517f08c379a0000000000000000000000000000000000000000000000000000000008152600401610b4d90611b8b565b60405180910390fd5b600060016000848152602001908152602001600020604051806101000160405290816000820160009054906101000a900473ffffffffffffffffffffffffffffffffffffffff1673ffffffffffffffffffffffffffffffffffffffff1673ffffffffffffffffffffffffffffffffffffffff1681526020016001820160009054906101000a900473ffffffffffffffffffffffffffffffffffffffff1673ffffffffffffffffffffffffffffffffffffffff1673ffffffffffffffffffffffffffffffffffffffff1681526020016002820154815260200160038201548152602001600482015481526020016005820154815260200160068201548152602001600782015481525050905060008054906101000a900473ffffffffffffffffffffffffffffffffffffffff1673ffffffffffffffffffffffffffffffffffffffff1663f3d490db8260c00151836000015184604001516040518463ffffffff1660e01b8152600401610cca93929190611661565b6020604051808303816000875af1158015610ce9573d6000803e3d6000fd5b505050506040513d601f19601f82011682018060405250810190610d0d91906116c0565b50816001600085815260200190815260200160002060050181905550600280600085815260200190815260200160002060006101000a81548160ff02191690836003811115610d5f57610d5e6113da565b5b0217905550806000015173ffffffffffffffffffffffffffffffffffffffff167f4f4ff5afc543b22acafdd439222feee30dc908d0a4364c8a7e53f4b74d95f1b98483604001518585608001518660c00151604051610dc2959493929190611bab565b60405180910390a2505050565b60008060008060008060008060006003811115610def57610dee6113da565b5b600260008b815260200190815260200160002060009054906101000a900460ff166003811115610e2257610e216113da565b5b1415610e63576040517f08c379a0000000000000000000000000000000000000000000000000000000008152600401610e5a90611c4a565b60405180910390fd5b6000600160008b8152602001908152602001600020604051806101000160405290816000820160009054906101000a900473ffffffffffffffffffffffffffffffffffffffff1673ffffffffffffffffffffffffffffffffffffffff1673ffffffffffffffffffffffffffffffffffffffff1681526020016001820160009054906101000a900473ffffffffffffffffffffffffffffffffffffffff1673ffffffffffffffffffffffffffffffffffffffff1673ffffffffffffffffffffffffffffffffffffffff168152602001600282015481526020016003820154815260200160048201548152602001600582015481526020016006820154815260200160078201548152505090506000600260008c815260200190815260200160002060009054906101000a900460ff16905081600001518260200151836040015184606001518560c001518f868860a00151995099509950995099509950995099505050919395975091939597565b600073ffffffffffffffffffffffffffffffffffffffff82169050919050565b6000819050919050565b600061101561101061100b84610fd0565b610ff0565b610fd0565b9050919050565b600061102782610ffa565b9050919050565b60006110398261101c565b9050919050565b6110498161102e565b82525050565b60006020820190506110646000830184611040565b92915050565b6000604051905090565b600080fd5b600080fd5b6000819050919050565b6110918161107e565b811461109c57600080fd5b50565b6000813590506110ae81611088565b92915050565b6000602082840312156110ca576110c9611074565b5b60006110d88482850161109f565b91505092915050565b60006110ec82610fd0565b9050919050565b6110fc816110e1565b811461110757600080fd5b50565b600081359050611119816110f3565b92915050565b6000819050919050565b6111328161111f565b811461113d57600080fd5b50565b60008135905061114f81611129565b92915050565b600080fd5b600080fd5b6000601f19601f8301169050919050565b7f4e487b7100000000000000000000000000000000000000000000000000000000600052604160045260246000fd5b6111a88261115f565b810181811067ffffffffffffffff821117156111c7576111c6611170565b5b80604052505050565b60006111da61106a565b90506111e6828261119f565b919050565b600067ffffffffffffffff82111561120657611205611170565b5b61120f8261115f565b9050602081019050919050565b82818337600083830152505050565b600061123e611239846111eb565b6111d0565b90508281526020810184848401111561125a5761125961115a565b5b61126584828561121c565b509392505050565b600082601f83011261128257611281611155565b5b813561129284826020860161122b565b91505092915050565b600080600080600080600080610100898b0312156112bc576112bb611074565b5b60006112ca8b828c0161109f565b98505060206112db8b828c0161109f565b97505060406112ec8b828c0161109f565b96505060606112fd8b828c0161109f565b955050608061130e8b828c0161110a565b94505060a061131f8b828c01611140565b93505060c06113308b828c01611140565b92505060e089013567ffffffffffffffff81111561135157611350611079565b5b61135d8b828c0161126d565b9150509295985092959890939650565b6000806040838503121561138457611383611074565b5b60006113928582860161109f565b92505060206113a38582860161109f565b9150509250929050565b6113b6816110e1565b82525050565b6113c58161111f565b82525050565b6113d48161107e565b82525050565b7f4e487b7100000000000000000000000000000000000000000000000000000000600052602160045260246000fd5b6004811061141a576114196113da565b5b50565b600081905061142b82611409565b919050565b600061143b8261141d565b9050919050565b61144b81611430565b82525050565b600061010082019050611467600083018b6113ad565b611474602083018a6113ad565b61148160408301896113bc565b61148e60608301886113bc565b61149b60808301876113cb565b6114a860a08301866113cb565b6114b560c0830185611442565b6114c260e08301846113cb565b9998505050505050505050565b600082825260208201905092915050565b7f696e76616c69642063616c6c6572000000000000000000000000000000000000600082015250565b6000611516600e836114cf565b9150611521826114e0565b602082019050919050565b6000602082019050818103600083015261154581611509565b9050919050565b7f6f72646572206973206e6f74206f70656e656400000000000000000000000000600082015250565b60006115826013836114cf565b915061158d8261154c565b602082019050919050565b600060208201905081810360008301526115b181611575565b9050919050565b7f746865206f726465722069732079657420746f20657870697265000000000000600082015250565b60006115ee601a836114cf565b91506115f9826115b8565b602082019050919050565b6000602082019050818103600083015261161d816115e1565b9050919050565b600082825260208201905092915050565b60008082015250565b600061164b600183611624565b915061165682611635565b602082019050919050565b600060808201905061167660008301866113cb565b61168360208301856113ad565b61169060408301846113bc565b81810360608301526116a18161163e565b9050949350505050565b6000815190506116ba81611088565b92915050565b6000602082840312156116d6576116d5611074565b5b60006116e4848285016116ab565b91505092915050565b600060808201905061170260008301876113cb565b61170f60208301866113bc565b61171c60408301856113bc565b61172960608301846113cb565b95945050505050565b7f6f7264657220494420657869737420616c726561647900000000000000000000600082015250565b60006117686016836114cf565b915061177382611732565b602082019050919050565b600060208201905081810360008301526117978161175b565b9050919050565b60006020820190506117b360008301846113cb565b92915050565b600081519050919050565b600081905092915050565b60005b838110156117ed5780820151818401526020810190506117d2565b838111156117fc576000848401525b50505050565b600061180d826117b9565b61181781856117c4565b93506118278185602086016117cf565b80840191505092915050565b600061183f8284611802565b915081905092915050565b7f7468652073656372657420646f65736e2774206d61746368207468652068617360008201527f6800000000000000000000000000000000000000000000000000000000000000602082015250565b60006118a66021836114cf565b91506118b18261184a565b604082019050919050565b600060208201905081810360008301526118d581611899565b9050919050565b50565b60006118ec600083611624565b91506118f7826118dc565b600082019050919050565b600061190d826117b9565b6119178185611624565b93506119278185602086016117cf565b6119308161115f565b840191505092915050565b600060c08201905061195060008301886113cb565b61195d60208301876113ad565b61196a60408301866113ad565b61197760608301856113bc565b8181036080830152611988816118df565b905081810360a083015261199c8184611902565b90509695505050505050565b600060a0820190506119bd60008301886113cb565b6119ca60208301876113bc565b6119d760408301866113bc565b6119e460608301856113cb565b6119f160808301846113cb565b9695505050505050565b7f74686973206f726465722069736e2774206f70656e6564000000000000000000600082015250565b6000611a316017836114cf565b9150611a3c826119fb565b602082019050919050565b60006020820190508181036000830152611a6081611a24565b9050919050565b7f7769746864726177616c20657870697265640000000000000000000000000000600082015250565b6000611a9d6012836114cf565b9150611aa882611a67565b602082019050919050565b60006020820190508181036000830152611acc81611a90565b9050919050565b7f696e76616c696420726563697069656e74000000000000000000000000000000600082015250565b6000611b096011836114cf565b9150611b1482611ad3565b602082019050919050565b60006020820190508181036000830152611b3881611afc565b9050919050565b7f696e76616c696420736563726574000000000000000000000000000000000000600082015250565b6000611b75600e836114cf565b9150611b8082611b3f565b602082019050919050565b60006020820190508181036000830152611ba481611b68565b9050919050565b600060a082019050611bc060008301886113cb565b611bcd60208301876113bc565b611bda60408301866113cb565b611be760608301856113cb565b611bf460808301846113cb565b9695505050505050565b7f696e76616c6964206f7264657200000000000000000000000000000000000000600082015250565b6000611c34600d836114cf565b9150611c3f82611bfe565b602082019050919050565b60006020820190508181036000830152611c6381611c27565b905091905056fea26469706673582212207ae1001da8bd7fb2bcabfbaa294310f8d71b022e07a5230e810106d845e2d63a64736f6c634300080a0033",
  "immutableReferences": {},
  "source": "pragma solidity 0.8.10;\r\n\r\nimport \"../utils/IERC1400.sol\";\r\n\r\n\r\n\r\n/// @title HTLC to release security from issuer to investor \r\n\r\ncontract HTLC1400 {\r\n\r\n\r\n    /// @notice Contract for DVP. Seller discloses the preimage of the hash. Secret is exchanged for money over the block chain\r\n    /// @notice Seller is permitted to spend the funds by disclosing the preimage of a hash\r\n    /// @notice Buyer is permitted to spend the funds after a timeout is reached, in a refund situation\r\n    /// @dev    HTLC enable atomic swap\r\n    /// @dev    Buyer: entity that receives funds from seller once the seller reveals the secret\r\n    /// @dev    Seller: entity that contributes funds to the buyer by revealing the secret or refunds after expiration\r\n    /// @dev    Secret: random number chosen by the seller revealed to allow the buyer to redeem the funds\r\n    /// @dev    Secret Hash: hash of the secret. used in the construction of the HTLC\r\n    /// @dev    Expiration: timestamp that determines when seller and buyer can redeem\r\n\r\n\r\n\r\n    /// @TODO \r\n    /// @dev issuer funds the HTLC1400 with open order\r\n    /// @dev Recipient enters the secret and withdraws the security token provided the order is still OPEN\r\n    /// @dev implement timelock to refund the token to the issuer if the order expires while it is still OPEN\r\n\r\n    /// @dev    The swap state solves some of the following security problem:\r\n    /// @notice If swap state if not monitored, recipient can attempt the expected amount to withdraw multiple times within the timeframe\r\n    /// @notice When the swap reaches expiration, before attempting to refund, it is needed to know the state of withdrawal. There is no need to refund the token if a withdrawal was successful\r\n\r\n\r\n\r\n    IERC1400 public ERC1400_TOKEN;\r\n   \r\n\r\n    mapping(bytes32 => OrderSwap) private _orderSwap;      //  map the order struct to the order ID\r\n    mapping(bytes32 => SwapState) private _swapState;      //  to keep track of the swap state of an id\r\n    address _owner;\r\n\r\n\r\n    struct OrderSwap {\r\n\r\n        \r\n        address _recipient;\r\n        address _issuer;\r\n        uint256 _tokenValue;\r\n        uint256 _expiration;\r\n        bytes32 _secretHash;\r\n        bytes32 _secretKey;\r\n        bytes32 _partition;\r\n        bytes32 _swapID;\r\n        \r\n    }\r\n\r\n\r\n    enum SwapState {\r\n\r\n        INVALID,\r\n        OPEN,\r\n        CLOSED,\r\n        EXPIRED\r\n    }\r\n\r\n    constructor(address _securityToken) {\r\n\r\n        ERC1400_TOKEN = IERC1400(_securityToken);\r\n        _owner = msg.sender;\r\n        \r\n    }\r\n\r\n\r\n\r\n    /// @dev    when an order is opened, the issuer funds the contract with the token\r\n    /// @param   _swapID is the ID of the swap order that keeps track of the state of the order. The withdrawee will make reference to this ID on this contract and their deposit contract as well. The SwapState of that ID must be invalid which means it has not been used\r\n    /// @param  _recipient is the target recipient/withdrawal of the deposited token\r\n    /// @param  _tokenValue is the amount of token to be withdrawn by the investor\r\n    /// @param  _expiration is the time the token withdrawal elasp. There will be a refund to the issuer's wallet if the token isn't withdrawn\r\n    /// @param  _secretKey is the secret word or phrase attached to an order\r\n    /// @param  _secretHash is the hash of the secret that must be provided by the recipient for the recipient to withdraw the security token\r\n    /// @param  _partition is the partition where the token will be withdrawn into, in the investor's wallet\r\n    /// @param  _data is the encoded certificate that will be decoded to ensure that the recipient is a whitelisted investor\r\n    /// @dev    this htlc contract address should be approved as an operator using \"authorizeOperator\" accross all partitions or \"authorizeOperatorByPartition\" for the specific partitions where tokens need to be deposited for the atomic swap\r\n    /// @dev    with the uniqueness of the IDS, the secrets dont have to be unique accross the blockchain. The unique ID will keep track of each unique swap orders\r\n    /// @notice ERC1400_TOKEN.operatorTransferByPartition function moves the tokens from the issuer wallets to the htlc address\r\n\r\n    function openOrder(bytes32 _swapID, bytes32 _secretKey, bytes32 _secretHash, bytes32 _partition, address _recipient, uint256 _tokenValue, uint256 _expiration, bytes memory _data) external {\r\n\r\n        /// --->    logic to check the whitelist status of the recipient should be checked here\r\n\r\n        require(msg.sender == _owner, \"invalid caller\");\r\n        require(_swapState[_swapID] == SwapState.INVALID, \"order ID exist already\");\r\n        require( _secretHash == sha256(abi.encode(_secretKey)), \"the secret doesn't match the hash\");\r\n        _orderSwap[_swapID] = OrderSwap(_recipient, msg.sender, _tokenValue, _expiration, _secretHash, bytes32(0), _partition, _swapID);         // save the order on the blockchain so that the target investor can make reference to it for withdrawal\r\n        ERC1400_TOKEN.operatorTransferByPartition(_partition, msg.sender, address(this), _tokenValue, \"\", _data);                        // the htlc contract moves tokens from the caller's wallet, i.e the issuer and deposits them in its address to be released to the expected recipient\r\n        _swapState[_swapID] = SwapState.OPEN;                                                                                            // keep the order state OPEN till it is CLOSES or EXPIRES\r\n        emit OpenedOrder(_recipient, _swapID, _tokenValue, _expiration, _secretHash, _partition);\r\n\r\n    }\r\n\r\n\r\n\r\n    /// @param  _secretKey is the secret the recipient provides to withdraw the token from the htlc contract    \r\n    /// @param  _swapID is the ID of the order. The ID provided must be valid\r\n    /// @notice the existence of the hash of the secret is checked to be sure that it exist\r\n    /// @notice the swap state of the ID is checked to ensure that a recipient can only attempt a withdrawal when it's OPEN. When INVALID, CLOSED, or EXPIRED, withdrawal will not be possible\r\n    /// @notice that OPEN is present tense\r\n    /// @notice `msg.sender` is equal the recipient of the token\r\n    /// @notice `block.timestamp` is less than `expiration value` for valid withdrawal\r\n    /// @notice `_swapState[_swapID] = SwapState.CLOSED`    closes the order after successful withdrawal\r\n    /// @notice `_orderSwap[_swapID]._secretKey = _secretKey;` to update the secretKey value of the OrderSwap data for that ID\r\n    \r\n    function recipientWithdrawal(bytes32 _swapID, bytes32 _secretKey) external {\r\n\r\n        require(_swapState[_swapID] == SwapState.OPEN, \"this order isn't opened\");                                      // this order must not be CLOSED, INVALID or EXPIRED. it must be opened\r\n        require(block.timestamp < _orderSwap[_swapID]._expiration, \"withdrawal expired\");\r\n        require(msg.sender == _orderSwap[_swapID]._recipient, \"invalid recipient\");                       \r\n        require(sha256(abi.encode(_secretKey)) == _orderSwap[_swapID]._secretHash, \"invalid secret\");                   // the hash of the provided secret by the investor must match the hash in this order ID \r\n        OrderSwap memory _order = _orderSwap[_swapID];                                                                  // fetch the order data\r\n        ERC1400_TOKEN.transferByPartition(_order._partition, _order._recipient, _order._tokenValue, hex\"00\");           // the htlc contract releases the token to the investor\r\n        _orderSwap[_swapID]._secretKey = _secretKey;                                                                    //  update the secretKey value to be publicly available on the on-chain\r\n        _swapState[_swapID] = SwapState.CLOSED;                                                                         //  close the order\r\n        emit ClosedOrder(_order._recipient, _swapID, _order._tokenValue, _secretKey, _order._secretHash, _order._partition);\r\n        \r\n    }\r\n\r\n\r\n    /// @param _swapID is the id of the order to refunded to the issuer \r\n    /// @notice `_order._issuer` should be msg.sender\r\n    /// @notice `_order._expiration` should be lesser than the current time.  In order words, the order has expired\r\n    /// @notice `ERC1400_TOKEN.transferByPartition` refunds the issuer\r\n    /// @notice `_swapState[_swapID] = SwapState.EXPIRED` sets the order's state to EXPIRED\r\n\r\n    function refund(bytes32 _swapID) external {\r\n\r\n        OrderSwap memory _order = _orderSwap[_swapID];\r\n        require(_order._issuer == msg.sender, \"invalid caller\");\r\n        require(_swapState[_swapID] == SwapState.OPEN, \"order is not opened\");\r\n        require(block.timestamp > _order._expiration, \"the order is yet to expire\"); \r\n        ERC1400_TOKEN.transferByPartition(_order._partition, msg.sender, _order._tokenValue, hex\"00\");\r\n        _swapState[_swapID] = SwapState.EXPIRED;\r\n        emit RefundOrder(msg.sender, _swapID, _order._tokenValue, _order._expiration, _order._partition);\r\n\r\n    }\r\n\r\n\r\n\r\n    /// @param _swapID is the id of the order to be fetched\r\n    /// @notice `_swapID` must not be INVALID. it can be OPEN, CLOSED or EXPIRED. \r\n\r\n    function checkOrder(bytes32 _swapID) external view returns (address _recipient, address _issuer, uint256 _amount, uint256 _expiration, bytes32 _partition, bytes32 _orderID, SwapState _orderState, bytes32 _secretKey) {\r\n\r\n        require(_swapState[_swapID] != SwapState.INVALID, \"invalid order\");\r\n        OrderSwap memory _order = _orderSwap[_swapID];\r\n        SwapState _state = _swapState[_swapID];\r\n        return (_order._recipient, _order._issuer, _order._tokenValue, _order._expiration, _order._partition, _swapID, _state, _order._secretKey);\r\n\r\n    }\r\n\r\n\r\n    \r\n\r\n    \r\n    \r\n    event OpenedOrder(address indexed _recipient, bytes32 _swapID, uint256 _amount, uint256 _expiration, bytes32 _secretHash, bytes32 _partition);\r\n    event ClosedOrder(address indexed _recipient, bytes32 _swapID, uint256 _amount,bytes32 _secretKey, bytes32 _secretHash, bytes32 _partition);\r\n    event RefundOrder(address indexed _to, bytes32 _swapID, uint256 _amount, uint256 _expiration, bytes32 _partition);\r\n\r\n}",
  "sourcePath": "C:\\Users\\komolehin\\Documents\\Israel Linux\\blockchain\\TANGL\\security token\\contracts\\htlc\\HTLC1400.sol",
  "compiler": {
    "name": "solc",
    "version": "0.8.10+commit.fc410830.Emscripten.clang"
  },
  "schemaVersion": "3.4.6",
  "updatedAt": "2022-03-27T20:16:24.599Z",
  "networkType": "ethereum",
  "devdoc": {
    "kind": "dev",
    "methods": {
      "checkOrder(bytes32)": {
        "params": {
          "_swapID": "is the id of the order to be fetched"
        }
      },
      "openOrder(bytes32,bytes32,bytes32,bytes32,address,uint256,uint256,bytes)": {
        "details": "when an order is opened, the issuer funds the contract with the tokenthis htlc contract address should be approved as an operator using \"authorizeOperator\" accross all partitions or \"authorizeOperatorByPartition\" for the specific partitions where tokens need to be deposited for the atomic swapwith the uniqueness of the IDS, the secrets dont have to be unique accross the blockchain. The unique ID will keep track of each unique swap orders",
        "params": {
          "_data": "is the encoded certificate that will be decoded to ensure that the recipient is a whitelisted investor",
          "_expiration": "is the time the token withdrawal elasp. There will be a refund to the issuer's wallet if the token isn't withdrawn",
          "_partition": "is the partition where the token will be withdrawn into, in the investor's wallet",
          "_recipient": "is the target recipient/withdrawal of the deposited token",
          "_secretHash": "is the hash of the secret that must be provided by the recipient for the recipient to withdraw the security token",
          "_secretKey": "is the secret word or phrase attached to an order",
          "_swapID": "is the ID of the swap order that keeps track of the state of the order. The withdrawee will make reference to this ID on this contract and their deposit contract as well. The SwapState of that ID must be invalid which means it has not been used",
          "_tokenValue": "is the amount of token to be withdrawn by the investor"
        }
      },
      "recipientWithdrawal(bytes32,bytes32)": {
        "params": {
          "_secretKey": "is the secret the recipient provides to withdraw the token from the htlc contract    ",
          "_swapID": "is the ID of the order. The ID provided must be valid"
        }
      },
      "refund(bytes32)": {
        "params": {
          "_swapID": "is the id of the order to refunded to the issuer "
        }
      }
    },
    "stateVariables": {
      "ERC1400_TOKEN": {
        "details": "The swap state solves some of the following security problem:"
      }
    },
    "title": "HTLC to release security from issuer to investor ",
    "version": 1
  },
  "userdoc": {
    "kind": "user",
    "methods": {
      "ERC1400_TOKEN()": {
        "notice": "If swap state if not monitored, recipient can attempt the expected amount to withdraw multiple times within the timeframeWhen the swap reaches expiration, before attempting to refund, it is needed to know the state of withdrawal. There is no need to refund the token if a withdrawal was successful"
      },
      "checkOrder(bytes32)": {
        "notice": "`_swapID` must not be INVALID. it can be OPEN, CLOSED or EXPIRED. "
      },
      "openOrder(bytes32,bytes32,bytes32,bytes32,address,uint256,uint256,bytes)": {
        "notice": "ERC1400_TOKEN.operatorTransferByPartition function moves the tokens from the issuer wallets to the htlc address"
      },
      "recipientWithdrawal(bytes32,bytes32)": {
        "notice": "the existence of the hash of the secret is checked to be sure that it existthe swap state of the ID is checked to ensure that a recipient can only attempt a withdrawal when it's OPEN. When INVALID, CLOSED, or EXPIRED, withdrawal will not be possiblethat OPEN is present tense`msg.sender` is equal the recipient of the token`block.timestamp` is less than `expiration value` for valid withdrawal`_swapState[_swapID] = SwapState.CLOSED`    closes the order after successful withdrawal`_orderSwap[_swapID]._secretKey = _secretKey;` to update the secretKey value of the OrderSwap data for that ID"
      },
      "refund(bytes32)": {
        "notice": "`_order._issuer` should be msg.sender`_order._expiration` should be lesser than the current time.  In order words, the order has expired`ERC1400_TOKEN.transferByPartition` refunds the issuer`_swapState[_swapID] = SwapState.EXPIRED` sets the order's state to EXPIRED"
      }
    },
    "version": 1
  }
}